{"contracts/PetRace.sol":{"PetRace":{"abi":[{"inputs":[{"internalType":"address","name":"_platformFeeAddress","type":"address"}],"stateMutability":"nonpayable","type":"constructor"},{"anonymous":false,"inputs":[{"indexed":false,"internalType":"uint256","name":"id","type":"uint256"},{"indexed":false,"internalType":"uint256","name":"startTime","type":"uint256"},{"indexed":false,"internalType":"uint256","name":"endTime","type":"uint256"}],"name":"GameCreated","type":"event"},{"anonymous":false,"inputs":[{"indexed":false,"internalType":"uint256","name":"gameId","type":"uint256"},{"indexed":false,"internalType":"uint256","name":"petId","type":"uint256"}],"name":"JoinGame","type":"event"},{"anonymous":false,"inputs":[{"indexed":true,"internalType":"address","name":"previousOwner","type":"address"},{"indexed":true,"internalType":"address","name":"newOwner","type":"address"}],"name":"OwnershipTransferStarted","type":"event"},{"anonymous":false,"inputs":[{"indexed":true,"internalType":"address","name":"previousOwner","type":"address"},{"indexed":true,"internalType":"address","name":"newOwner","type":"address"}],"name":"OwnershipTransferred","type":"event"},{"anonymous":false,"inputs":[{"indexed":false,"internalType":"uint256","name":"id","type":"uint256"},{"indexed":false,"internalType":"string","name":"name","type":"string"}],"name":"PetCreated","type":"event"},{"inputs":[],"name":"BASE_PRICE","outputs":[{"internalType":"uint256","name":"","type":"uint256"}],"stateMutability":"view","type":"function"},{"inputs":[],"name":"FIRST_WINNER_PRIZE","outputs":[{"internalType":"uint256","name":"","type":"uint256"}],"stateMutability":"view","type":"function"},{"inputs":[],"name":"MAX_LEVEL","outputs":[{"internalType":"uint256","name":"","type":"uint256"}],"stateMutability":"view","type":"function"},{"inputs":[],"name":"MAX_PETS","outputs":[{"internalType":"uint256","name":"","type":"uint256"}],"stateMutability":"view","type":"function"},{"inputs":[],"name":"MAX_PETS_PER_GAME","outputs":[{"internalType":"uint256","name":"","type":"uint256"}],"stateMutability":"view","type":"function"},{"inputs":[],"name":"SECOND_WINNER_PRIZE","outputs":[{"internalType":"uint256","name":"","type":"uint256"}],"stateMutability":"view","type":"function"},{"inputs":[],"name":"THIRD_WINNER_PRIZE","outputs":[{"internalType":"uint256","name":"","type":"uint256"}],"stateMutability":"view","type":"function"},{"inputs":[],"name":"acceptOwnership","outputs":[],"stateMutability":"nonpayable","type":"function"},{"inputs":[],"name":"blastAddress","outputs":[{"internalType":"address","name":"","type":"address"}],"stateMutability":"view","type":"function"},{"inputs":[],"name":"claimYieldAndGas","outputs":[],"stateMutability":"nonpayable","type":"function"},{"inputs":[{"internalType":"uint256","name":"_startTime","type":"uint256"},{"internalType":"uint256","name":"_endTime","type":"uint256"},{"internalType":"uint256","name":"_entryFee","type":"uint256"},{"internalType":"uint256","name":"_raceDistance","type":"uint256"}],"name":"createGame","outputs":[],"stateMutability":"nonpayable","type":"function"},{"inputs":[{"internalType":"string","name":"_name","type":"string"}],"name":"createPet","outputs":[],"stateMutability":"payable","type":"function"},{"inputs":[{"internalType":"uint256","name":"_gameId","type":"uint256"}],"name":"distributePrize","outputs":[],"stateMutability":"nonpayable","type":"function"},{"inputs":[{"internalType":"uint256","name":"_gameId","type":"uint256"},{"internalType":"uint256[]","name":"_winners","type":"uint256[]"}],"name":"finishGame","outputs":[],"stateMutability":"nonpayable","type":"function"},{"inputs":[{"internalType":"uint256","name":"","type":"uint256"}],"name":"games","outputs":[{"internalType":"uint256","name":"id","type":"uint256"},{"internalType":"uint256","name":"winningPrize","type":"uint256"},{"internalType":"uint256","name":"entryFee","type":"uint256"},{"internalType":"uint256","name":"startTime","type":"uint256"},{"internalType":"uint256","name":"endTime","type":"uint256"},{"internalType":"uint256","name":"raceDistance","type":"uint256"},{"internalType":"bool","name":"isFinished","type":"bool"}],"stateMutability":"view","type":"function"},{"inputs":[],"name":"getFinishedGames","outputs":[{"components":[{"internalType":"uint256","name":"id","type":"uint256"},{"internalType":"uint256[]","name":"pets","type":"uint256[]"},{"internalType":"uint256[]","name":"winners","type":"uint256[]"},{"internalType":"uint256","name":"winningPrize","type":"uint256"},{"internalType":"uint256","name":"entryFee","type":"uint256"},{"internalType":"uint256","name":"startTime","type":"uint256"},{"internalType":"uint256","name":"endTime","type":"uint256"},{"internalType":"uint256","name":"raceDistance","type":"uint256"},{"internalType":"bool","name":"isFinished","type":"bool"}],"internalType":"struct PetRace.Game[]","name":"","type":"tuple[]"}],"stateMutability":"view","type":"function"},{"inputs":[{"internalType":"uint256","name":"_gameId","type":"uint256"}],"name":"getGame","outputs":[{"components":[{"internalType":"uint256","name":"id","type":"uint256"},{"internalType":"uint256[]","name":"pets","type":"uint256[]"},{"internalType":"uint256[]","name":"winners","type":"uint256[]"},{"internalType":"uint256","name":"winningPrize","type":"uint256"},{"internalType":"uint256","name":"entryFee","type":"uint256"},{"internalType":"uint256","name":"startTime","type":"uint256"},{"internalType":"uint256","name":"endTime","type":"uint256"},{"internalType":"uint256","name":"raceDistance","type":"uint256"},{"internalType":"bool","name":"isFinished","type":"bool"}],"internalType":"struct PetRace.Game","name":"","type":"tuple"}],"stateMutability":"view","type":"function"},{"inputs":[{"internalType":"address","name":"_owner","type":"address"}],"name":"getMyPets","outputs":[{"components":[{"internalType":"uint256","name":"id","type":"uint256"},{"internalType":"string","name":"name","type":"string"},{"internalType":"uint256","name":"speed","type":"uint256"},{"internalType":"uint256","name":"stamina","type":"uint256"},{"internalType":"uint256","name":"strength","type":"uint256"},{"internalType":"uint256","name":"agility","type":"uint256"},{"internalType":"uint256","name":"intelligence","type":"uint256"},{"internalType":"uint256","name":"luck","type":"uint256"},{"internalType":"uint256","name":"level","type":"uint256"},{"internalType":"uint256","name":"experience","type":"uint256"},{"internalType":"uint256","name":"wins","type":"uint256"},{"internalType":"uint256","name":"losses","type":"uint256"},{"internalType":"uint256","name":"draws","type":"uint256"},{"internalType":"uint256","name":"raceCount","type":"uint256"},{"internalType":"uint256","name":"basePrice","type":"uint256"},{"internalType":"address","name":"owner","type":"address"}],"internalType":"struct PetRace.Pet[]","name":"","type":"tuple[]"}],"stateMutability":"view","type":"function"},{"inputs":[],"name":"getUnfinishedGames","outputs":[{"components":[{"internalType":"uint256","name":"id","type":"uint256"},{"internalType":"uint256[]","name":"pets","type":"uint256[]"},{"internalType":"uint256[]","name":"winners","type":"uint256[]"},{"internalType":"uint256","name":"winningPrize","type":"uint256"},{"internalType":"uint256","name":"entryFee","type":"uint256"},{"internalType":"uint256","name":"startTime","type":"uint256"},{"internalType":"uint256","name":"endTime","type":"uint256"},{"internalType":"uint256","name":"raceDistance","type":"uint256"},{"internalType":"bool","name":"isFinished","type":"bool"}],"internalType":"struct PetRace.Game[]","name":"","type":"tuple[]"}],"stateMutability":"view","type":"function"},{"inputs":[{"internalType":"uint256","name":"_gameId","type":"uint256"},{"internalType":"uint256","name":"_petId","type":"uint256"}],"name":"joinGame","outputs":[],"stateMutability":"payable","type":"function"},{"inputs":[],"name":"owner","outputs":[{"internalType":"address","name":"","type":"address"}],"stateMutability":"view","type":"function"},{"inputs":[],"name":"pendingOwner","outputs":[{"internalType":"address","name":"","type":"address"}],"stateMutability":"view","type":"function"},{"inputs":[],"name":"petAttributesFees","outputs":[{"internalType":"uint256","name":"speed","type":"uint256"},{"internalType":"uint256","name":"stamina","type":"uint256"},{"internalType":"uint256","name":"strength","type":"uint256"},{"internalType":"uint256","name":"agility","type":"uint256"},{"internalType":"uint256","name":"intelligence","type":"uint256"},{"internalType":"uint256","name":"luck","type":"uint256"}],"stateMutability":"view","type":"function"},{"inputs":[],"name":"petMaxAttributes","outputs":[{"internalType":"uint256","name":"speed","type":"uint256"},{"internalType":"uint256","name":"stamina","type":"uint256"},{"internalType":"uint256","name":"strength","type":"uint256"},{"internalType":"uint256","name":"agility","type":"uint256"},{"internalType":"uint256","name":"intelligence","type":"uint256"},{"internalType":"uint256","name":"luck","type":"uint256"}],"stateMutability":"view","type":"function"},{"inputs":[{"internalType":"uint256","name":"","type":"uint256"}],"name":"pets","outputs":[{"internalType":"uint256","name":"id","type":"uint256"},{"internalType":"string","name":"name","type":"string"},{"internalType":"uint256","name":"speed","type":"uint256"},{"internalType":"uint256","name":"stamina","type":"uint256"},{"internalType":"uint256","name":"strength","type":"uint256"},{"internalType":"uint256","name":"agility","type":"uint256"},{"internalType":"uint256","name":"intelligence","type":"uint256"},{"internalType":"uint256","name":"luck","type":"uint256"},{"internalType":"uint256","name":"level","type":"uint256"},{"internalType":"uint256","name":"experience","type":"uint256"},{"internalType":"uint256","name":"wins","type":"uint256"},{"internalType":"uint256","name":"losses","type":"uint256"},{"internalType":"uint256","name":"draws","type":"uint256"},{"internalType":"uint256","name":"raceCount","type":"uint256"},{"internalType":"uint256","name":"basePrice","type":"uint256"},{"internalType":"address","name":"owner","type":"address"}],"stateMutability":"view","type":"function"},{"inputs":[],"name":"platformFee","outputs":[{"internalType":"uint256","name":"","type":"uint256"}],"stateMutability":"view","type":"function"},{"inputs":[],"name":"platformFeeAddress","outputs":[{"internalType":"address","name":"","type":"address"}],"stateMutability":"view","type":"function"},{"inputs":[],"name":"renounceOwnership","outputs":[],"stateMutability":"nonpayable","type":"function"},{"inputs":[{"internalType":"address","name":"_blastAddress","type":"address"}],"name":"setBlastAddress","outputs":[],"stateMutability":"nonpayable","type":"function"},{"inputs":[{"internalType":"uint256","name":"_speed","type":"uint256"},{"internalType":"uint256","name":"_stamina","type":"uint256"},{"internalType":"uint256","name":"_strength","type":"uint256"},{"internalType":"uint256","name":"_agility","type":"uint256"},{"internalType":"uint256","name":"_intelligence","type":"uint256"},{"internalType":"uint256","name":"_luck","type":"uint256"}],"name":"setPetAttributesFees","outputs":[],"stateMutability":"nonpayable","type":"function"},{"inputs":[{"internalType":"uint256","name":"_speed","type":"uint256"},{"internalType":"uint256","name":"_stamina","type":"uint256"},{"internalType":"uint256","name":"_strength","type":"uint256"},{"internalType":"uint256","name":"_agility","type":"uint256"},{"internalType":"uint256","name":"_intelligence","type":"uint256"},{"internalType":"uint256","name":"_luck","type":"uint256"}],"name":"setPetMaxAttributes","outputs":[],"stateMutability":"nonpayable","type":"function"},{"inputs":[{"internalType":"uint256","name":"_platformFee","type":"uint256"}],"name":"setPlatformFee","outputs":[],"stateMutability":"nonpayable","type":"function"},{"inputs":[{"internalType":"address","name":"_platformFeeAddress","type":"address"}],"name":"setPlatformFeeAddress","outputs":[],"stateMutability":"nonpayable","type":"function"},{"inputs":[{"internalType":"address","name":"newOwner","type":"address"}],"name":"transferOwnership","outputs":[],"stateMutability":"nonpayable","type":"function"},{"inputs":[{"internalType":"uint256","name":"_petId","type":"uint256"},{"internalType":"uint256","name":"_agility","type":"uint256"}],"name":"upgradePetAgility","outputs":[],"stateMutability":"payable","type":"function"},{"inputs":[{"internalType":"uint256","name":"_petId","type":"uint256"},{"internalType":"uint256","name":"_intelligence","type":"uint256"}],"name":"upgradePetIntelligence","outputs":[],"stateMutability":"payable","type":"function"},{"inputs":[{"internalType":"uint256","name":"_petId","type":"uint256"},{"internalType":"uint256","name":"_luck","type":"uint256"}],"name":"upgradePetLuck","outputs":[],"stateMutability":"payable","type":"function"},{"inputs":[{"internalType":"uint256","name":"_petId","type":"uint256"},{"internalType":"uint256","name":"_speed","type":"uint256"}],"name":"upgradePetSpees","outputs":[],"stateMutability":"payable","type":"function"},{"inputs":[{"internalType":"uint256","name":"_petId","type":"uint256"},{"internalType":"uint256","name":"_stamina","type":"uint256"}],"name":"upgradePetStamina","outputs":[],"stateMutability":"payable","type":"function"},{"inputs":[{"internalType":"uint256","name":"_petId","type":"uint256"},{"internalType":"uint256","name":"_strength","type":"uint256"}],"name":"upgradePetStrength","outputs":[],"stateMutability":"payable","type":"function"}],"evm":{"bytecode":{"linkReferences":{},"object":"6080346200020657601f6200270438819003918201601f191683019260009290916001600160401b03851183861017620001f2578160209284926040978852833981010312620001ee57516001600160a01b0380821691829003620001aa57600180546001600160a01b0319908116909155835433818316811786558651929184167f8be0079c531659141344cd1fd0a4f28419497f9722a3daafe3b4186f6b6457e08780a3600160025567016345785d8a00006004558373430000000000000000000000000000000000000291828160055416176005556003541617600355803b15620001ea578160048187809463784c3b3d60e11b83525af18015620001c657620001d4575b508060055416803b15620001d0578380916004875180948193634e606c4760e01b83525af18015620001c657908491620001ae575b50506005541690813b15620001aa5782916024839286519485938492631d70c8d360e31b845260048401525af18015620001a05762000185575b82516124ce9081620002368239f35b6200019182916200020b565b6200019d578062000176565b80fd5b83513d84823e3d90fd5b8280fd5b620001b9906200020b565b620001aa5782386200013c565b85513d86823e3d90fd5b8380fd5b620001e2909391936200020b565b913862000107565b8480fd5b5080fd5b634e487b7160e01b84526041600452602484fd5b600080fd5b6001600160401b0381116200021f57604052565b634e487b7160e01b600052604160045260246000fdfe60a080604052600436101561001357600080fd5b60003560e01c90816302056ecb14611d4e57508063041e40ae14611d12578063089d5c1714611cef578063117a5b9014611c76578063123e499914611c3057806312e8e2c314611c0f5780631f5974c014611b9757806326232a2e14611b7957806338ec8b4214611a2f57806349d3d5e114611a065780634ecf77d31461198e578063688049fb14611941578063715018a6146118dc57806379ba50971461181957806382366f2f1461178857806383c57f52146117655780638550ef51146116f55780638da5cb5b146116cc5780639171b407146116595780639375da5a14611613578063993517421461136a578063a03d32f614611193578063a2f77bcc14611141578063a49062d414611125578063adaf73c4146110b1578063b60b9fcb14610e95578063ba87743614610e78578063bdaae1e714610c4c578063c37f5e2914610c10578063c9a7ae2114610bed578063cae45fd414610b9c578063cfb869bf14610a78578063d1ab1ca21461075e578063d3816bac146103ce578063e2da91901461035b578063e30c397814610332578063e9aac2e614610295578063ed14834f1461026c578063f2fde38b146101fe5763f86325ed146101d757600080fd5b346101f95760003660031901126101f9576020604051662386f26fc100008152f35b600080fd5b346101f95760203660031901126101f9576004356001600160a01b03818116918290036101f95761022d612122565b816001600160601b0360a01b6001541617600155600054167f38d16b8cac22d99fc7c124b9cd0de2d3fa1faef420bfe791d8c362d765e22700600080a3005b346101f95760003660031901126101f9576003546040516001600160a01b039091168152602090f35b61029e36611ddf565b906102c06102ab82611fac565b50600f01546001600160a01b03163314612277565b6102c86121d2565b600e5482116102fd576102f36002916102ee6102e685600854612226565b34101561217a565b611fac565b5001556001600255005b60405162461bcd60e51b815260206004820152600d60248201526c125b9d985b1a59081cdc195959609a1b6044820152606490fd5b346101f95760003660031901126101f9576001546040516001600160a01b039091168152602090f35b61036436611ddf565b906103716102ab82611fac565b6103796121d2565b600f548211610397576102f36003916102ee6102e685600954612226565b60405162461bcd60e51b815260206004820152600f60248201526e496e76616c6964207374616d696e6160881b6044820152606490fd5b60203660031901126101f95760043567ffffffffffffffff81116101f957366023820112156101f957806004013561040581612106565b916104136040519384611f72565b81835236602483830101116101f95781600092602460209301838601378301015261043c6121d2565b61044f662386f26fc1000034101561217a565b600654906040519161046083611f39565b808352816020840152600160408401526001606084015260016080840152600160a0840152600160c0840152600160e08401526001610100840152600061012084015260006101408401526000610160840152600061018084015260006101a0840152662386f26fc100006101c0840152336101e0840152600160401b81101561073257600181016006556104f481611fac565b9390936107485780518455602081015180519067ffffffffffffffff8211610732576105236001870154611fe6565b601f81116106f2575b50602090601f831160011461065e5791807f2a45148c1009f81a214b3c6a700dd8f4f66176976deb337908e0f1ca3ec300339792600f94600092610653575b50508160011b916000199060031b1c19161760018201555b60408301516002820155606083015160038201556080830151600482015560a0830151600582015560c0830151600682015560e0830151600782015561010083015160088201556101208301516009820155610140830151600a820155610160830151600b820155610180830151600c8201556101a0830151600d8201556101c0830151600e82015501906101e060018060a01b03910151166001600160601b0360a01b82541617905561064960405192839283526040602084015260408301906120c6565b0390a16001600255005b01519050888061056b565b906001870160005260206000209160005b601f19851681106106da5750927f2a45148c1009f81a214b3c6a700dd8f4f66176976deb337908e0f1ca3ec300339792600192600f9583601f198116106106c1575b505050811b016001820155610583565b015160001960f88460031b161c191690558880806106b1565b9192602060018192868501518155019401920161066f565b61072290600188016000526020600020601f850160051c81019160208610610728575b601f0160051c01906121bb565b8661052c565b9091508190610715565b634e487b7160e01b600052604160045260246000fd5b634e487b7160e01b600052600060045260246000fd5b346101f9576020806003193601126101f9576001600160a01b0390600435828116908190036101f957600680549061079582611f94565b926107a36040519485611f72565b828452601f196107b284611f94565b018560005b8281106109ec5750505060009160005b8481106108db5787878760405191808301818452825180915260408401918060408360051b8701019401926000965b8388106108035786860387f35b90919293948380600192603f198a8203018652885190815181526108348383015161020080868501528301906120c6565b9160408101516040830152606080820151908301526080808201519083015260a0808201519083015260c0808201519083015260e081015160e0830152610100808201519083015261012080820151908301526101408082015190830152610160808201519083015261018080820151908301526101a080820151908301526101c08082015190830152866101e080920151169101529701930197019690939291936107f6565b6108e481611fac565b508389600f809301541614610903575b506108fe906123f5565b6107c7565b81946109e5918a6109166108fe95611fac565b50916040519261092584611f39565b8054845261093560018201612020565b8d850152600281015460408501526003810154606085015260048101546080850152600581015460a08501528781015460c0850152600781015460e085015260088101546101008501526009810154610120850152600a810154610140850152600b810154610160850152600c810154610180850152600d8101546101a0850152600e8101546101c08501520154166101e08201526109d4828a612404565b526109df8189612404565b506123f5565b93906108f4565b6040516109f881611f39565b6000815260006060808584015281604084015282015260006080820152600060a0820152600060c0820152600060e08201526000610100820152600061012082015260006101408201526000610160820152600061018082015260006101a082015260006101c082015260006101e08201528282890101520186906107b7565b346101f95760203660031901126101f9576004356006548110156101f957610a9f90611fac565b508054610aae60018301612020565b9160028101549260038201546004830154600584015460068501546007860154600887015490600988015492600a89015494600b8a015496600c8b015498600d8c01549a600e8d01549c600160a01b6001900390600f0154169d6040518060805252610200806080516020015260805101610b28916120c6565b9d60805160400152608051606001526080516080015260805160a0015260805160c0015260805160e00152608051610100015260805161012001526080516101400152608051610160015260805161018001526080516101a001526080516101c001526080516101e0015260805180910390f35b346101f95760003660031901126101f957600854600954600a54600b54600c54600d54604080519687526020870195909552938501929092526060840152608083015260a082015260c090f35b0390f35b346101f95760003660031901126101f95760206040516702c68af0bb1400008152f35b346101f957610c1e36611d68565b94610c2d949194939293612122565b610c38604051611f00565b600855600955600a55600b55600c55600d55005b346101f95760803660031901126101f957610c65612122565b600754604051610c7481611f56565b60008152604051610c8481611f56565b6000815260405191610c9583611f1c565b8383526020830152604082015260006060820152604435608082015260043560a082015260243560c082015260643560e08201526000610100820152600160401b8210156107325760018201600755610ced82611d8e565b6107485781518155602082015180519067ffffffffffffffff821161073257600160401b821161073257602060018401918254848455808510610e5b575b500190600052602060002060005b838110610e475750505050604082015180519067ffffffffffffffff821161073257600160401b821161073257602060028401918254848455808510610e2a575b500190600052602060002060005b838110610e16577fbd3f84a55fdc44f970adc6ccbaa93e78d7da5f3fc37c4b7da578d47c9ad2e46a6060888861010060088a8584015160038201556080840151600482015560a0840151600582015560c0840151600682015560e0840151600782015501910151151560ff8019835416911617905560405190815260043560208201526024356040820152a1005b600190602084519401938184015501610d88565b610e419084600052858460002091820191016121bb565b87610d7a565b600190602084519401938184015501610d39565b610e729084600052858460002091820191016121bb565b87610d2b565b346101f95760003660031901126101f95760206040516127108152f35b610e9e36611ddf565b610ea66121d2565b610eb36007548310612239565b60065481101561107b57610ec96102ab82611fac565b600a6001610ed684611d8e565b5001541161104757610ef76004610eec84611d8e565b50015434101561217a565b60ff6008610f0484611d8e565b5001541661100f576005610f1783611d8e565b50015461012b198101908111610ff957421015610fa5576001610f3983611d8e565b500191825491600160401b83101561073257610f7e837f71a6cc8f49f9fa4f3902bdf04d1858a719bd3f1eb6ae19c348692e0bb3e971c39560016040960181556122cf565b81549060031b9083821b91600019901b191617905582519182526020820152a16001600255005b60405162461bcd60e51b815260206004820152602660248201527f596f752063616e2774206a6f696e207468652067616d652c206974277320746f6044820152656f206c61746560d01b6064820152608490fd5b634e487b7160e01b600052601160045260246000fd5b60405162461bcd60e51b815260206004820152601060248201526f11d85b59481a5cc8199a5b9a5cda195960821b6044820152606490fd5b60405162461bcd60e51b815260206004820152600c60248201526b11d85b59481a5cc8199d5b1b60a21b6044820152606490fd5b60405162461bcd60e51b815260206004820152600e60248201526d125b9d985b1a59081c195d081a5960921b6044820152606490fd5b6110ba36611ddf565b906110c76102ab82611fac565b6110cf6121d2565b60105482116110ed576102f36004916102ee6102e685600a54612226565b60405162461bcd60e51b815260206004820152601060248201526f092dcecc2d8d2c840e6e8e4cadccee8d60831b6044820152606490fd5b346101f95760003660031901126101f957602060405160648152f35b346101f95760203660031901126101f957610be961117f6111796004356111666122e7565b506111746007548210612239565b611d8e565b5061237d565b604051918291602083526020830190611e29565b346101f95760403660031901126101f95760043567ffffffffffffffff602480358281116101f957366023820112156101f95780600401356111d481611f94565b926111e26040519485611f72565b81845260209283850182819460051b830101913683116101f95783869101915b83831061135a5750505050611215612122565b6112226007548710612239565b60ff600861122f88611d8e565b5001541661131757600261124287611d8e565b5001935194851161130357600160401b8511611303575082548484558085106112e6575b5091600052806000209060005b8481106112d45785600861128682611d8e565b5001805460ff1916600117905560036112cf6112c96112c060046112a986611d8e565b50015460016112b787611d8e565b50015490612226565b600454906122c2565b92611d8e565b500155005b83518382015592810192600101611273565b6112fd9084600052858460002091820191016121bb565b85611266565b634e487b7160e01b60009081526041600452fd5b8260186064926040519262461bcd60e51b845260048401528201527f47616d6520697320616c72656164792066696e697368656400000000000000006044820152fd5b8235815291810191869101611202565b346101f9576020806003193601126101f95760089060043561138a612122565b6113976007548210612239565b6113a081611d8e565b5060ff60019485920154161515036115d7576113ee6113d060046113c384611d8e565b500154856112b785611d8e565b670de0b6b3a76400009182916113e860045482612226565b906122c2565b04906113f983611d8e565b5060038091015490600080808060018060a01b0397888654165af161141c612468565b5015611586576000875b61142c57005b61143586611d8e565b506002809101548210156115845761145882826114518a611d8e565b50016122cf565b905490841b1c90866000918415600014611508575050506706f05b59d3b20000808502908582041485151715610ff957600080809389600f61149d8b85970493611fac565b500154165af16114ab612468565b50156114c357906114bc88926123f5565b9091611426565b60405162461bcd60e51b815260048101889052601c60248201527f4661696c656420746f207472616e7366657220746865207072697a65000000006044820152606490fd5b848c0361154057505050670429d069189e0000808502908582041485151715610ff957600080809389600f61149d8b85970493611fac565b84939192931461155d575b600080938193600f61149d8495611fac565b9150506702c68af0bb140000808502908582041485151715610ff95785900490869061154b565b005b60405162461bcd60e51b815260048101879052602360248201527f4661696c656420746f207472616e736665722074686520706c6174666f726d2060448201526266656560e81b6064820152608490fd5b60405162461bcd60e51b815260048101839052601460248201527311d85b59481a5cc81b9bdd08199a5b9a5cda195960621b6044820152606490fd5b346101f95760203660031901126101f9576004356001600160a01b038116908190036101f957611641612122565b6001600160601b0360a01b6003541617600355600080f35b61166236611ddf565b9061166f6102ab82611fac565b6116776121d2565b6011548211611695576102f36005916102ee6102e685600b54612226565b60405162461bcd60e51b815260206004820152600f60248201526e496e76616c6964206167696c69747960881b6044820152606490fd5b346101f95760003660031901126101f9576000546040516001600160a01b039091168152602090f35b6116fe36611ddf565b9061170b6102ab82611fac565b6117136121d2565b6013548211611731576102f36007916102ee6102e685600d54612226565b60405162461bcd60e51b815260206004820152600c60248201526b496e76616c6964206c75636b60a01b6044820152606490fd5b346101f95760003660031901126101f95760206040516706f05b59d3b200008152f35b346101f95760003660031901126101f9576007546117a581612418565b906000805b8281106117bf5760405180610be98682611e9e565b600160ff60086117ce84611d8e565b500154161515146117e8575b6117e3906123f5565b6117aa565b906118116117e3916117fc61117985611d8e565b6118068288612404565b526109df8187612404565b9190506117da565b346101f95760003660031901126101f9576001546001600160a01b033381831603611885576001600160601b0360a01b8092166001556000549133908316176000553391167f8be0079c531659141344cd1fd0a4f28419497f9722a3daafe3b4186f6b6457e0600080a3005b60405162461bcd60e51b815260206004820152602960248201527f4f776e61626c6532537465703a2063616c6c6572206973206e6f7420746865206044820152683732bb9037bbb732b960b91b6064820152608490fd5b346101f95760003660031901126101f9576118f5612122565b600180546001600160a01b0319908116909155600080549182168155906001600160a01b03167f8be0079c531659141344cd1fd0a4f28419497f9722a3daafe3b4186f6b6457e08280a3005b346101f95760003660031901126101f957600e54600f54601054601154601254601354604080519687526020870195909552938501929092526060840152608083015260a082015260c090f35b346101f95760003660031901126101f9576007546119ab81612418565b906000805b8281106119c55760405180610be98682611e9e565b60ff60086119d283611d8e565b50015416156119ea575b6119e5906123f5565b6119b0565b906119fe6119e5916117fc61117985611d8e565b9190506119dc565b346101f95760003660031901126101f9576005546040516001600160a01b039091168152602090f35b346101f95760003660031901126101f9576003546001600160a01b039081163303611b255760055460405163430021db60e11b81523060048201523360248201526020929183908290604490829060009087165af1908115611af0578391611afc575b5050600554604051634aa7d2f760e11b815230600482015233602482015291839183916044918391600091165af18015611af057611acc57005b813d8311611ae9575b611adf8183611f72565b810103126101f957005b503d611ad5565b6040513d6000823e3d90fd5b813d8311611b1e575b611b0f8183611f72565b810103126101f9578183611a92565b503d611b05565b60405162461bcd60e51b815260206004820152602660248201527f43616c6c6572206973206e6f742074686520706c6174666f726d20666565206160448201526564647265737360d01b6064820152608490fd5b346101f95760003660031901126101f9576020600454604051908152f35b611ba036611ddf565b90611bad6102ab82611fac565b611bb56121d2565b6012548211611bd3576102f36006916102ee6102e685600c54612226565b60405162461bcd60e51b8152602060048201526014602482015273496e76616c696420696e74656c6c6967656e636560601b6044820152606490fd5b346101f95760203660031901126101f957611c28612122565b600480359055005b346101f95760203660031901126101f9576004356001600160a01b038116908190036101f957611c5e612122565b6001600160601b0360a01b6005541617600555600080f35b346101f95760203660031901126101f9576004356007548110156101f957611c9f60e091611d8e565b508054906003810154906004810154600582015460068301549160ff600860078601549501541694604051968752602087015260408601526060850152608084015260a0830152151560c0820152f35b346101f95760003660031901126101f9576020604051670429d069189e00008152f35b346101f957611d2036611d68565b94611d2f949194939293612122565b611d3a604051611f00565b600e55600f55601055601155601255601355005b346101f95760003660031901126101f95780600a60209252f35b60c09060031901126101f957600435906024359060443590606435906084359060a43590565b600754811015611dc9576009906007600052027fa66cc928b5edb82af9bd49922954155ab7b0942694bea4ce44661d9a8736c6880190600090565b634e487b7160e01b600052603260045260246000fd5b60409060031901126101f9576004359060243590565b90815180825260208080930193019160005b828110611e15575050505090565b835185529381019392810192600101611e07565b9081518152611e5c611e4a6020840151610120806020860152840190611df5565b60408401518382036040850152611df5565b91606081015160608301526080810151608083015260a081015160a083015260c081015160c083015260e081015160e083015261010080910151151591015290565b602080820190808352835180925260408301928160408460051b8301019501936000915b848310611ed25750505050505090565b9091929394958480611ef0600193603f198682030187528a51611e29565b9801930193019194939290611ec2565b60c0810190811067ffffffffffffffff82111761073257604052565b610120810190811067ffffffffffffffff82111761073257604052565b610200810190811067ffffffffffffffff82111761073257604052565b6020810190811067ffffffffffffffff82111761073257604052565b90601f8019910116810190811067ffffffffffffffff82111761073257604052565b67ffffffffffffffff81116107325760051b60200190565b600654811015611dc957600660005260041b7ff652222313e28459528d920b65115c16c04f3efc82aaedc97be59f3f377c0d3f0190600090565b90600182811c92168015612016575b602083101461200057565b634e487b7160e01b600052602260045260246000fd5b91607f1691611ff5565b906040519182600082549261203484611fe6565b9081845260019485811690816000146120a35750600114612060575b505061205e92500383611f72565b565b9093915060005260209081600020936000915b81831061208b57505061205e93508201013880612050565b85548884018501529485019487945091830191612073565b91505061205e94506020925060ff191682840152151560051b8201013880612050565b919082519283825260005b8481106120f2575050826000602080949584010152601f8019910116010190565b6020818301810151848301820152016120d1565b67ffffffffffffffff811161073257601f01601f191660200190565b6000546001600160a01b0316330361213657565b606460405162461bcd60e51b815260206004820152602060248201527f4f776e61626c653a2063616c6c6572206973206e6f7420746865206f776e65726044820152fd5b1561218157565b60405162461bcd60e51b8152602060048201526012602482015271496e73756666696369656e742066756e647360701b6044820152606490fd5b8181106121c6575050565b600081556001016121bb565b60028054146121e15760028055565b60405162461bcd60e51b815260206004820152601f60248201527f5265656e7472616e637947756172643a207265656e7472616e742063616c6c006044820152606490fd5b81810292918115918404141715610ff957565b1561224057565b60405162461bcd60e51b815260206004820152600f60248201526e125b9d985b1a590819d85b59481a59608a1b6044820152606490fd5b1561227e57565b606460405162461bcd60e51b815260206004820152602060248201527f596f7520617265206e6f7420746865206f776e6572206f6620746865207065746044820152fd5b91908203918211610ff957565b8054821015611dc95760005260206000200190600090565b604051906122f482611f1c565b8161010060009182815260606020820152606060408201528260608201528260808201528260a08201528260c08201528260e08201520152565b9060405191828154918282526020928383019160005283600020936000905b8282106123635750505061205e92500383611f72565b85548452600195860195889550938101939091019061234d565b9060405161238a81611f1c565b61010060ff60088395805485526123a36001820161232e565b60208601526123b46002820161232e565b60408601526003810154606086015260048101546080860152600581015460a0860152600681015460c0860152600781015460e08601520154161515910152565b6000198114610ff95760010190565b8051821015611dc95760209160051b010190565b9061242282611f94565b61242f6040519182611f72565b8281528092612440601f1991611f94565b019060005b82811061245157505050565b60209061245c6122e7565b82828501015201612445565b3d15612493573d9061247982612106565b916124876040519384611f72565b82523d6000602084013e565b60609056fea2646970667358221220cdca5b17b1e5cc1ebd9d8e4ae7fd185b369e59a1ce520f8e0527454074c8fe0964736f6c63430008130033","opcodes":"PUSH1 0x80 CALLVALUE PUSH3 0x206 JUMPI PUSH1 0x1F PUSH3 0x2704 CODESIZE DUP2 SWAP1 SUB SWAP2 DUP3 ADD PUSH1 0x1F NOT AND DUP4 ADD SWAP3 PUSH1 0x0 SWAP3 SWAP1 SWAP2 PUSH1 0x1 PUSH1 0x1 PUSH1 0x40 SHL SUB DUP6 GT DUP4 DUP7 LT OR PUSH3 0x1F2 JUMPI DUP2 PUSH1 0x20 SWAP3 DUP5 SWAP3 PUSH1 0x40 SWAP8 DUP9 MSTORE DUP4 CODECOPY DUP2 ADD SUB SLT PUSH3 0x1EE JUMPI MLOAD PUSH1 0x1 PUSH1 0x1 PUSH1 0xA0 SHL SUB DUP1 DUP3 AND SWAP2 DUP3 SWAP1 SUB PUSH3 0x1AA JUMPI PUSH1 0x1 DUP1 SLOAD PUSH1 0x1 PUSH1 0x1 PUSH1 0xA0 SHL SUB NOT SWAP1 DUP2 AND SWAP1 SWAP2 SSTORE DUP4 SLOAD CALLER DUP2 DUP4 AND DUP2 OR DUP7 SSTORE DUP7 MLOAD SWAP3 SWAP2 DUP5 AND PUSH32 0x8BE0079C531659141344CD1FD0A4F28419497F9722A3DAAFE3B4186F6B6457E0 DUP8 DUP1 LOG3 PUSH1 0x1 PUSH1 0x2 SSTORE PUSH8 0x16345785D8A0000 PUSH1 0x4 SSTORE DUP4 PUSH20 0x4300000000000000000000000000000000000002 SWAP2 DUP3 DUP2 PUSH1 0x5 SLOAD AND OR PUSH1 0x5 SSTORE PUSH1 0x3 SLOAD AND OR PUSH1 0x3 SSTORE DUP1 EXTCODESIZE ISZERO PUSH3 0x1EA JUMPI DUP2 PUSH1 0x4 DUP2 DUP8 DUP1 SWAP5 PUSH4 0x784C3B3D PUSH1 0xE1 SHL DUP4 MSTORE GAS CALL DUP1 ISZERO PUSH3 0x1C6 JUMPI PUSH3 0x1D4 JUMPI JUMPDEST POP DUP1 PUSH1 0x5 SLOAD AND DUP1 EXTCODESIZE ISZERO PUSH3 0x1D0 JUMPI DUP4 DUP1 SWAP2 PUSH1 0x4 DUP8 MLOAD DUP1 SWAP5 DUP2 SWAP4 PUSH4 0x4E606C47 PUSH1 0xE0 SHL DUP4 MSTORE GAS CALL DUP1 ISZERO PUSH3 0x1C6 JUMPI SWAP1 DUP5 SWAP2 PUSH3 0x1AE JUMPI JUMPDEST POP POP PUSH1 0x5 SLOAD AND SWAP1 DUP2 EXTCODESIZE ISZERO PUSH3 0x1AA JUMPI DUP3 SWAP2 PUSH1 0x24 DUP4 SWAP3 DUP7 MLOAD SWAP5 DUP6 SWAP4 DUP5 SWAP3 PUSH4 0x1D70C8D3 PUSH1 0xE3 SHL DUP5 MSTORE PUSH1 0x4 DUP5 ADD MSTORE GAS CALL DUP1 ISZERO PUSH3 0x1A0 JUMPI PUSH3 0x185 JUMPI JUMPDEST DUP3 MLOAD PUSH2 0x24CE SWAP1 DUP2 PUSH3 0x236 DUP3 CODECOPY RETURN JUMPDEST PUSH3 0x191 DUP3 SWAP2 PUSH3 0x20B JUMP JUMPDEST PUSH3 0x19D JUMPI DUP1 PUSH3 0x176 JUMP JUMPDEST DUP1 REVERT JUMPDEST DUP4 MLOAD RETURNDATASIZE DUP5 DUP3 RETURNDATACOPY RETURNDATASIZE SWAP1 REVERT JUMPDEST DUP3 DUP1 REVERT JUMPDEST PUSH3 0x1B9 SWAP1 PUSH3 0x20B JUMP JUMPDEST PUSH3 0x1AA JUMPI DUP3 CODESIZE PUSH3 0x13C JUMP JUMPDEST DUP6 MLOAD RETURNDATASIZE DUP7 DUP3 RETURNDATACOPY RETURNDATASIZE SWAP1 REVERT JUMPDEST DUP4 DUP1 REVERT JUMPDEST PUSH3 0x1E2 SWAP1 SWAP4 SWAP2 SWAP4 PUSH3 0x20B JUMP JUMPDEST SWAP2 CODESIZE PUSH3 0x107 JUMP JUMPDEST DUP5 DUP1 REVERT JUMPDEST POP DUP1 REVERT JUMPDEST PUSH4 0x4E487B71 PUSH1 0xE0 SHL DUP5 MSTORE PUSH1 0x41 PUSH1 0x4 MSTORE PUSH1 0x24 DUP5 REVERT JUMPDEST PUSH1 0x0 DUP1 REVERT JUMPDEST PUSH1 0x1 PUSH1 0x1 PUSH1 0x40 SHL SUB DUP2 GT PUSH3 0x21F JUMPI PUSH1 0x40 MSTORE JUMP JUMPDEST PUSH4 0x4E487B71 PUSH1 0xE0 SHL PUSH1 0x0 MSTORE PUSH1 0x41 PUSH1 0x4 MSTORE PUSH1 0x24 PUSH1 0x0 REVERT INVALID PUSH1 0xA0 DUP1 PUSH1 0x40 MSTORE PUSH1 0x4 CALLDATASIZE LT ISZERO PUSH2 0x13 JUMPI PUSH1 0x0 DUP1 REVERT JUMPDEST PUSH1 0x0 CALLDATALOAD PUSH1 0xE0 SHR SWAP1 DUP2 PUSH4 0x2056ECB EQ PUSH2 0x1D4E JUMPI POP DUP1 PUSH4 0x41E40AE EQ PUSH2 0x1D12 JUMPI DUP1 PUSH4 0x89D5C17 EQ PUSH2 0x1CEF JUMPI DUP1 PUSH4 0x117A5B90 EQ PUSH2 0x1C76 JUMPI DUP1 PUSH4 0x123E4999 EQ PUSH2 0x1C30 JUMPI DUP1 PUSH4 0x12E8E2C3 EQ PUSH2 0x1C0F JUMPI DUP1 PUSH4 0x1F5974C0 EQ PUSH2 0x1B97 JUMPI DUP1 PUSH4 0x26232A2E EQ PUSH2 0x1B79 JUMPI DUP1 PUSH4 0x38EC8B42 EQ PUSH2 0x1A2F JUMPI DUP1 PUSH4 0x49D3D5E1 EQ PUSH2 0x1A06 JUMPI DUP1 PUSH4 0x4ECF77D3 EQ PUSH2 0x198E JUMPI DUP1 PUSH4 0x688049FB EQ PUSH2 0x1941 JUMPI DUP1 PUSH4 0x715018A6 EQ PUSH2 0x18DC JUMPI DUP1 PUSH4 0x79BA5097 EQ PUSH2 0x1819 JUMPI DUP1 PUSH4 0x82366F2F EQ PUSH2 0x1788 JUMPI DUP1 PUSH4 0x83C57F52 EQ PUSH2 0x1765 JUMPI DUP1 PUSH4 0x8550EF51 EQ PUSH2 0x16F5 JUMPI DUP1 PUSH4 0x8DA5CB5B EQ PUSH2 0x16CC JUMPI DUP1 PUSH4 0x9171B407 EQ PUSH2 0x1659 JUMPI DUP1 PUSH4 0x9375DA5A EQ PUSH2 0x1613 JUMPI DUP1 PUSH4 0x99351742 EQ PUSH2 0x136A JUMPI DUP1 PUSH4 0xA03D32F6 EQ PUSH2 0x1193 JUMPI DUP1 PUSH4 0xA2F77BCC EQ PUSH2 0x1141 JUMPI DUP1 PUSH4 0xA49062D4 EQ PUSH2 0x1125 JUMPI DUP1 PUSH4 0xADAF73C4 EQ PUSH2 0x10B1 JUMPI DUP1 PUSH4 0xB60B9FCB EQ PUSH2 0xE95 JUMPI DUP1 PUSH4 0xBA877436 EQ PUSH2 0xE78 JUMPI DUP1 PUSH4 0xBDAAE1E7 EQ PUSH2 0xC4C JUMPI DUP1 PUSH4 0xC37F5E29 EQ PUSH2 0xC10 JUMPI DUP1 PUSH4 0xC9A7AE21 EQ PUSH2 0xBED JUMPI DUP1 PUSH4 0xCAE45FD4 EQ PUSH2 0xB9C JUMPI DUP1 PUSH4 0xCFB869BF EQ PUSH2 0xA78 JUMPI DUP1 PUSH4 0xD1AB1CA2 EQ PUSH2 0x75E JUMPI DUP1 PUSH4 0xD3816BAC EQ PUSH2 0x3CE JUMPI DUP1 PUSH4 0xE2DA9190 EQ PUSH2 0x35B JUMPI DUP1 PUSH4 0xE30C3978 EQ PUSH2 0x332 JUMPI DUP1 PUSH4 0xE9AAC2E6 EQ PUSH2 0x295 JUMPI DUP1 PUSH4 0xED14834F EQ PUSH2 0x26C JUMPI DUP1 PUSH4 0xF2FDE38B EQ PUSH2 0x1FE JUMPI PUSH4 0xF86325ED EQ PUSH2 0x1D7 JUMPI PUSH1 0x0 DUP1 REVERT JUMPDEST CALLVALUE PUSH2 0x1F9 JUMPI PUSH1 0x0 CALLDATASIZE PUSH1 0x3 NOT ADD SLT PUSH2 0x1F9 JUMPI PUSH1 0x20 PUSH1 0x40 MLOAD PUSH7 0x2386F26FC10000 DUP2 MSTORE RETURN JUMPDEST PUSH1 0x0 DUP1 REVERT JUMPDEST CALLVALUE PUSH2 0x1F9 JUMPI PUSH1 0x20 CALLDATASIZE PUSH1 0x3 NOT ADD SLT PUSH2 0x1F9 JUMPI PUSH1 0x4 CALLDATALOAD PUSH1 0x1 PUSH1 0x1 PUSH1 0xA0 SHL SUB DUP2 DUP2 AND SWAP2 DUP3 SWAP1 SUB PUSH2 0x1F9 JUMPI PUSH2 0x22D PUSH2 0x2122 JUMP JUMPDEST DUP2 PUSH1 0x1 PUSH1 0x1 PUSH1 0x60 SHL SUB PUSH1 0xA0 SHL PUSH1 0x1 SLOAD AND OR PUSH1 0x1 SSTORE PUSH1 0x0 SLOAD AND PUSH32 0x38D16B8CAC22D99FC7C124B9CD0DE2D3FA1FAEF420BFE791D8C362D765E22700 PUSH1 0x0 DUP1 LOG3 STOP JUMPDEST CALLVALUE PUSH2 0x1F9 JUMPI PUSH1 0x0 CALLDATASIZE PUSH1 0x3 NOT ADD SLT PUSH2 0x1F9 JUMPI PUSH1 0x3 SLOAD PUSH1 0x40 MLOAD PUSH1 0x1 PUSH1 0x1 PUSH1 0xA0 SHL SUB SWAP1 SWAP2 AND DUP2 MSTORE PUSH1 0x20 SWAP1 RETURN JUMPDEST PUSH2 0x29E CALLDATASIZE PUSH2 0x1DDF JUMP JUMPDEST SWAP1 PUSH2 0x2C0 PUSH2 0x2AB DUP3 PUSH2 0x1FAC JUMP JUMPDEST POP PUSH1 0xF ADD SLOAD PUSH1 0x1 PUSH1 0x1 PUSH1 0xA0 SHL SUB AND CALLER EQ PUSH2 0x2277 JUMP JUMPDEST PUSH2 0x2C8 PUSH2 0x21D2 JUMP JUMPDEST PUSH1 0xE SLOAD DUP3 GT PUSH2 0x2FD JUMPI PUSH2 0x2F3 PUSH1 0x2 SWAP2 PUSH2 0x2EE PUSH2 0x2E6 DUP6 PUSH1 0x8 SLOAD PUSH2 0x2226 JUMP JUMPDEST CALLVALUE LT ISZERO PUSH2 0x217A JUMP JUMPDEST PUSH2 0x1FAC JUMP JUMPDEST POP ADD SSTORE PUSH1 0x1 PUSH1 0x2 SSTORE STOP JUMPDEST PUSH1 0x40 MLOAD PUSH3 0x461BCD PUSH1 0xE5 SHL DUP2 MSTORE PUSH1 0x20 PUSH1 0x4 DUP3 ADD MSTORE PUSH1 0xD PUSH1 0x24 DUP3 ADD MSTORE PUSH13 0x125B9D985B1A59081CDC195959 PUSH1 0x9A SHL PUSH1 0x44 DUP3 ADD MSTORE PUSH1 0x64 SWAP1 REVERT JUMPDEST CALLVALUE PUSH2 0x1F9 JUMPI PUSH1 0x0 CALLDATASIZE PUSH1 0x3 NOT ADD SLT PUSH2 0x1F9 JUMPI PUSH1 0x1 SLOAD PUSH1 0x40 MLOAD PUSH1 0x1 PUSH1 0x1 PUSH1 0xA0 SHL SUB SWAP1 SWAP2 AND DUP2 MSTORE PUSH1 0x20 SWAP1 RETURN JUMPDEST PUSH2 0x364 CALLDATASIZE PUSH2 0x1DDF JUMP JUMPDEST SWAP1 PUSH2 0x371 PUSH2 0x2AB DUP3 PUSH2 0x1FAC JUMP JUMPDEST PUSH2 0x379 PUSH2 0x21D2 JUMP JUMPDEST PUSH1 0xF SLOAD DUP3 GT PUSH2 0x397 JUMPI PUSH2 0x2F3 PUSH1 0x3 SWAP2 PUSH2 0x2EE PUSH2 0x2E6 DUP6 PUSH1 0x9 SLOAD PUSH2 0x2226 JUMP JUMPDEST PUSH1 0x40 MLOAD PUSH3 0x461BCD PUSH1 0xE5 SHL DUP2 MSTORE PUSH1 0x20 PUSH1 0x4 DUP3 ADD MSTORE PUSH1 0xF PUSH1 0x24 DUP3 ADD MSTORE PUSH15 0x496E76616C6964207374616D696E61 PUSH1 0x88 SHL PUSH1 0x44 DUP3 ADD MSTORE PUSH1 0x64 SWAP1 REVERT JUMPDEST PUSH1 0x20 CALLDATASIZE PUSH1 0x3 NOT ADD SLT PUSH2 0x1F9 JUMPI PUSH1 0x4 CALLDATALOAD PUSH8 0xFFFFFFFFFFFFFFFF DUP2 GT PUSH2 0x1F9 JUMPI CALLDATASIZE PUSH1 0x23 DUP3 ADD SLT ISZERO PUSH2 0x1F9 JUMPI DUP1 PUSH1 0x4 ADD CALLDATALOAD PUSH2 0x405 DUP2 PUSH2 0x2106 JUMP JUMPDEST SWAP2 PUSH2 0x413 PUSH1 0x40 MLOAD SWAP4 DUP5 PUSH2 0x1F72 JUMP JUMPDEST DUP2 DUP4 MSTORE CALLDATASIZE PUSH1 0x24 DUP4 DUP4 ADD ADD GT PUSH2 0x1F9 JUMPI DUP2 PUSH1 0x0 SWAP3 PUSH1 0x24 PUSH1 0x20 SWAP4 ADD DUP4 DUP7 ADD CALLDATACOPY DUP4 ADD ADD MSTORE PUSH2 0x43C PUSH2 0x21D2 JUMP JUMPDEST PUSH2 0x44F PUSH7 0x2386F26FC10000 CALLVALUE LT ISZERO PUSH2 0x217A JUMP JUMPDEST PUSH1 0x6 SLOAD SWAP1 PUSH1 0x40 MLOAD SWAP2 PUSH2 0x460 DUP4 PUSH2 0x1F39 JUMP JUMPDEST DUP1 DUP4 MSTORE DUP2 PUSH1 0x20 DUP5 ADD MSTORE PUSH1 0x1 PUSH1 0x40 DUP5 ADD MSTORE PUSH1 0x1 PUSH1 0x60 DUP5 ADD MSTORE PUSH1 0x1 PUSH1 0x80 DUP5 ADD MSTORE PUSH1 0x1 PUSH1 0xA0 DUP5 ADD MSTORE PUSH1 0x1 PUSH1 0xC0 DUP5 ADD MSTORE PUSH1 0x1 PUSH1 0xE0 DUP5 ADD MSTORE PUSH1 0x1 PUSH2 0x100 DUP5 ADD MSTORE PUSH1 0x0 PUSH2 0x120 DUP5 ADD MSTORE PUSH1 0x0 PUSH2 0x140 DUP5 ADD MSTORE PUSH1 0x0 PUSH2 0x160 DUP5 ADD MSTORE PUSH1 0x0 PUSH2 0x180 DUP5 ADD MSTORE PUSH1 0x0 PUSH2 0x1A0 DUP5 ADD MSTORE PUSH7 0x2386F26FC10000 PUSH2 0x1C0 DUP5 ADD MSTORE CALLER PUSH2 0x1E0 DUP5 ADD MSTORE PUSH1 0x1 PUSH1 0x40 SHL DUP2 LT ISZERO PUSH2 0x732 JUMPI PUSH1 0x1 DUP2 ADD PUSH1 0x6 SSTORE PUSH2 0x4F4 DUP2 PUSH2 0x1FAC JUMP JUMPDEST SWAP4 SWAP1 SWAP4 PUSH2 0x748 JUMPI DUP1 MLOAD DUP5 SSTORE PUSH1 0x20 DUP2 ADD MLOAD DUP1 MLOAD SWAP1 PUSH8 0xFFFFFFFFFFFFFFFF DUP3 GT PUSH2 0x732 JUMPI PUSH2 0x523 PUSH1 0x1 DUP8 ADD SLOAD PUSH2 0x1FE6 JUMP JUMPDEST PUSH1 0x1F DUP2 GT PUSH2 0x6F2 JUMPI JUMPDEST POP PUSH1 0x20 SWAP1 PUSH1 0x1F DUP4 GT PUSH1 0x1 EQ PUSH2 0x65E JUMPI SWAP2 DUP1 PUSH32 0x2A45148C1009F81A214B3C6A700DD8F4F66176976DEB337908E0F1CA3EC30033 SWAP8 SWAP3 PUSH1 0xF SWAP5 PUSH1 0x0 SWAP3 PUSH2 0x653 JUMPI JUMPDEST POP POP DUP2 PUSH1 0x1 SHL SWAP2 PUSH1 0x0 NOT SWAP1 PUSH1 0x3 SHL SHR NOT AND OR PUSH1 0x1 DUP3 ADD SSTORE JUMPDEST PUSH1 0x40 DUP4 ADD MLOAD PUSH1 0x2 DUP3 ADD SSTORE PUSH1 0x60 DUP4 ADD MLOAD PUSH1 0x3 DUP3 ADD SSTORE PUSH1 0x80 DUP4 ADD MLOAD PUSH1 0x4 DUP3 ADD SSTORE PUSH1 0xA0 DUP4 ADD MLOAD PUSH1 0x5 DUP3 ADD SSTORE PUSH1 0xC0 DUP4 ADD MLOAD PUSH1 0x6 DUP3 ADD SSTORE PUSH1 0xE0 DUP4 ADD MLOAD PUSH1 0x7 DUP3 ADD SSTORE PUSH2 0x100 DUP4 ADD MLOAD PUSH1 0x8 DUP3 ADD SSTORE PUSH2 0x120 DUP4 ADD MLOAD PUSH1 0x9 DUP3 ADD SSTORE PUSH2 0x140 DUP4 ADD MLOAD PUSH1 0xA DUP3 ADD SSTORE PUSH2 0x160 DUP4 ADD MLOAD PUSH1 0xB DUP3 ADD SSTORE PUSH2 0x180 DUP4 ADD MLOAD PUSH1 0xC DUP3 ADD SSTORE PUSH2 0x1A0 DUP4 ADD MLOAD PUSH1 0xD DUP3 ADD SSTORE PUSH2 0x1C0 DUP4 ADD MLOAD PUSH1 0xE DUP3 ADD SSTORE ADD SWAP1 PUSH2 0x1E0 PUSH1 0x1 DUP1 PUSH1 0xA0 SHL SUB SWAP2 ADD MLOAD AND PUSH1 0x1 PUSH1 0x1 PUSH1 0x60 SHL SUB PUSH1 0xA0 SHL DUP3 SLOAD AND OR SWAP1 SSTORE PUSH2 0x649 PUSH1 0x40 MLOAD SWAP3 DUP4 SWAP3 DUP4 MSTORE PUSH1 0x40 PUSH1 0x20 DUP5 ADD MSTORE PUSH1 0x40 DUP4 ADD SWAP1 PUSH2 0x20C6 JUMP JUMPDEST SUB SWAP1 LOG1 PUSH1 0x1 PUSH1 0x2 SSTORE STOP JUMPDEST ADD MLOAD SWAP1 POP DUP9 DUP1 PUSH2 0x56B JUMP JUMPDEST SWAP1 PUSH1 0x1 DUP8 ADD PUSH1 0x0 MSTORE PUSH1 0x20 PUSH1 0x0 KECCAK256 SWAP2 PUSH1 0x0 JUMPDEST PUSH1 0x1F NOT DUP6 AND DUP2 LT PUSH2 0x6DA JUMPI POP SWAP3 PUSH32 0x2A45148C1009F81A214B3C6A700DD8F4F66176976DEB337908E0F1CA3EC30033 SWAP8 SWAP3 PUSH1 0x1 SWAP3 PUSH1 0xF SWAP6 DUP4 PUSH1 0x1F NOT DUP2 AND LT PUSH2 0x6C1 JUMPI JUMPDEST POP POP POP DUP2 SHL ADD PUSH1 0x1 DUP3 ADD SSTORE PUSH2 0x583 JUMP JUMPDEST ADD MLOAD PUSH1 0x0 NOT PUSH1 0xF8 DUP5 PUSH1 0x3 SHL AND SHR NOT AND SWAP1 SSTORE DUP9 DUP1 DUP1 PUSH2 0x6B1 JUMP JUMPDEST SWAP2 SWAP3 PUSH1 0x20 PUSH1 0x1 DUP2 SWAP3 DUP7 DUP6 ADD MLOAD DUP2 SSTORE ADD SWAP5 ADD SWAP3 ADD PUSH2 0x66F JUMP JUMPDEST PUSH2 0x722 SWAP1 PUSH1 0x1 DUP9 ADD PUSH1 0x0 MSTORE PUSH1 0x20 PUSH1 0x0 KECCAK256 PUSH1 0x1F DUP6 ADD PUSH1 0x5 SHR DUP2 ADD SWAP2 PUSH1 0x20 DUP7 LT PUSH2 0x728 JUMPI JUMPDEST PUSH1 0x1F ADD PUSH1 0x5 SHR ADD SWAP1 PUSH2 0x21BB JUMP JUMPDEST DUP7 PUSH2 0x52C JUMP JUMPDEST SWAP1 SWAP2 POP DUP2 SWAP1 PUSH2 0x715 JUMP JUMPDEST PUSH4 0x4E487B71 PUSH1 0xE0 SHL PUSH1 0x0 MSTORE PUSH1 0x41 PUSH1 0x4 MSTORE PUSH1 0x24 PUSH1 0x0 REVERT JUMPDEST PUSH4 0x4E487B71 PUSH1 0xE0 SHL PUSH1 0x0 MSTORE PUSH1 0x0 PUSH1 0x4 MSTORE PUSH1 0x24 PUSH1 0x0 REVERT JUMPDEST CALLVALUE PUSH2 0x1F9 JUMPI PUSH1 0x20 DUP1 PUSH1 0x3 NOT CALLDATASIZE ADD SLT PUSH2 0x1F9 JUMPI PUSH1 0x1 PUSH1 0x1 PUSH1 0xA0 SHL SUB SWAP1 PUSH1 0x4 CALLDATALOAD DUP3 DUP2 AND SWAP1 DUP2 SWAP1 SUB PUSH2 0x1F9 JUMPI PUSH1 0x6 DUP1 SLOAD SWAP1 PUSH2 0x795 DUP3 PUSH2 0x1F94 JUMP JUMPDEST SWAP3 PUSH2 0x7A3 PUSH1 0x40 MLOAD SWAP5 DUP6 PUSH2 0x1F72 JUMP JUMPDEST DUP3 DUP5 MSTORE PUSH1 0x1F NOT PUSH2 0x7B2 DUP5 PUSH2 0x1F94 JUMP JUMPDEST ADD DUP6 PUSH1 0x0 JUMPDEST DUP3 DUP2 LT PUSH2 0x9EC JUMPI POP POP POP PUSH1 0x0 SWAP2 PUSH1 0x0 JUMPDEST DUP5 DUP2 LT PUSH2 0x8DB JUMPI DUP8 DUP8 DUP8 PUSH1 0x40 MLOAD SWAP2 DUP1 DUP4 ADD DUP2 DUP5 MSTORE DUP3 MLOAD DUP1 SWAP2 MSTORE PUSH1 0x40 DUP5 ADD SWAP2 DUP1 PUSH1 0x40 DUP4 PUSH1 0x5 SHL DUP8 ADD ADD SWAP5 ADD SWAP3 PUSH1 0x0 SWAP7 JUMPDEST DUP4 DUP9 LT PUSH2 0x803 JUMPI DUP7 DUP7 SUB DUP8 RETURN JUMPDEST SWAP1 SWAP2 SWAP3 SWAP4 SWAP5 DUP4 DUP1 PUSH1 0x1 SWAP3 PUSH1 0x3F NOT DUP11 DUP3 SUB ADD DUP7 MSTORE DUP9 MLOAD SWAP1 DUP2 MLOAD DUP2 MSTORE PUSH2 0x834 DUP4 DUP4 ADD MLOAD PUSH2 0x200 DUP1 DUP7 DUP6 ADD MSTORE DUP4 ADD SWAP1 PUSH2 0x20C6 JUMP JUMPDEST SWAP2 PUSH1 0x40 DUP2 ADD MLOAD PUSH1 0x40 DUP4 ADD MSTORE PUSH1 0x60 DUP1 DUP3 ADD MLOAD SWAP1 DUP4 ADD MSTORE PUSH1 0x80 DUP1 DUP3 ADD MLOAD SWAP1 DUP4 ADD MSTORE PUSH1 0xA0 DUP1 DUP3 ADD MLOAD SWAP1 DUP4 ADD MSTORE PUSH1 0xC0 DUP1 DUP3 ADD MLOAD SWAP1 DUP4 ADD MSTORE PUSH1 0xE0 DUP2 ADD MLOAD PUSH1 0xE0 DUP4 ADD MSTORE PUSH2 0x100 DUP1 DUP3 ADD MLOAD SWAP1 DUP4 ADD MSTORE PUSH2 0x120 DUP1 DUP3 ADD MLOAD SWAP1 DUP4 ADD MSTORE PUSH2 0x140 DUP1 DUP3 ADD MLOAD SWAP1 DUP4 ADD MSTORE PUSH2 0x160 DUP1 DUP3 ADD MLOAD SWAP1 DUP4 ADD MSTORE PUSH2 0x180 DUP1 DUP3 ADD MLOAD SWAP1 DUP4 ADD MSTORE PUSH2 0x1A0 DUP1 DUP3 ADD MLOAD SWAP1 DUP4 ADD MSTORE PUSH2 0x1C0 DUP1 DUP3 ADD MLOAD SWAP1 DUP4 ADD MSTORE DUP7 PUSH2 0x1E0 DUP1 SWAP3 ADD MLOAD AND SWAP2 ADD MSTORE SWAP8 ADD SWAP4 ADD SWAP8 ADD SWAP7 SWAP1 SWAP4 SWAP3 SWAP2 SWAP4 PUSH2 0x7F6 JUMP JUMPDEST PUSH2 0x8E4 DUP2 PUSH2 0x1FAC JUMP JUMPDEST POP DUP4 DUP10 PUSH1 0xF DUP1 SWAP4 ADD SLOAD AND EQ PUSH2 0x903 JUMPI JUMPDEST POP PUSH2 0x8FE SWAP1 PUSH2 0x23F5 JUMP JUMPDEST PUSH2 0x7C7 JUMP JUMPDEST DUP2 SWAP5 PUSH2 0x9E5 SWAP2 DUP11 PUSH2 0x916 PUSH2 0x8FE SWAP6 PUSH2 0x1FAC JUMP JUMPDEST POP SWAP2 PUSH1 0x40 MLOAD SWAP3 PUSH2 0x925 DUP5 PUSH2 0x1F39 JUMP JUMPDEST DUP1 SLOAD DUP5 MSTORE PUSH2 0x935 PUSH1 0x1 DUP3 ADD PUSH2 0x2020 JUMP JUMPDEST DUP14 DUP6 ADD MSTORE PUSH1 0x2 DUP2 ADD SLOAD PUSH1 0x40 DUP6 ADD MSTORE PUSH1 0x3 DUP2 ADD SLOAD PUSH1 0x60 DUP6 ADD MSTORE PUSH1 0x4 DUP2 ADD SLOAD PUSH1 0x80 DUP6 ADD MSTORE PUSH1 0x5 DUP2 ADD SLOAD PUSH1 0xA0 DUP6 ADD MSTORE DUP8 DUP2 ADD SLOAD PUSH1 0xC0 DUP6 ADD MSTORE PUSH1 0x7 DUP2 ADD SLOAD PUSH1 0xE0 DUP6 ADD MSTORE PUSH1 0x8 DUP2 ADD SLOAD PUSH2 0x100 DUP6 ADD MSTORE PUSH1 0x9 DUP2 ADD SLOAD PUSH2 0x120 DUP6 ADD MSTORE PUSH1 0xA DUP2 ADD SLOAD PUSH2 0x140 DUP6 ADD MSTORE PUSH1 0xB DUP2 ADD SLOAD PUSH2 0x160 DUP6 ADD MSTORE PUSH1 0xC DUP2 ADD SLOAD PUSH2 0x180 DUP6 ADD MSTORE PUSH1 0xD DUP2 ADD SLOAD PUSH2 0x1A0 DUP6 ADD MSTORE PUSH1 0xE DUP2 ADD SLOAD PUSH2 0x1C0 DUP6 ADD MSTORE ADD SLOAD AND PUSH2 0x1E0 DUP3 ADD MSTORE PUSH2 0x9D4 DUP3 DUP11 PUSH2 0x2404 JUMP JUMPDEST MSTORE PUSH2 0x9DF DUP2 DUP10 PUSH2 0x2404 JUMP JUMPDEST POP PUSH2 0x23F5 JUMP JUMPDEST SWAP4 SWAP1 PUSH2 0x8F4 JUMP JUMPDEST PUSH1 0x40 MLOAD PUSH2 0x9F8 DUP2 PUSH2 0x1F39 JUMP JUMPDEST PUSH1 0x0 DUP2 MSTORE PUSH1 0x0 PUSH1 0x60 DUP1 DUP6 DUP5 ADD MSTORE DUP2 PUSH1 0x40 DUP5 ADD MSTORE DUP3 ADD MSTORE PUSH1 0x0 PUSH1 0x80 DUP3 ADD MSTORE PUSH1 0x0 PUSH1 0xA0 DUP3 ADD MSTORE PUSH1 0x0 PUSH1 0xC0 DUP3 ADD MSTORE PUSH1 0x0 PUSH1 0xE0 DUP3 ADD MSTORE PUSH1 0x0 PUSH2 0x100 DUP3 ADD MSTORE PUSH1 0x0 PUSH2 0x120 DUP3 ADD MSTORE PUSH1 0x0 PUSH2 0x140 DUP3 ADD MSTORE PUSH1 0x0 PUSH2 0x160 DUP3 ADD MSTORE PUSH1 0x0 PUSH2 0x180 DUP3 ADD MSTORE PUSH1 0x0 PUSH2 0x1A0 DUP3 ADD MSTORE PUSH1 0x0 PUSH2 0x1C0 DUP3 ADD MSTORE PUSH1 0x0 PUSH2 0x1E0 DUP3 ADD MSTORE DUP3 DUP3 DUP10 ADD ADD MSTORE ADD DUP7 SWAP1 PUSH2 0x7B7 JUMP JUMPDEST CALLVALUE PUSH2 0x1F9 JUMPI PUSH1 0x20 CALLDATASIZE PUSH1 0x3 NOT ADD SLT PUSH2 0x1F9 JUMPI PUSH1 0x4 CALLDATALOAD PUSH1 0x6 SLOAD DUP2 LT ISZERO PUSH2 0x1F9 JUMPI PUSH2 0xA9F SWAP1 PUSH2 0x1FAC JUMP JUMPDEST POP DUP1 SLOAD PUSH2 0xAAE PUSH1 0x1 DUP4 ADD PUSH2 0x2020 JUMP JUMPDEST SWAP2 PUSH1 0x2 DUP2 ADD SLOAD SWAP3 PUSH1 0x3 DUP3 ADD SLOAD PUSH1 0x4 DUP4 ADD SLOAD PUSH1 0x5 DUP5 ADD SLOAD PUSH1 0x6 DUP6 ADD SLOAD PUSH1 0x7 DUP7 ADD SLOAD PUSH1 0x8 DUP8 ADD SLOAD SWAP1 PUSH1 0x9 DUP9 ADD SLOAD SWAP3 PUSH1 0xA DUP10 ADD SLOAD SWAP5 PUSH1 0xB DUP11 ADD SLOAD SWAP7 PUSH1 0xC DUP12 ADD SLOAD SWAP9 PUSH1 0xD DUP13 ADD SLOAD SWAP11 PUSH1 0xE DUP14 ADD SLOAD SWAP13 PUSH1 0x1 PUSH1 0xA0 SHL PUSH1 0x1 SWAP1 SUB SWAP1 PUSH1 0xF ADD SLOAD AND SWAP14 PUSH1 0x40 MLOAD DUP1 PUSH1 0x80 MSTORE MSTORE PUSH2 0x200 DUP1 PUSH1 0x80 MLOAD PUSH1 0x20 ADD MSTORE PUSH1 0x80 MLOAD ADD PUSH2 0xB28 SWAP2 PUSH2 0x20C6 JUMP JUMPDEST SWAP14 PUSH1 0x80 MLOAD PUSH1 0x40 ADD MSTORE PUSH1 0x80 MLOAD PUSH1 0x60 ADD MSTORE PUSH1 0x80 MLOAD PUSH1 0x80 ADD MSTORE PUSH1 0x80 MLOAD PUSH1 0xA0 ADD MSTORE PUSH1 0x80 MLOAD PUSH1 0xC0 ADD MSTORE PUSH1 0x80 MLOAD PUSH1 0xE0 ADD MSTORE PUSH1 0x80 MLOAD PUSH2 0x100 ADD MSTORE PUSH1 0x80 MLOAD PUSH2 0x120 ADD MSTORE PUSH1 0x80 MLOAD PUSH2 0x140 ADD MSTORE PUSH1 0x80 MLOAD PUSH2 0x160 ADD MSTORE PUSH1 0x80 MLOAD PUSH2 0x180 ADD MSTORE PUSH1 0x80 MLOAD PUSH2 0x1A0 ADD MSTORE PUSH1 0x80 MLOAD PUSH2 0x1C0 ADD MSTORE PUSH1 0x80 MLOAD PUSH2 0x1E0 ADD MSTORE PUSH1 0x80 MLOAD DUP1 SWAP2 SUB SWAP1 RETURN JUMPDEST CALLVALUE PUSH2 0x1F9 JUMPI PUSH1 0x0 CALLDATASIZE PUSH1 0x3 NOT ADD SLT PUSH2 0x1F9 JUMPI PUSH1 0x8 SLOAD PUSH1 0x9 SLOAD PUSH1 0xA SLOAD PUSH1 0xB SLOAD PUSH1 0xC SLOAD PUSH1 0xD SLOAD PUSH1 0x40 DUP1 MLOAD SWAP7 DUP8 MSTORE PUSH1 0x20 DUP8 ADD SWAP6 SWAP1 SWAP6 MSTORE SWAP4 DUP6 ADD SWAP3 SWAP1 SWAP3 MSTORE PUSH1 0x60 DUP5 ADD MSTORE PUSH1 0x80 DUP4 ADD MSTORE PUSH1 0xA0 DUP3 ADD MSTORE PUSH1 0xC0 SWAP1 RETURN JUMPDEST SUB SWAP1 RETURN JUMPDEST CALLVALUE PUSH2 0x1F9 JUMPI PUSH1 0x0 CALLDATASIZE PUSH1 0x3 NOT ADD SLT PUSH2 0x1F9 JUMPI PUSH1 0x20 PUSH1 0x40 MLOAD PUSH8 0x2C68AF0BB140000 DUP2 MSTORE RETURN JUMPDEST CALLVALUE PUSH2 0x1F9 JUMPI PUSH2 0xC1E CALLDATASIZE PUSH2 0x1D68 JUMP JUMPDEST SWAP5 PUSH2 0xC2D SWAP5 SWAP2 SWAP5 SWAP4 SWAP3 SWAP4 PUSH2 0x2122 JUMP JUMPDEST PUSH2 0xC38 PUSH1 0x40 MLOAD PUSH2 0x1F00 JUMP JUMPDEST PUSH1 0x8 SSTORE PUSH1 0x9 SSTORE PUSH1 0xA SSTORE PUSH1 0xB SSTORE PUSH1 0xC SSTORE PUSH1 0xD SSTORE STOP JUMPDEST CALLVALUE PUSH2 0x1F9 JUMPI PUSH1 0x80 CALLDATASIZE PUSH1 0x3 NOT ADD SLT PUSH2 0x1F9 JUMPI PUSH2 0xC65 PUSH2 0x2122 JUMP JUMPDEST PUSH1 0x7 SLOAD PUSH1 0x40 MLOAD PUSH2 0xC74 DUP2 PUSH2 0x1F56 JUMP JUMPDEST PUSH1 0x0 DUP2 MSTORE PUSH1 0x40 MLOAD PUSH2 0xC84 DUP2 PUSH2 0x1F56 JUMP JUMPDEST PUSH1 0x0 DUP2 MSTORE PUSH1 0x40 MLOAD SWAP2 PUSH2 0xC95 DUP4 PUSH2 0x1F1C JUMP JUMPDEST DUP4 DUP4 MSTORE PUSH1 0x20 DUP4 ADD MSTORE PUSH1 0x40 DUP3 ADD MSTORE PUSH1 0x0 PUSH1 0x60 DUP3 ADD MSTORE PUSH1 0x44 CALLDATALOAD PUSH1 0x80 DUP3 ADD MSTORE PUSH1 0x4 CALLDATALOAD PUSH1 0xA0 DUP3 ADD MSTORE PUSH1 0x24 CALLDATALOAD PUSH1 0xC0 DUP3 ADD MSTORE PUSH1 0x64 CALLDATALOAD PUSH1 0xE0 DUP3 ADD MSTORE PUSH1 0x0 PUSH2 0x100 DUP3 ADD MSTORE PUSH1 0x1 PUSH1 0x40 SHL DUP3 LT ISZERO PUSH2 0x732 JUMPI PUSH1 0x1 DUP3 ADD PUSH1 0x7 SSTORE PUSH2 0xCED DUP3 PUSH2 0x1D8E JUMP JUMPDEST PUSH2 0x748 JUMPI DUP2 MLOAD DUP2 SSTORE PUSH1 0x20 DUP3 ADD MLOAD DUP1 MLOAD SWAP1 PUSH8 0xFFFFFFFFFFFFFFFF DUP3 GT PUSH2 0x732 JUMPI PUSH1 0x1 PUSH1 0x40 SHL DUP3 GT PUSH2 0x732 JUMPI PUSH1 0x20 PUSH1 0x1 DUP5 ADD SWAP2 DUP3 SLOAD DUP5 DUP5 SSTORE DUP1 DUP6 LT PUSH2 0xE5B JUMPI JUMPDEST POP ADD SWAP1 PUSH1 0x0 MSTORE PUSH1 0x20 PUSH1 0x0 KECCAK256 PUSH1 0x0 JUMPDEST DUP4 DUP2 LT PUSH2 0xE47 JUMPI POP POP POP POP PUSH1 0x40 DUP3 ADD MLOAD DUP1 MLOAD SWAP1 PUSH8 0xFFFFFFFFFFFFFFFF DUP3 GT PUSH2 0x732 JUMPI PUSH1 0x1 PUSH1 0x40 SHL DUP3 GT PUSH2 0x732 JUMPI PUSH1 0x20 PUSH1 0x2 DUP5 ADD SWAP2 DUP3 SLOAD DUP5 DUP5 SSTORE DUP1 DUP6 LT PUSH2 0xE2A JUMPI JUMPDEST POP ADD SWAP1 PUSH1 0x0 MSTORE PUSH1 0x20 PUSH1 0x0 KECCAK256 PUSH1 0x0 JUMPDEST DUP4 DUP2 LT PUSH2 0xE16 JUMPI PUSH32 0xBD3F84A55FDC44F970ADC6CCBAA93E78D7DA5F3FC37C4B7DA578D47C9AD2E46A PUSH1 0x60 DUP9 DUP9 PUSH2 0x100 PUSH1 0x8 DUP11 DUP6 DUP5 ADD MLOAD PUSH1 0x3 DUP3 ADD SSTORE PUSH1 0x80 DUP5 ADD MLOAD PUSH1 0x4 DUP3 ADD SSTORE PUSH1 0xA0 DUP5 ADD MLOAD PUSH1 0x5 DUP3 ADD SSTORE PUSH1 0xC0 DUP5 ADD MLOAD PUSH1 0x6 DUP3 ADD SSTORE PUSH1 0xE0 DUP5 ADD MLOAD PUSH1 0x7 DUP3 ADD SSTORE ADD SWAP2 ADD MLOAD ISZERO ISZERO PUSH1 0xFF DUP1 NOT DUP4 SLOAD AND SWAP2 AND OR SWAP1 SSTORE PUSH1 0x40 MLOAD SWAP1 DUP2 MSTORE PUSH1 0x4 CALLDATALOAD PUSH1 0x20 DUP3 ADD MSTORE PUSH1 0x24 CALLDATALOAD PUSH1 0x40 DUP3 ADD MSTORE LOG1 STOP JUMPDEST PUSH1 0x1 SWAP1 PUSH1 0x20 DUP5 MLOAD SWAP5 ADD SWAP4 DUP2 DUP5 ADD SSTORE ADD PUSH2 0xD88 JUMP JUMPDEST PUSH2 0xE41 SWAP1 DUP5 PUSH1 0x0 MSTORE DUP6 DUP5 PUSH1 0x0 KECCAK256 SWAP2 DUP3 ADD SWAP2 ADD PUSH2 0x21BB JUMP JUMPDEST DUP8 PUSH2 0xD7A JUMP JUMPDEST PUSH1 0x1 SWAP1 PUSH1 0x20 DUP5 MLOAD SWAP5 ADD SWAP4 DUP2 DUP5 ADD SSTORE ADD PUSH2 0xD39 JUMP JUMPDEST PUSH2 0xE72 SWAP1 DUP5 PUSH1 0x0 MSTORE DUP6 DUP5 PUSH1 0x0 KECCAK256 SWAP2 DUP3 ADD SWAP2 ADD PUSH2 0x21BB JUMP JUMPDEST DUP8 PUSH2 0xD2B JUMP JUMPDEST CALLVALUE PUSH2 0x1F9 JUMPI PUSH1 0x0 CALLDATASIZE PUSH1 0x3 NOT ADD SLT PUSH2 0x1F9 JUMPI PUSH1 0x20 PUSH1 0x40 MLOAD PUSH2 0x2710 DUP2 MSTORE RETURN JUMPDEST PUSH2 0xE9E CALLDATASIZE PUSH2 0x1DDF JUMP JUMPDEST PUSH2 0xEA6 PUSH2 0x21D2 JUMP JUMPDEST PUSH2 0xEB3 PUSH1 0x7 SLOAD DUP4 LT PUSH2 0x2239 JUMP JUMPDEST PUSH1 0x6 SLOAD DUP2 LT ISZERO PUSH2 0x107B JUMPI PUSH2 0xEC9 PUSH2 0x2AB DUP3 PUSH2 0x1FAC JUMP JUMPDEST PUSH1 0xA PUSH1 0x1 PUSH2 0xED6 DUP5 PUSH2 0x1D8E JUMP JUMPDEST POP ADD SLOAD GT PUSH2 0x1047 JUMPI PUSH2 0xEF7 PUSH1 0x4 PUSH2 0xEEC DUP5 PUSH2 0x1D8E JUMP JUMPDEST POP ADD SLOAD CALLVALUE LT ISZERO PUSH2 0x217A JUMP JUMPDEST PUSH1 0xFF PUSH1 0x8 PUSH2 0xF04 DUP5 PUSH2 0x1D8E JUMP JUMPDEST POP ADD SLOAD AND PUSH2 0x100F JUMPI PUSH1 0x5 PUSH2 0xF17 DUP4 PUSH2 0x1D8E JUMP JUMPDEST POP ADD SLOAD PUSH2 0x12B NOT DUP2 ADD SWAP1 DUP2 GT PUSH2 0xFF9 JUMPI TIMESTAMP LT ISZERO PUSH2 0xFA5 JUMPI PUSH1 0x1 PUSH2 0xF39 DUP4 PUSH2 0x1D8E JUMP JUMPDEST POP ADD SWAP2 DUP3 SLOAD SWAP2 PUSH1 0x1 PUSH1 0x40 SHL DUP4 LT ISZERO PUSH2 0x732 JUMPI PUSH2 0xF7E DUP4 PUSH32 0x71A6CC8F49F9FA4F3902BDF04D1858A719BD3F1EB6AE19C348692E0BB3E971C3 SWAP6 PUSH1 0x1 PUSH1 0x40 SWAP7 ADD DUP2 SSTORE PUSH2 0x22CF JUMP JUMPDEST DUP2 SLOAD SWAP1 PUSH1 0x3 SHL SWAP1 DUP4 DUP3 SHL SWAP2 PUSH1 0x0 NOT SWAP1 SHL NOT AND OR SWAP1 SSTORE DUP3 MLOAD SWAP2 DUP3 MSTORE PUSH1 0x20 DUP3 ADD MSTORE LOG1 PUSH1 0x1 PUSH1 0x2 SSTORE STOP JUMPDEST PUSH1 0x40 MLOAD PUSH3 0x461BCD PUSH1 0xE5 SHL DUP2 MSTORE PUSH1 0x20 PUSH1 0x4 DUP3 ADD MSTORE PUSH1 0x26 PUSH1 0x24 DUP3 ADD MSTORE PUSH32 0x596F752063616E2774206A6F696E207468652067616D652C206974277320746F PUSH1 0x44 DUP3 ADD MSTORE PUSH6 0x6F206C617465 PUSH1 0xD0 SHL PUSH1 0x64 DUP3 ADD MSTORE PUSH1 0x84 SWAP1 REVERT JUMPDEST PUSH4 0x4E487B71 PUSH1 0xE0 SHL PUSH1 0x0 MSTORE PUSH1 0x11 PUSH1 0x4 MSTORE PUSH1 0x24 PUSH1 0x0 REVERT JUMPDEST PUSH1 0x40 MLOAD PUSH3 0x461BCD PUSH1 0xE5 SHL DUP2 MSTORE PUSH1 0x20 PUSH1 0x4 DUP3 ADD MSTORE PUSH1 0x10 PUSH1 0x24 DUP3 ADD MSTORE PUSH16 0x11D85B59481A5CC8199A5B9A5CDA1959 PUSH1 0x82 SHL PUSH1 0x44 DUP3 ADD MSTORE PUSH1 0x64 SWAP1 REVERT JUMPDEST PUSH1 0x40 MLOAD PUSH3 0x461BCD PUSH1 0xE5 SHL DUP2 MSTORE PUSH1 0x20 PUSH1 0x4 DUP3 ADD MSTORE PUSH1 0xC PUSH1 0x24 DUP3 ADD MSTORE PUSH12 0x11D85B59481A5CC8199D5B1B PUSH1 0xA2 SHL PUSH1 0x44 DUP3 ADD MSTORE PUSH1 0x64 SWAP1 REVERT JUMPDEST PUSH1 0x40 MLOAD PUSH3 0x461BCD PUSH1 0xE5 SHL DUP2 MSTORE PUSH1 0x20 PUSH1 0x4 DUP3 ADD MSTORE PUSH1 0xE PUSH1 0x24 DUP3 ADD MSTORE PUSH14 0x125B9D985B1A59081C195D081A59 PUSH1 0x92 SHL PUSH1 0x44 DUP3 ADD MSTORE PUSH1 0x64 SWAP1 REVERT JUMPDEST PUSH2 0x10BA CALLDATASIZE PUSH2 0x1DDF JUMP JUMPDEST SWAP1 PUSH2 0x10C7 PUSH2 0x2AB DUP3 PUSH2 0x1FAC JUMP JUMPDEST PUSH2 0x10CF PUSH2 0x21D2 JUMP JUMPDEST PUSH1 0x10 SLOAD DUP3 GT PUSH2 0x10ED JUMPI PUSH2 0x2F3 PUSH1 0x4 SWAP2 PUSH2 0x2EE PUSH2 0x2E6 DUP6 PUSH1 0xA SLOAD PUSH2 0x2226 JUMP JUMPDEST PUSH1 0x40 MLOAD PUSH3 0x461BCD PUSH1 0xE5 SHL DUP2 MSTORE PUSH1 0x20 PUSH1 0x4 DUP3 ADD MSTORE PUSH1 0x10 PUSH1 0x24 DUP3 ADD MSTORE PUSH16 0x92DCECC2D8D2C840E6E8E4CADCCEE8D PUSH1 0x83 SHL PUSH1 0x44 DUP3 ADD MSTORE PUSH1 0x64 SWAP1 REVERT JUMPDEST CALLVALUE PUSH2 0x1F9 JUMPI PUSH1 0x0 CALLDATASIZE PUSH1 0x3 NOT ADD SLT PUSH2 0x1F9 JUMPI PUSH1 0x20 PUSH1 0x40 MLOAD PUSH1 0x64 DUP2 MSTORE RETURN JUMPDEST CALLVALUE PUSH2 0x1F9 JUMPI PUSH1 0x20 CALLDATASIZE PUSH1 0x3 NOT ADD SLT PUSH2 0x1F9 JUMPI PUSH2 0xBE9 PUSH2 0x117F PUSH2 0x1179 PUSH1 0x4 CALLDATALOAD PUSH2 0x1166 PUSH2 0x22E7 JUMP JUMPDEST POP PUSH2 0x1174 PUSH1 0x7 SLOAD DUP3 LT PUSH2 0x2239 JUMP JUMPDEST PUSH2 0x1D8E JUMP JUMPDEST POP PUSH2 0x237D JUMP JUMPDEST PUSH1 0x40 MLOAD SWAP2 DUP3 SWAP2 PUSH1 0x20 DUP4 MSTORE PUSH1 0x20 DUP4 ADD SWAP1 PUSH2 0x1E29 JUMP JUMPDEST CALLVALUE PUSH2 0x1F9 JUMPI PUSH1 0x40 CALLDATASIZE PUSH1 0x3 NOT ADD SLT PUSH2 0x1F9 JUMPI PUSH1 0x4 CALLDATALOAD PUSH8 0xFFFFFFFFFFFFFFFF PUSH1 0x24 DUP1 CALLDATALOAD DUP3 DUP2 GT PUSH2 0x1F9 JUMPI CALLDATASIZE PUSH1 0x23 DUP3 ADD SLT ISZERO PUSH2 0x1F9 JUMPI DUP1 PUSH1 0x4 ADD CALLDATALOAD PUSH2 0x11D4 DUP2 PUSH2 0x1F94 JUMP JUMPDEST SWAP3 PUSH2 0x11E2 PUSH1 0x40 MLOAD SWAP5 DUP6 PUSH2 0x1F72 JUMP JUMPDEST DUP2 DUP5 MSTORE PUSH1 0x20 SWAP3 DUP4 DUP6 ADD DUP3 DUP2 SWAP5 PUSH1 0x5 SHL DUP4 ADD ADD SWAP2 CALLDATASIZE DUP4 GT PUSH2 0x1F9 JUMPI DUP4 DUP7 SWAP2 ADD SWAP2 JUMPDEST DUP4 DUP4 LT PUSH2 0x135A JUMPI POP POP POP POP PUSH2 0x1215 PUSH2 0x2122 JUMP JUMPDEST PUSH2 0x1222 PUSH1 0x7 SLOAD DUP8 LT PUSH2 0x2239 JUMP JUMPDEST PUSH1 0xFF PUSH1 0x8 PUSH2 0x122F DUP9 PUSH2 0x1D8E JUMP JUMPDEST POP ADD SLOAD AND PUSH2 0x1317 JUMPI PUSH1 0x2 PUSH2 0x1242 DUP8 PUSH2 0x1D8E JUMP JUMPDEST POP ADD SWAP4 MLOAD SWAP5 DUP6 GT PUSH2 0x1303 JUMPI PUSH1 0x1 PUSH1 0x40 SHL DUP6 GT PUSH2 0x1303 JUMPI POP DUP3 SLOAD DUP5 DUP5 SSTORE DUP1 DUP6 LT PUSH2 0x12E6 JUMPI JUMPDEST POP SWAP2 PUSH1 0x0 MSTORE DUP1 PUSH1 0x0 KECCAK256 SWAP1 PUSH1 0x0 JUMPDEST DUP5 DUP2 LT PUSH2 0x12D4 JUMPI DUP6 PUSH1 0x8 PUSH2 0x1286 DUP3 PUSH2 0x1D8E JUMP JUMPDEST POP ADD DUP1 SLOAD PUSH1 0xFF NOT AND PUSH1 0x1 OR SWAP1 SSTORE PUSH1 0x3 PUSH2 0x12CF PUSH2 0x12C9 PUSH2 0x12C0 PUSH1 0x4 PUSH2 0x12A9 DUP7 PUSH2 0x1D8E JUMP JUMPDEST POP ADD SLOAD PUSH1 0x1 PUSH2 0x12B7 DUP8 PUSH2 0x1D8E JUMP JUMPDEST POP ADD SLOAD SWAP1 PUSH2 0x2226 JUMP JUMPDEST PUSH1 0x4 SLOAD SWAP1 PUSH2 0x22C2 JUMP JUMPDEST SWAP3 PUSH2 0x1D8E JUMP JUMPDEST POP ADD SSTORE STOP JUMPDEST DUP4 MLOAD DUP4 DUP3 ADD SSTORE SWAP3 DUP2 ADD SWAP3 PUSH1 0x1 ADD PUSH2 0x1273 JUMP JUMPDEST PUSH2 0x12FD SWAP1 DUP5 PUSH1 0x0 MSTORE DUP6 DUP5 PUSH1 0x0 KECCAK256 SWAP2 DUP3 ADD SWAP2 ADD PUSH2 0x21BB JUMP JUMPDEST DUP6 PUSH2 0x1266 JUMP JUMPDEST PUSH4 0x4E487B71 PUSH1 0xE0 SHL PUSH1 0x0 SWAP1 DUP2 MSTORE PUSH1 0x41 PUSH1 0x4 MSTORE REVERT JUMPDEST DUP3 PUSH1 0x18 PUSH1 0x64 SWAP3 PUSH1 0x40 MLOAD SWAP3 PUSH3 0x461BCD PUSH1 0xE5 SHL DUP5 MSTORE PUSH1 0x4 DUP5 ADD MSTORE DUP3 ADD MSTORE PUSH32 0x47616D6520697320616C72656164792066696E69736865640000000000000000 PUSH1 0x44 DUP3 ADD MSTORE REVERT JUMPDEST DUP3 CALLDATALOAD DUP2 MSTORE SWAP2 DUP2 ADD SWAP2 DUP7 SWAP2 ADD PUSH2 0x1202 JUMP JUMPDEST CALLVALUE PUSH2 0x1F9 JUMPI PUSH1 0x20 DUP1 PUSH1 0x3 NOT CALLDATASIZE ADD SLT PUSH2 0x1F9 JUMPI PUSH1 0x8 SWAP1 PUSH1 0x4 CALLDATALOAD PUSH2 0x138A PUSH2 0x2122 JUMP JUMPDEST PUSH2 0x1397 PUSH1 0x7 SLOAD DUP3 LT PUSH2 0x2239 JUMP JUMPDEST PUSH2 0x13A0 DUP2 PUSH2 0x1D8E JUMP JUMPDEST POP PUSH1 0xFF PUSH1 0x1 SWAP5 DUP6 SWAP3 ADD SLOAD AND ISZERO ISZERO SUB PUSH2 0x15D7 JUMPI PUSH2 0x13EE PUSH2 0x13D0 PUSH1 0x4 PUSH2 0x13C3 DUP5 PUSH2 0x1D8E JUMP JUMPDEST POP ADD SLOAD DUP6 PUSH2 0x12B7 DUP6 PUSH2 0x1D8E JUMP JUMPDEST PUSH8 0xDE0B6B3A7640000 SWAP2 DUP3 SWAP2 PUSH2 0x13E8 PUSH1 0x4 SLOAD DUP3 PUSH2 0x2226 JUMP JUMPDEST SWAP1 PUSH2 0x22C2 JUMP JUMPDEST DIV SWAP1 PUSH2 0x13F9 DUP4 PUSH2 0x1D8E JUMP JUMPDEST POP PUSH1 0x3 DUP1 SWAP2 ADD SLOAD SWAP1 PUSH1 0x0 DUP1 DUP1 DUP1 PUSH1 0x1 DUP1 PUSH1 0xA0 SHL SUB SWAP8 DUP9 DUP7 SLOAD AND GAS CALL PUSH2 0x141C PUSH2 0x2468 JUMP JUMPDEST POP ISZERO PUSH2 0x1586 JUMPI PUSH1 0x0 DUP8 JUMPDEST PUSH2 0x142C JUMPI STOP JUMPDEST PUSH2 0x1435 DUP7 PUSH2 0x1D8E JUMP JUMPDEST POP PUSH1 0x2 DUP1 SWAP2 ADD SLOAD DUP3 LT ISZERO PUSH2 0x1584 JUMPI PUSH2 0x1458 DUP3 DUP3 PUSH2 0x1451 DUP11 PUSH2 0x1D8E JUMP JUMPDEST POP ADD PUSH2 0x22CF JUMP JUMPDEST SWAP1 SLOAD SWAP1 DUP5 SHL SHR SWAP1 DUP7 PUSH1 0x0 SWAP2 DUP5 ISZERO PUSH1 0x0 EQ PUSH2 0x1508 JUMPI POP POP POP PUSH8 0x6F05B59D3B20000 DUP1 DUP6 MUL SWAP1 DUP6 DUP3 DIV EQ DUP6 ISZERO OR ISZERO PUSH2 0xFF9 JUMPI PUSH1 0x0 DUP1 DUP1 SWAP4 DUP10 PUSH1 0xF PUSH2 0x149D DUP12 DUP6 SWAP8 DIV SWAP4 PUSH2 0x1FAC JUMP JUMPDEST POP ADD SLOAD AND GAS CALL PUSH2 0x14AB PUSH2 0x2468 JUMP JUMPDEST POP ISZERO PUSH2 0x14C3 JUMPI SWAP1 PUSH2 0x14BC DUP9 SWAP3 PUSH2 0x23F5 JUMP JUMPDEST SWAP1 SWAP2 PUSH2 0x1426 JUMP JUMPDEST PUSH1 0x40 MLOAD PUSH3 0x461BCD PUSH1 0xE5 SHL DUP2 MSTORE PUSH1 0x4 DUP2 ADD DUP9 SWAP1 MSTORE PUSH1 0x1C PUSH1 0x24 DUP3 ADD MSTORE PUSH32 0x4661696C656420746F207472616E7366657220746865207072697A6500000000 PUSH1 0x44 DUP3 ADD MSTORE PUSH1 0x64 SWAP1 REVERT JUMPDEST DUP5 DUP13 SUB PUSH2 0x1540 JUMPI POP POP POP PUSH8 0x429D069189E0000 DUP1 DUP6 MUL SWAP1 DUP6 DUP3 DIV EQ DUP6 ISZERO OR ISZERO PUSH2 0xFF9 JUMPI PUSH1 0x0 DUP1 DUP1 SWAP4 DUP10 PUSH1 0xF PUSH2 0x149D DUP12 DUP6 SWAP8 DIV SWAP4 PUSH2 0x1FAC JUMP JUMPDEST DUP5 SWAP4 SWAP2 SWAP3 SWAP4 EQ PUSH2 0x155D JUMPI JUMPDEST PUSH1 0x0 DUP1 SWAP4 DUP2 SWAP4 PUSH1 0xF PUSH2 0x149D DUP5 SWAP6 PUSH2 0x1FAC JUMP JUMPDEST SWAP2 POP POP PUSH8 0x2C68AF0BB140000 DUP1 DUP6 MUL SWAP1 DUP6 DUP3 DIV EQ DUP6 ISZERO OR ISZERO PUSH2 0xFF9 JUMPI DUP6 SWAP1 DIV SWAP1 DUP7 SWAP1 PUSH2 0x154B JUMP JUMPDEST STOP JUMPDEST PUSH1 0x40 MLOAD PUSH3 0x461BCD PUSH1 0xE5 SHL DUP2 MSTORE PUSH1 0x4 DUP2 ADD DUP8 SWAP1 MSTORE PUSH1 0x23 PUSH1 0x24 DUP3 ADD MSTORE PUSH32 0x4661696C656420746F207472616E736665722074686520706C6174666F726D20 PUSH1 0x44 DUP3 ADD MSTORE PUSH3 0x666565 PUSH1 0xE8 SHL PUSH1 0x64 DUP3 ADD MSTORE PUSH1 0x84 SWAP1 REVERT JUMPDEST PUSH1 0x40 MLOAD PUSH3 0x461BCD PUSH1 0xE5 SHL DUP2 MSTORE PUSH1 0x4 DUP2 ADD DUP4 SWAP1 MSTORE PUSH1 0x14 PUSH1 0x24 DUP3 ADD MSTORE PUSH20 0x11D85B59481A5CC81B9BDD08199A5B9A5CDA1959 PUSH1 0x62 SHL PUSH1 0x44 DUP3 ADD MSTORE PUSH1 0x64 SWAP1 REVERT JUMPDEST CALLVALUE PUSH2 0x1F9 JUMPI PUSH1 0x20 CALLDATASIZE PUSH1 0x3 NOT ADD SLT PUSH2 0x1F9 JUMPI PUSH1 0x4 CALLDATALOAD PUSH1 0x1 PUSH1 0x1 PUSH1 0xA0 SHL SUB DUP2 AND SWAP1 DUP2 SWAP1 SUB PUSH2 0x1F9 JUMPI PUSH2 0x1641 PUSH2 0x2122 JUMP JUMPDEST PUSH1 0x1 PUSH1 0x1 PUSH1 0x60 SHL SUB PUSH1 0xA0 SHL PUSH1 0x3 SLOAD AND OR PUSH1 0x3 SSTORE PUSH1 0x0 DUP1 RETURN JUMPDEST PUSH2 0x1662 CALLDATASIZE PUSH2 0x1DDF JUMP JUMPDEST SWAP1 PUSH2 0x166F PUSH2 0x2AB DUP3 PUSH2 0x1FAC JUMP JUMPDEST PUSH2 0x1677 PUSH2 0x21D2 JUMP JUMPDEST PUSH1 0x11 SLOAD DUP3 GT PUSH2 0x1695 JUMPI PUSH2 0x2F3 PUSH1 0x5 SWAP2 PUSH2 0x2EE PUSH2 0x2E6 DUP6 PUSH1 0xB SLOAD PUSH2 0x2226 JUMP JUMPDEST PUSH1 0x40 MLOAD PUSH3 0x461BCD PUSH1 0xE5 SHL DUP2 MSTORE PUSH1 0x20 PUSH1 0x4 DUP3 ADD MSTORE PUSH1 0xF PUSH1 0x24 DUP3 ADD MSTORE PUSH15 0x496E76616C6964206167696C697479 PUSH1 0x88 SHL PUSH1 0x44 DUP3 ADD MSTORE PUSH1 0x64 SWAP1 REVERT JUMPDEST CALLVALUE PUSH2 0x1F9 JUMPI PUSH1 0x0 CALLDATASIZE PUSH1 0x3 NOT ADD SLT PUSH2 0x1F9 JUMPI PUSH1 0x0 SLOAD PUSH1 0x40 MLOAD PUSH1 0x1 PUSH1 0x1 PUSH1 0xA0 SHL SUB SWAP1 SWAP2 AND DUP2 MSTORE PUSH1 0x20 SWAP1 RETURN JUMPDEST PUSH2 0x16FE CALLDATASIZE PUSH2 0x1DDF JUMP JUMPDEST SWAP1 PUSH2 0x170B PUSH2 0x2AB DUP3 PUSH2 0x1FAC JUMP JUMPDEST PUSH2 0x1713 PUSH2 0x21D2 JUMP JUMPDEST PUSH1 0x13 SLOAD DUP3 GT PUSH2 0x1731 JUMPI PUSH2 0x2F3 PUSH1 0x7 SWAP2 PUSH2 0x2EE PUSH2 0x2E6 DUP6 PUSH1 0xD SLOAD PUSH2 0x2226 JUMP JUMPDEST PUSH1 0x40 MLOAD PUSH3 0x461BCD PUSH1 0xE5 SHL DUP2 MSTORE PUSH1 0x20 PUSH1 0x4 DUP3 ADD MSTORE PUSH1 0xC PUSH1 0x24 DUP3 ADD MSTORE PUSH12 0x496E76616C6964206C75636B PUSH1 0xA0 SHL PUSH1 0x44 DUP3 ADD MSTORE PUSH1 0x64 SWAP1 REVERT JUMPDEST CALLVALUE PUSH2 0x1F9 JUMPI PUSH1 0x0 CALLDATASIZE PUSH1 0x3 NOT ADD SLT PUSH2 0x1F9 JUMPI PUSH1 0x20 PUSH1 0x40 MLOAD PUSH8 0x6F05B59D3B20000 DUP2 MSTORE RETURN JUMPDEST CALLVALUE PUSH2 0x1F9 JUMPI PUSH1 0x0 CALLDATASIZE PUSH1 0x3 NOT ADD SLT PUSH2 0x1F9 JUMPI PUSH1 0x7 SLOAD PUSH2 0x17A5 DUP2 PUSH2 0x2418 JUMP JUMPDEST SWAP1 PUSH1 0x0 DUP1 JUMPDEST DUP3 DUP2 LT PUSH2 0x17BF JUMPI PUSH1 0x40 MLOAD DUP1 PUSH2 0xBE9 DUP7 DUP3 PUSH2 0x1E9E JUMP JUMPDEST PUSH1 0x1 PUSH1 0xFF PUSH1 0x8 PUSH2 0x17CE DUP5 PUSH2 0x1D8E JUMP JUMPDEST POP ADD SLOAD AND ISZERO ISZERO EQ PUSH2 0x17E8 JUMPI JUMPDEST PUSH2 0x17E3 SWAP1 PUSH2 0x23F5 JUMP JUMPDEST PUSH2 0x17AA JUMP JUMPDEST SWAP1 PUSH2 0x1811 PUSH2 0x17E3 SWAP2 PUSH2 0x17FC PUSH2 0x1179 DUP6 PUSH2 0x1D8E JUMP JUMPDEST PUSH2 0x1806 DUP3 DUP9 PUSH2 0x2404 JUMP JUMPDEST MSTORE PUSH2 0x9DF DUP2 DUP8 PUSH2 0x2404 JUMP JUMPDEST SWAP2 SWAP1 POP PUSH2 0x17DA JUMP JUMPDEST CALLVALUE PUSH2 0x1F9 JUMPI PUSH1 0x0 CALLDATASIZE PUSH1 0x3 NOT ADD SLT PUSH2 0x1F9 JUMPI PUSH1 0x1 SLOAD PUSH1 0x1 PUSH1 0x1 PUSH1 0xA0 SHL SUB CALLER DUP2 DUP4 AND SUB PUSH2 0x1885 JUMPI PUSH1 0x1 PUSH1 0x1 PUSH1 0x60 SHL SUB PUSH1 0xA0 SHL DUP1 SWAP3 AND PUSH1 0x1 SSTORE PUSH1 0x0 SLOAD SWAP2 CALLER SWAP1 DUP4 AND OR PUSH1 0x0 SSTORE CALLER SWAP2 AND PUSH32 0x8BE0079C531659141344CD1FD0A4F28419497F9722A3DAAFE3B4186F6B6457E0 PUSH1 0x0 DUP1 LOG3 STOP JUMPDEST PUSH1 0x40 MLOAD PUSH3 0x461BCD PUSH1 0xE5 SHL DUP2 MSTORE PUSH1 0x20 PUSH1 0x4 DUP3 ADD MSTORE PUSH1 0x29 PUSH1 0x24 DUP3 ADD MSTORE PUSH32 0x4F776E61626C6532537465703A2063616C6C6572206973206E6F742074686520 PUSH1 0x44 DUP3 ADD MSTORE PUSH9 0x3732BB9037BBB732B9 PUSH1 0xB9 SHL PUSH1 0x64 DUP3 ADD MSTORE PUSH1 0x84 SWAP1 REVERT JUMPDEST CALLVALUE PUSH2 0x1F9 JUMPI PUSH1 0x0 CALLDATASIZE PUSH1 0x3 NOT ADD SLT PUSH2 0x1F9 JUMPI PUSH2 0x18F5 PUSH2 0x2122 JUMP JUMPDEST PUSH1 0x1 DUP1 SLOAD PUSH1 0x1 PUSH1 0x1 PUSH1 0xA0 SHL SUB NOT SWAP1 DUP2 AND SWAP1 SWAP2 SSTORE PUSH1 0x0 DUP1 SLOAD SWAP2 DUP3 AND DUP2 SSTORE SWAP1 PUSH1 0x1 PUSH1 0x1 PUSH1 0xA0 SHL SUB AND PUSH32 0x8BE0079C531659141344CD1FD0A4F28419497F9722A3DAAFE3B4186F6B6457E0 DUP3 DUP1 LOG3 STOP JUMPDEST CALLVALUE PUSH2 0x1F9 JUMPI PUSH1 0x0 CALLDATASIZE PUSH1 0x3 NOT ADD SLT PUSH2 0x1F9 JUMPI PUSH1 0xE SLOAD PUSH1 0xF SLOAD PUSH1 0x10 SLOAD PUSH1 0x11 SLOAD PUSH1 0x12 SLOAD PUSH1 0x13 SLOAD PUSH1 0x40 DUP1 MLOAD SWAP7 DUP8 MSTORE PUSH1 0x20 DUP8 ADD SWAP6 SWAP1 SWAP6 MSTORE SWAP4 DUP6 ADD SWAP3 SWAP1 SWAP3 MSTORE PUSH1 0x60 DUP5 ADD MSTORE PUSH1 0x80 DUP4 ADD MSTORE PUSH1 0xA0 DUP3 ADD MSTORE PUSH1 0xC0 SWAP1 RETURN JUMPDEST CALLVALUE PUSH2 0x1F9 JUMPI PUSH1 0x0 CALLDATASIZE PUSH1 0x3 NOT ADD SLT PUSH2 0x1F9 JUMPI PUSH1 0x7 SLOAD PUSH2 0x19AB DUP2 PUSH2 0x2418 JUMP JUMPDEST SWAP1 PUSH1 0x0 DUP1 JUMPDEST DUP3 DUP2 LT PUSH2 0x19C5 JUMPI PUSH1 0x40 MLOAD DUP1 PUSH2 0xBE9 DUP7 DUP3 PUSH2 0x1E9E JUMP JUMPDEST PUSH1 0xFF PUSH1 0x8 PUSH2 0x19D2 DUP4 PUSH2 0x1D8E JUMP JUMPDEST POP ADD SLOAD AND ISZERO PUSH2 0x19EA JUMPI JUMPDEST PUSH2 0x19E5 SWAP1 PUSH2 0x23F5 JUMP JUMPDEST PUSH2 0x19B0 JUMP JUMPDEST SWAP1 PUSH2 0x19FE PUSH2 0x19E5 SWAP2 PUSH2 0x17FC PUSH2 0x1179 DUP6 PUSH2 0x1D8E JUMP JUMPDEST SWAP2 SWAP1 POP PUSH2 0x19DC JUMP JUMPDEST CALLVALUE PUSH2 0x1F9 JUMPI PUSH1 0x0 CALLDATASIZE PUSH1 0x3 NOT ADD SLT PUSH2 0x1F9 JUMPI PUSH1 0x5 SLOAD PUSH1 0x40 MLOAD PUSH1 0x1 PUSH1 0x1 PUSH1 0xA0 SHL SUB SWAP1 SWAP2 AND DUP2 MSTORE PUSH1 0x20 SWAP1 RETURN JUMPDEST CALLVALUE PUSH2 0x1F9 JUMPI PUSH1 0x0 CALLDATASIZE PUSH1 0x3 NOT ADD SLT PUSH2 0x1F9 JUMPI PUSH1 0x3 SLOAD PUSH1 0x1 PUSH1 0x1 PUSH1 0xA0 SHL SUB SWAP1 DUP2 AND CALLER SUB PUSH2 0x1B25 JUMPI PUSH1 0x5 SLOAD PUSH1 0x40 MLOAD PUSH4 0x430021DB PUSH1 0xE1 SHL DUP2 MSTORE ADDRESS PUSH1 0x4 DUP3 ADD MSTORE CALLER PUSH1 0x24 DUP3 ADD MSTORE PUSH1 0x20 SWAP3 SWAP2 DUP4 SWAP1 DUP3 SWAP1 PUSH1 0x44 SWAP1 DUP3 SWAP1 PUSH1 0x0 SWAP1 DUP8 AND GAS CALL SWAP1 DUP2 ISZERO PUSH2 0x1AF0 JUMPI DUP4 SWAP2 PUSH2 0x1AFC JUMPI JUMPDEST POP POP PUSH1 0x5 SLOAD PUSH1 0x40 MLOAD PUSH4 0x4AA7D2F7 PUSH1 0xE1 SHL DUP2 MSTORE ADDRESS PUSH1 0x4 DUP3 ADD MSTORE CALLER PUSH1 0x24 DUP3 ADD MSTORE SWAP2 DUP4 SWAP2 DUP4 SWAP2 PUSH1 0x44 SWAP2 DUP4 SWAP2 PUSH1 0x0 SWAP2 AND GAS CALL DUP1 ISZERO PUSH2 0x1AF0 JUMPI PUSH2 0x1ACC JUMPI STOP JUMPDEST DUP2 RETURNDATASIZE DUP4 GT PUSH2 0x1AE9 JUMPI JUMPDEST PUSH2 0x1ADF DUP2 DUP4 PUSH2 0x1F72 JUMP JUMPDEST DUP2 ADD SUB SLT PUSH2 0x1F9 JUMPI STOP JUMPDEST POP RETURNDATASIZE PUSH2 0x1AD5 JUMP JUMPDEST PUSH1 0x40 MLOAD RETURNDATASIZE PUSH1 0x0 DUP3 RETURNDATACOPY RETURNDATASIZE SWAP1 REVERT JUMPDEST DUP2 RETURNDATASIZE DUP4 GT PUSH2 0x1B1E JUMPI JUMPDEST PUSH2 0x1B0F DUP2 DUP4 PUSH2 0x1F72 JUMP JUMPDEST DUP2 ADD SUB SLT PUSH2 0x1F9 JUMPI DUP2 DUP4 PUSH2 0x1A92 JUMP JUMPDEST POP RETURNDATASIZE PUSH2 0x1B05 JUMP JUMPDEST PUSH1 0x40 MLOAD PUSH3 0x461BCD PUSH1 0xE5 SHL DUP2 MSTORE PUSH1 0x20 PUSH1 0x4 DUP3 ADD MSTORE PUSH1 0x26 PUSH1 0x24 DUP3 ADD MSTORE PUSH32 0x43616C6C6572206973206E6F742074686520706C6174666F726D206665652061 PUSH1 0x44 DUP3 ADD MSTORE PUSH6 0x646472657373 PUSH1 0xD0 SHL PUSH1 0x64 DUP3 ADD MSTORE PUSH1 0x84 SWAP1 REVERT JUMPDEST CALLVALUE PUSH2 0x1F9 JUMPI PUSH1 0x0 CALLDATASIZE PUSH1 0x3 NOT ADD SLT PUSH2 0x1F9 JUMPI PUSH1 0x20 PUSH1 0x4 SLOAD PUSH1 0x40 MLOAD SWAP1 DUP2 MSTORE RETURN JUMPDEST PUSH2 0x1BA0 CALLDATASIZE PUSH2 0x1DDF JUMP JUMPDEST SWAP1 PUSH2 0x1BAD PUSH2 0x2AB DUP3 PUSH2 0x1FAC JUMP JUMPDEST PUSH2 0x1BB5 PUSH2 0x21D2 JUMP JUMPDEST PUSH1 0x12 SLOAD DUP3 GT PUSH2 0x1BD3 JUMPI PUSH2 0x2F3 PUSH1 0x6 SWAP2 PUSH2 0x2EE PUSH2 0x2E6 DUP6 PUSH1 0xC SLOAD PUSH2 0x2226 JUMP JUMPDEST PUSH1 0x40 MLOAD PUSH3 0x461BCD PUSH1 0xE5 SHL DUP2 MSTORE PUSH1 0x20 PUSH1 0x4 DUP3 ADD MSTORE PUSH1 0x14 PUSH1 0x24 DUP3 ADD MSTORE PUSH20 0x496E76616C696420696E74656C6C6967656E6365 PUSH1 0x60 SHL PUSH1 0x44 DUP3 ADD MSTORE PUSH1 0x64 SWAP1 REVERT JUMPDEST CALLVALUE PUSH2 0x1F9 JUMPI PUSH1 0x20 CALLDATASIZE PUSH1 0x3 NOT ADD SLT PUSH2 0x1F9 JUMPI PUSH2 0x1C28 PUSH2 0x2122 JUMP JUMPDEST PUSH1 0x4 DUP1 CALLDATALOAD SWAP1 SSTORE STOP JUMPDEST CALLVALUE PUSH2 0x1F9 JUMPI PUSH1 0x20 CALLDATASIZE PUSH1 0x3 NOT ADD SLT PUSH2 0x1F9 JUMPI PUSH1 0x4 CALLDATALOAD PUSH1 0x1 PUSH1 0x1 PUSH1 0xA0 SHL SUB DUP2 AND SWAP1 DUP2 SWAP1 SUB PUSH2 0x1F9 JUMPI PUSH2 0x1C5E PUSH2 0x2122 JUMP JUMPDEST PUSH1 0x1 PUSH1 0x1 PUSH1 0x60 SHL SUB PUSH1 0xA0 SHL PUSH1 0x5 SLOAD AND OR PUSH1 0x5 SSTORE PUSH1 0x0 DUP1 RETURN JUMPDEST CALLVALUE PUSH2 0x1F9 JUMPI PUSH1 0x20 CALLDATASIZE PUSH1 0x3 NOT ADD SLT PUSH2 0x1F9 JUMPI PUSH1 0x4 CALLDATALOAD PUSH1 0x7 SLOAD DUP2 LT ISZERO PUSH2 0x1F9 JUMPI PUSH2 0x1C9F PUSH1 0xE0 SWAP2 PUSH2 0x1D8E JUMP JUMPDEST POP DUP1 SLOAD SWAP1 PUSH1 0x3 DUP2 ADD SLOAD SWAP1 PUSH1 0x4 DUP2 ADD SLOAD PUSH1 0x5 DUP3 ADD SLOAD PUSH1 0x6 DUP4 ADD SLOAD SWAP2 PUSH1 0xFF PUSH1 0x8 PUSH1 0x7 DUP7 ADD SLOAD SWAP6 ADD SLOAD AND SWAP5 PUSH1 0x40 MLOAD SWAP7 DUP8 MSTORE PUSH1 0x20 DUP8 ADD MSTORE PUSH1 0x40 DUP7 ADD MSTORE PUSH1 0x60 DUP6 ADD MSTORE PUSH1 0x80 DUP5 ADD MSTORE PUSH1 0xA0 DUP4 ADD MSTORE ISZERO ISZERO PUSH1 0xC0 DUP3 ADD MSTORE RETURN JUMPDEST CALLVALUE PUSH2 0x1F9 JUMPI PUSH1 0x0 CALLDATASIZE PUSH1 0x3 NOT ADD SLT PUSH2 0x1F9 JUMPI PUSH1 0x20 PUSH1 0x40 MLOAD PUSH8 0x429D069189E0000 DUP2 MSTORE RETURN JUMPDEST CALLVALUE PUSH2 0x1F9 JUMPI PUSH2 0x1D20 CALLDATASIZE PUSH2 0x1D68 JUMP JUMPDEST SWAP5 PUSH2 0x1D2F SWAP5 SWAP2 SWAP5 SWAP4 SWAP3 SWAP4 PUSH2 0x2122 JUMP JUMPDEST PUSH2 0x1D3A PUSH1 0x40 MLOAD PUSH2 0x1F00 JUMP JUMPDEST PUSH1 0xE SSTORE PUSH1 0xF SSTORE PUSH1 0x10 SSTORE PUSH1 0x11 SSTORE PUSH1 0x12 SSTORE PUSH1 0x13 SSTORE STOP JUMPDEST CALLVALUE PUSH2 0x1F9 JUMPI PUSH1 0x0 CALLDATASIZE PUSH1 0x3 NOT ADD SLT PUSH2 0x1F9 JUMPI DUP1 PUSH1 0xA PUSH1 0x20 SWAP3 MSTORE RETURN JUMPDEST PUSH1 0xC0 SWAP1 PUSH1 0x3 NOT ADD SLT PUSH2 0x1F9 JUMPI PUSH1 0x4 CALLDATALOAD SWAP1 PUSH1 0x24 CALLDATALOAD SWAP1 PUSH1 0x44 CALLDATALOAD SWAP1 PUSH1 0x64 CALLDATALOAD SWAP1 PUSH1 0x84 CALLDATALOAD SWAP1 PUSH1 0xA4 CALLDATALOAD SWAP1 JUMP JUMPDEST PUSH1 0x7 SLOAD DUP2 LT ISZERO PUSH2 0x1DC9 JUMPI PUSH1 0x9 SWAP1 PUSH1 0x7 PUSH1 0x0 MSTORE MUL PUSH32 0xA66CC928B5EDB82AF9BD49922954155AB7B0942694BEA4CE44661D9A8736C688 ADD SWAP1 PUSH1 0x0 SWAP1 JUMP JUMPDEST PUSH4 0x4E487B71 PUSH1 0xE0 SHL PUSH1 0x0 MSTORE PUSH1 0x32 PUSH1 0x4 MSTORE PUSH1 0x24 PUSH1 0x0 REVERT JUMPDEST PUSH1 0x40 SWAP1 PUSH1 0x3 NOT ADD SLT PUSH2 0x1F9 JUMPI PUSH1 0x4 CALLDATALOAD SWAP1 PUSH1 0x24 CALLDATALOAD SWAP1 JUMP JUMPDEST SWAP1 DUP2 MLOAD DUP1 DUP3 MSTORE PUSH1 0x20 DUP1 DUP1 SWAP4 ADD SWAP4 ADD SWAP2 PUSH1 0x0 JUMPDEST DUP3 DUP2 LT PUSH2 0x1E15 JUMPI POP POP POP POP SWAP1 JUMP JUMPDEST DUP4 MLOAD DUP6 MSTORE SWAP4 DUP2 ADD SWAP4 SWAP3 DUP2 ADD SWAP3 PUSH1 0x1 ADD PUSH2 0x1E07 JUMP JUMPDEST SWAP1 DUP2 MLOAD DUP2 MSTORE PUSH2 0x1E5C PUSH2 0x1E4A PUSH1 0x20 DUP5 ADD MLOAD PUSH2 0x120 DUP1 PUSH1 0x20 DUP7 ADD MSTORE DUP5 ADD SWAP1 PUSH2 0x1DF5 JUMP JUMPDEST PUSH1 0x40 DUP5 ADD MLOAD DUP4 DUP3 SUB PUSH1 0x40 DUP6 ADD MSTORE PUSH2 0x1DF5 JUMP JUMPDEST SWAP2 PUSH1 0x60 DUP2 ADD MLOAD PUSH1 0x60 DUP4 ADD MSTORE PUSH1 0x80 DUP2 ADD MLOAD PUSH1 0x80 DUP4 ADD MSTORE PUSH1 0xA0 DUP2 ADD MLOAD PUSH1 0xA0 DUP4 ADD MSTORE PUSH1 0xC0 DUP2 ADD MLOAD PUSH1 0xC0 DUP4 ADD MSTORE PUSH1 0xE0 DUP2 ADD MLOAD PUSH1 0xE0 DUP4 ADD MSTORE PUSH2 0x100 DUP1 SWAP2 ADD MLOAD ISZERO ISZERO SWAP2 ADD MSTORE SWAP1 JUMP JUMPDEST PUSH1 0x20 DUP1 DUP3 ADD SWAP1 DUP1 DUP4 MSTORE DUP4 MLOAD DUP1 SWAP3 MSTORE PUSH1 0x40 DUP4 ADD SWAP3 DUP2 PUSH1 0x40 DUP5 PUSH1 0x5 SHL DUP4 ADD ADD SWAP6 ADD SWAP4 PUSH1 0x0 SWAP2 JUMPDEST DUP5 DUP4 LT PUSH2 0x1ED2 JUMPI POP POP POP POP POP POP SWAP1 JUMP JUMPDEST SWAP1 SWAP2 SWAP3 SWAP4 SWAP5 SWAP6 DUP5 DUP1 PUSH2 0x1EF0 PUSH1 0x1 SWAP4 PUSH1 0x3F NOT DUP7 DUP3 SUB ADD DUP8 MSTORE DUP11 MLOAD PUSH2 0x1E29 JUMP JUMPDEST SWAP9 ADD SWAP4 ADD SWAP4 ADD SWAP2 SWAP5 SWAP4 SWAP3 SWAP1 PUSH2 0x1EC2 JUMP JUMPDEST PUSH1 0xC0 DUP2 ADD SWAP1 DUP2 LT PUSH8 0xFFFFFFFFFFFFFFFF DUP3 GT OR PUSH2 0x732 JUMPI PUSH1 0x40 MSTORE JUMP JUMPDEST PUSH2 0x120 DUP2 ADD SWAP1 DUP2 LT PUSH8 0xFFFFFFFFFFFFFFFF DUP3 GT OR PUSH2 0x732 JUMPI PUSH1 0x40 MSTORE JUMP JUMPDEST PUSH2 0x200 DUP2 ADD SWAP1 DUP2 LT PUSH8 0xFFFFFFFFFFFFFFFF DUP3 GT OR PUSH2 0x732 JUMPI PUSH1 0x40 MSTORE JUMP JUMPDEST PUSH1 0x20 DUP2 ADD SWAP1 DUP2 LT PUSH8 0xFFFFFFFFFFFFFFFF DUP3 GT OR PUSH2 0x732 JUMPI PUSH1 0x40 MSTORE JUMP JUMPDEST SWAP1 PUSH1 0x1F DUP1 NOT SWAP2 ADD AND DUP2 ADD SWAP1 DUP2 LT PUSH8 0xFFFFFFFFFFFFFFFF DUP3 GT OR PUSH2 0x732 JUMPI PUSH1 0x40 MSTORE JUMP JUMPDEST PUSH8 0xFFFFFFFFFFFFFFFF DUP2 GT PUSH2 0x732 JUMPI PUSH1 0x5 SHL PUSH1 0x20 ADD SWAP1 JUMP JUMPDEST PUSH1 0x6 SLOAD DUP2 LT ISZERO PUSH2 0x1DC9 JUMPI PUSH1 0x6 PUSH1 0x0 MSTORE PUSH1 0x4 SHL PUSH32 0xF652222313E28459528D920B65115C16C04F3EFC82AAEDC97BE59F3F377C0D3F ADD SWAP1 PUSH1 0x0 SWAP1 JUMP JUMPDEST SWAP1 PUSH1 0x1 DUP3 DUP2 SHR SWAP3 AND DUP1 ISZERO PUSH2 0x2016 JUMPI JUMPDEST PUSH1 0x20 DUP4 LT EQ PUSH2 0x2000 JUMPI JUMP JUMPDEST PUSH4 0x4E487B71 PUSH1 0xE0 SHL PUSH1 0x0 MSTORE PUSH1 0x22 PUSH1 0x4 MSTORE PUSH1 0x24 PUSH1 0x0 REVERT JUMPDEST SWAP2 PUSH1 0x7F AND SWAP2 PUSH2 0x1FF5 JUMP JUMPDEST SWAP1 PUSH1 0x40 MLOAD SWAP2 DUP3 PUSH1 0x0 DUP3 SLOAD SWAP3 PUSH2 0x2034 DUP5 PUSH2 0x1FE6 JUMP JUMPDEST SWAP1 DUP2 DUP5 MSTORE PUSH1 0x1 SWAP5 DUP6 DUP2 AND SWAP1 DUP2 PUSH1 0x0 EQ PUSH2 0x20A3 JUMPI POP PUSH1 0x1 EQ PUSH2 0x2060 JUMPI JUMPDEST POP POP PUSH2 0x205E SWAP3 POP SUB DUP4 PUSH2 0x1F72 JUMP JUMPDEST JUMP JUMPDEST SWAP1 SWAP4 SWAP2 POP PUSH1 0x0 MSTORE PUSH1 0x20 SWAP1 DUP2 PUSH1 0x0 KECCAK256 SWAP4 PUSH1 0x0 SWAP2 JUMPDEST DUP2 DUP4 LT PUSH2 0x208B JUMPI POP POP PUSH2 0x205E SWAP4 POP DUP3 ADD ADD CODESIZE DUP1 PUSH2 0x2050 JUMP JUMPDEST DUP6 SLOAD DUP9 DUP5 ADD DUP6 ADD MSTORE SWAP5 DUP6 ADD SWAP5 DUP8 SWAP5 POP SWAP2 DUP4 ADD SWAP2 PUSH2 0x2073 JUMP JUMPDEST SWAP2 POP POP PUSH2 0x205E SWAP5 POP PUSH1 0x20 SWAP3 POP PUSH1 0xFF NOT AND DUP3 DUP5 ADD MSTORE ISZERO ISZERO PUSH1 0x5 SHL DUP3 ADD ADD CODESIZE DUP1 PUSH2 0x2050 JUMP JUMPDEST SWAP2 SWAP1 DUP3 MLOAD SWAP3 DUP4 DUP3 MSTORE PUSH1 0x0 JUMPDEST DUP5 DUP2 LT PUSH2 0x20F2 JUMPI POP POP DUP3 PUSH1 0x0 PUSH1 0x20 DUP1 SWAP5 SWAP6 DUP5 ADD ADD MSTORE PUSH1 0x1F DUP1 NOT SWAP2 ADD AND ADD ADD SWAP1 JUMP JUMPDEST PUSH1 0x20 DUP2 DUP4 ADD DUP2 ADD MLOAD DUP5 DUP4 ADD DUP3 ADD MSTORE ADD PUSH2 0x20D1 JUMP JUMPDEST PUSH8 0xFFFFFFFFFFFFFFFF DUP2 GT PUSH2 0x732 JUMPI PUSH1 0x1F ADD PUSH1 0x1F NOT AND PUSH1 0x20 ADD SWAP1 JUMP JUMPDEST PUSH1 0x0 SLOAD PUSH1 0x1 PUSH1 0x1 PUSH1 0xA0 SHL SUB AND CALLER SUB PUSH2 0x2136 JUMPI JUMP JUMPDEST PUSH1 0x64 PUSH1 0x40 MLOAD PUSH3 0x461BCD PUSH1 0xE5 SHL DUP2 MSTORE PUSH1 0x20 PUSH1 0x4 DUP3 ADD MSTORE PUSH1 0x20 PUSH1 0x24 DUP3 ADD MSTORE PUSH32 0x4F776E61626C653A2063616C6C6572206973206E6F7420746865206F776E6572 PUSH1 0x44 DUP3 ADD MSTORE REVERT JUMPDEST ISZERO PUSH2 0x2181 JUMPI JUMP JUMPDEST PUSH1 0x40 MLOAD PUSH3 0x461BCD PUSH1 0xE5 SHL DUP2 MSTORE PUSH1 0x20 PUSH1 0x4 DUP3 ADD MSTORE PUSH1 0x12 PUSH1 0x24 DUP3 ADD MSTORE PUSH18 0x496E73756666696369656E742066756E6473 PUSH1 0x70 SHL PUSH1 0x44 DUP3 ADD MSTORE PUSH1 0x64 SWAP1 REVERT JUMPDEST DUP2 DUP2 LT PUSH2 0x21C6 JUMPI POP POP JUMP JUMPDEST PUSH1 0x0 DUP2 SSTORE PUSH1 0x1 ADD PUSH2 0x21BB JUMP JUMPDEST PUSH1 0x2 DUP1 SLOAD EQ PUSH2 0x21E1 JUMPI PUSH1 0x2 DUP1 SSTORE JUMP JUMPDEST PUSH1 0x40 MLOAD PUSH3 0x461BCD PUSH1 0xE5 SHL DUP2 MSTORE PUSH1 0x20 PUSH1 0x4 DUP3 ADD MSTORE PUSH1 0x1F PUSH1 0x24 DUP3 ADD MSTORE PUSH32 0x5265656E7472616E637947756172643A207265656E7472616E742063616C6C00 PUSH1 0x44 DUP3 ADD MSTORE PUSH1 0x64 SWAP1 REVERT JUMPDEST DUP2 DUP2 MUL SWAP3 SWAP2 DUP2 ISZERO SWAP2 DUP5 DIV EQ OR ISZERO PUSH2 0xFF9 JUMPI JUMP JUMPDEST ISZERO PUSH2 0x2240 JUMPI JUMP JUMPDEST PUSH1 0x40 MLOAD PUSH3 0x461BCD PUSH1 0xE5 SHL DUP2 MSTORE PUSH1 0x20 PUSH1 0x4 DUP3 ADD MSTORE PUSH1 0xF PUSH1 0x24 DUP3 ADD MSTORE PUSH15 0x125B9D985B1A590819D85B59481A59 PUSH1 0x8A SHL PUSH1 0x44 DUP3 ADD MSTORE PUSH1 0x64 SWAP1 REVERT JUMPDEST ISZERO PUSH2 0x227E JUMPI JUMP JUMPDEST PUSH1 0x64 PUSH1 0x40 MLOAD PUSH3 0x461BCD PUSH1 0xE5 SHL DUP2 MSTORE PUSH1 0x20 PUSH1 0x4 DUP3 ADD MSTORE PUSH1 0x20 PUSH1 0x24 DUP3 ADD MSTORE PUSH32 0x596F7520617265206E6F7420746865206F776E6572206F662074686520706574 PUSH1 0x44 DUP3 ADD MSTORE REVERT JUMPDEST SWAP2 SWAP1 DUP3 SUB SWAP2 DUP3 GT PUSH2 0xFF9 JUMPI JUMP JUMPDEST DUP1 SLOAD DUP3 LT ISZERO PUSH2 0x1DC9 JUMPI PUSH1 0x0 MSTORE PUSH1 0x20 PUSH1 0x0 KECCAK256 ADD SWAP1 PUSH1 0x0 SWAP1 JUMP JUMPDEST PUSH1 0x40 MLOAD SWAP1 PUSH2 0x22F4 DUP3 PUSH2 0x1F1C JUMP JUMPDEST DUP2 PUSH2 0x100 PUSH1 0x0 SWAP2 DUP3 DUP2 MSTORE PUSH1 0x60 PUSH1 0x20 DUP3 ADD MSTORE PUSH1 0x60 PUSH1 0x40 DUP3 ADD MSTORE DUP3 PUSH1 0x60 DUP3 ADD MSTORE DUP3 PUSH1 0x80 DUP3 ADD MSTORE DUP3 PUSH1 0xA0 DUP3 ADD MSTORE DUP3 PUSH1 0xC0 DUP3 ADD MSTORE DUP3 PUSH1 0xE0 DUP3 ADD MSTORE ADD MSTORE JUMP JUMPDEST SWAP1 PUSH1 0x40 MLOAD SWAP2 DUP3 DUP2 SLOAD SWAP2 DUP3 DUP3 MSTORE PUSH1 0x20 SWAP3 DUP4 DUP4 ADD SWAP2 PUSH1 0x0 MSTORE DUP4 PUSH1 0x0 KECCAK256 SWAP4 PUSH1 0x0 SWAP1 JUMPDEST DUP3 DUP3 LT PUSH2 0x2363 JUMPI POP POP POP PUSH2 0x205E SWAP3 POP SUB DUP4 PUSH2 0x1F72 JUMP JUMPDEST DUP6 SLOAD DUP5 MSTORE PUSH1 0x1 SWAP6 DUP7 ADD SWAP6 DUP9 SWAP6 POP SWAP4 DUP2 ADD SWAP4 SWAP1 SWAP2 ADD SWAP1 PUSH2 0x234D JUMP JUMPDEST SWAP1 PUSH1 0x40 MLOAD PUSH2 0x238A DUP2 PUSH2 0x1F1C JUMP JUMPDEST PUSH2 0x100 PUSH1 0xFF PUSH1 0x8 DUP4 SWAP6 DUP1 SLOAD DUP6 MSTORE PUSH2 0x23A3 PUSH1 0x1 DUP3 ADD PUSH2 0x232E JUMP JUMPDEST PUSH1 0x20 DUP7 ADD MSTORE PUSH2 0x23B4 PUSH1 0x2 DUP3 ADD PUSH2 0x232E JUMP JUMPDEST PUSH1 0x40 DUP7 ADD MSTORE PUSH1 0x3 DUP2 ADD SLOAD PUSH1 0x60 DUP7 ADD MSTORE PUSH1 0x4 DUP2 ADD SLOAD PUSH1 0x80 DUP7 ADD MSTORE PUSH1 0x5 DUP2 ADD SLOAD PUSH1 0xA0 DUP7 ADD MSTORE PUSH1 0x6 DUP2 ADD SLOAD PUSH1 0xC0 DUP7 ADD MSTORE PUSH1 0x7 DUP2 ADD SLOAD PUSH1 0xE0 DUP7 ADD MSTORE ADD SLOAD AND ISZERO ISZERO SWAP2 ADD MSTORE JUMP JUMPDEST PUSH1 0x0 NOT DUP2 EQ PUSH2 0xFF9 JUMPI PUSH1 0x1 ADD SWAP1 JUMP JUMPDEST DUP1 MLOAD DUP3 LT ISZERO PUSH2 0x1DC9 JUMPI PUSH1 0x20 SWAP2 PUSH1 0x5 SHL ADD ADD SWAP1 JUMP JUMPDEST SWAP1 PUSH2 0x2422 DUP3 PUSH2 0x1F94 JUMP JUMPDEST PUSH2 0x242F PUSH1 0x40 MLOAD SWAP2 DUP3 PUSH2 0x1F72 JUMP JUMPDEST DUP3 DUP2 MSTORE DUP1 SWAP3 PUSH2 0x2440 PUSH1 0x1F NOT SWAP2 PUSH2 0x1F94 JUMP JUMPDEST ADD SWAP1 PUSH1 0x0 JUMPDEST DUP3 DUP2 LT PUSH2 0x2451 JUMPI POP POP POP JUMP JUMPDEST PUSH1 0x20 SWAP1 PUSH2 0x245C PUSH2 0x22E7 JUMP JUMPDEST DUP3 DUP3 DUP6 ADD ADD MSTORE ADD PUSH2 0x2445 JUMP JUMPDEST RETURNDATASIZE ISZERO PUSH2 0x2493 JUMPI RETURNDATASIZE SWAP1 PUSH2 0x2479 DUP3 PUSH2 0x2106 JUMP JUMPDEST SWAP2 PUSH2 0x2487 PUSH1 0x40 MLOAD SWAP4 DUP5 PUSH2 0x1F72 JUMP JUMPDEST DUP3 MSTORE RETURNDATASIZE PUSH1 0x0 PUSH1 0x20 DUP5 ADD RETURNDATACOPY JUMP JUMPDEST PUSH1 0x60 SWAP1 JUMP INVALID LOG2 PUSH5 0x6970667358 0x22 SLT KECCAK256 0xCD 0xCA JUMPDEST OR 0xB1 0xE5 0xCC 0x1E 0xBD SWAP14 DUP15 0x4A 0xE7 REVERT XOR JUMPDEST CALLDATASIZE SWAP15 MSIZE LOG1 0xCE MSTORE 0xF DUP15 SDIV 0x27 GASLIMIT BLOCKHASH PUSH21 0xC8FE0964736F6C6343000813003300000000000000 "},"methodIdentifiers":{"BASE_PRICE()":"f86325ed","FIRST_WINNER_PRIZE()":"83c57f52","MAX_LEVEL()":"a49062d4","MAX_PETS()":"ba877436","MAX_PETS_PER_GAME()":"02056ecb","SECOND_WINNER_PRIZE()":"089d5c17","THIRD_WINNER_PRIZE()":"c9a7ae21","acceptOwnership()":"79ba5097","blastAddress()":"49d3d5e1","claimYieldAndGas()":"38ec8b42","createGame(uint256,uint256,uint256,uint256)":"bdaae1e7","createPet(string)":"d3816bac","distributePrize(uint256)":"99351742","finishGame(uint256,uint256[])":"a03d32f6","games(uint256)":"117a5b90","getFinishedGames()":"82366f2f","getGame(uint256)":"a2f77bcc","getMyPets(address)":"d1ab1ca2","getUnfinishedGames()":"4ecf77d3","joinGame(uint256,uint256)":"b60b9fcb","owner()":"8da5cb5b","pendingOwner()":"e30c3978","petAttributesFees()":"cae45fd4","petMaxAttributes()":"688049fb","pets(uint256)":"cfb869bf","platformFee()":"26232a2e","platformFeeAddress()":"ed14834f","renounceOwnership()":"715018a6","setBlastAddress(address)":"123e4999","setPetAttributesFees(uint256,uint256,uint256,uint256,uint256,uint256)":"c37f5e29","setPetMaxAttributes(uint256,uint256,uint256,uint256,uint256,uint256)":"041e40ae","setPlatformFee(uint256)":"12e8e2c3","setPlatformFeeAddress(address)":"9375da5a","transferOwnership(address)":"f2fde38b","upgradePetAgility(uint256,uint256)":"9171b407","upgradePetIntelligence(uint256,uint256)":"1f5974c0","upgradePetLuck(uint256,uint256)":"8550ef51","upgradePetSpees(uint256,uint256)":"e9aac2e6","upgradePetStamina(uint256,uint256)":"e2da9190","upgradePetStrength(uint256,uint256)":"adaf73c4"}}}}}