{
  "_format": "hh-sol-artifact-1",
  "contractName": "PetRace",
  "sourceName": "contracts/PetRace.sol",
  "abi": [
    {
      "inputs": [
        {
          "internalType": "address",
          "name": "_platformFeeAddress",
          "type": "address"
        }
      ],
      "stateMutability": "nonpayable",
      "type": "constructor"
    },
    {
      "anonymous": false,
      "inputs": [
        {
          "indexed": false,
          "internalType": "uint256",
          "name": "id",
          "type": "uint256"
        },
        {
          "indexed": false,
          "internalType": "uint256",
          "name": "startTime",
          "type": "uint256"
        },
        {
          "indexed": false,
          "internalType": "uint256",
          "name": "endTime",
          "type": "uint256"
        }
      ],
      "name": "GameCreated",
      "type": "event"
    },
    {
      "anonymous": false,
      "inputs": [
        {
          "indexed": false,
          "internalType": "uint256",
          "name": "gameId",
          "type": "uint256"
        },
        {
          "indexed": false,
          "internalType": "uint256",
          "name": "petId",
          "type": "uint256"
        }
      ],
      "name": "JoinGame",
      "type": "event"
    },
    {
      "anonymous": false,
      "inputs": [
        {
          "indexed": true,
          "internalType": "address",
          "name": "previousOwner",
          "type": "address"
        },
        {
          "indexed": true,
          "internalType": "address",
          "name": "newOwner",
          "type": "address"
        }
      ],
      "name": "OwnershipTransferStarted",
      "type": "event"
    },
    {
      "anonymous": false,
      "inputs": [
        {
          "indexed": true,
          "internalType": "address",
          "name": "previousOwner",
          "type": "address"
        },
        {
          "indexed": true,
          "internalType": "address",
          "name": "newOwner",
          "type": "address"
        }
      ],
      "name": "OwnershipTransferred",
      "type": "event"
    },
    {
      "anonymous": false,
      "inputs": [
        {
          "indexed": false,
          "internalType": "uint256",
          "name": "id",
          "type": "uint256"
        },
        {
          "indexed": false,
          "internalType": "string",
          "name": "name",
          "type": "string"
        }
      ],
      "name": "PetCreated",
      "type": "event"
    },
    {
      "inputs": [],
      "name": "BASE_PRICE",
      "outputs": [
        {
          "internalType": "uint256",
          "name": "",
          "type": "uint256"
        }
      ],
      "stateMutability": "view",
      "type": "function"
    },
    {
      "inputs": [],
      "name": "FIRST_WINNER_PRIZE",
      "outputs": [
        {
          "internalType": "uint256",
          "name": "",
          "type": "uint256"
        }
      ],
      "stateMutability": "view",
      "type": "function"
    },
    {
      "inputs": [],
      "name": "MAX_LEVEL",
      "outputs": [
        {
          "internalType": "uint256",
          "name": "",
          "type": "uint256"
        }
      ],
      "stateMutability": "view",
      "type": "function"
    },
    {
      "inputs": [],
      "name": "MAX_PETS",
      "outputs": [
        {
          "internalType": "uint256",
          "name": "",
          "type": "uint256"
        }
      ],
      "stateMutability": "view",
      "type": "function"
    },
    {
      "inputs": [],
      "name": "MAX_PETS_PER_GAME",
      "outputs": [
        {
          "internalType": "uint256",
          "name": "",
          "type": "uint256"
        }
      ],
      "stateMutability": "view",
      "type": "function"
    },
    {
      "inputs": [],
      "name": "SECOND_WINNER_PRIZE",
      "outputs": [
        {
          "internalType": "uint256",
          "name": "",
          "type": "uint256"
        }
      ],
      "stateMutability": "view",
      "type": "function"
    },
    {
      "inputs": [],
      "name": "THIRD_WINNER_PRIZE",
      "outputs": [
        {
          "internalType": "uint256",
          "name": "",
          "type": "uint256"
        }
      ],
      "stateMutability": "view",
      "type": "function"
    },
    {
      "inputs": [],
      "name": "acceptOwnership",
      "outputs": [],
      "stateMutability": "nonpayable",
      "type": "function"
    },
    {
      "inputs": [],
      "name": "claimYieldAndGas",
      "outputs": [],
      "stateMutability": "nonpayable",
      "type": "function"
    },
    {
      "inputs": [
        {
          "internalType": "uint256",
          "name": "_startTime",
          "type": "uint256"
        },
        {
          "internalType": "uint256",
          "name": "_endTime",
          "type": "uint256"
        },
        {
          "internalType": "uint256",
          "name": "_entryFee",
          "type": "uint256"
        },
        {
          "internalType": "uint256",
          "name": "_raceDistance",
          "type": "uint256"
        }
      ],
      "name": "createGame",
      "outputs": [],
      "stateMutability": "nonpayable",
      "type": "function"
    },
    {
      "inputs": [
        {
          "internalType": "string",
          "name": "_name",
          "type": "string"
        }
      ],
      "name": "createPet",
      "outputs": [],
      "stateMutability": "payable",
      "type": "function"
    },
    {
      "inputs": [
        {
          "internalType": "uint256",
          "name": "_gameId",
          "type": "uint256"
        }
      ],
      "name": "distributePrize",
      "outputs": [],
      "stateMutability": "nonpayable",
      "type": "function"
    },
    {
      "inputs": [
        {
          "internalType": "uint256",
          "name": "_gameId",
          "type": "uint256"
        },
        {
          "internalType": "uint256[]",
          "name": "_winners",
          "type": "uint256[]"
        }
      ],
      "name": "finishGame",
      "outputs": [],
      "stateMutability": "nonpayable",
      "type": "function"
    },
    {
      "inputs": [
        {
          "internalType": "uint256",
          "name": "",
          "type": "uint256"
        }
      ],
      "name": "games",
      "outputs": [
        {
          "internalType": "uint256",
          "name": "id",
          "type": "uint256"
        },
        {
          "internalType": "uint256",
          "name": "winningPrize",
          "type": "uint256"
        },
        {
          "internalType": "uint256",
          "name": "entryFee",
          "type": "uint256"
        },
        {
          "internalType": "uint256",
          "name": "startTime",
          "type": "uint256"
        },
        {
          "internalType": "uint256",
          "name": "endTime",
          "type": "uint256"
        },
        {
          "internalType": "uint256",
          "name": "raceDistance",
          "type": "uint256"
        },
        {
          "internalType": "bool",
          "name": "isFinished",
          "type": "bool"
        }
      ],
      "stateMutability": "view",
      "type": "function"
    },
    {
      "inputs": [],
      "name": "getFinishedGames",
      "outputs": [
        {
          "components": [
            {
              "internalType": "uint256",
              "name": "id",
              "type": "uint256"
            },
            {
              "internalType": "uint256[]",
              "name": "pets",
              "type": "uint256[]"
            },
            {
              "internalType": "uint256[]",
              "name": "winners",
              "type": "uint256[]"
            },
            {
              "internalType": "uint256",
              "name": "winningPrize",
              "type": "uint256"
            },
            {
              "internalType": "uint256",
              "name": "entryFee",
              "type": "uint256"
            },
            {
              "internalType": "uint256",
              "name": "startTime",
              "type": "uint256"
            },
            {
              "internalType": "uint256",
              "name": "endTime",
              "type": "uint256"
            },
            {
              "internalType": "uint256",
              "name": "raceDistance",
              "type": "uint256"
            },
            {
              "internalType": "bool",
              "name": "isFinished",
              "type": "bool"
            }
          ],
          "internalType": "struct PetRace.Game[]",
          "name": "",
          "type": "tuple[]"
        }
      ],
      "stateMutability": "view",
      "type": "function"
    },
    {
      "inputs": [
        {
          "internalType": "uint256",
          "name": "_gameId",
          "type": "uint256"
        }
      ],
      "name": "getGame",
      "outputs": [
        {
          "components": [
            {
              "internalType": "uint256",
              "name": "id",
              "type": "uint256"
            },
            {
              "internalType": "uint256[]",
              "name": "pets",
              "type": "uint256[]"
            },
            {
              "internalType": "uint256[]",
              "name": "winners",
              "type": "uint256[]"
            },
            {
              "internalType": "uint256",
              "name": "winningPrize",
              "type": "uint256"
            },
            {
              "internalType": "uint256",
              "name": "entryFee",
              "type": "uint256"
            },
            {
              "internalType": "uint256",
              "name": "startTime",
              "type": "uint256"
            },
            {
              "internalType": "uint256",
              "name": "endTime",
              "type": "uint256"
            },
            {
              "internalType": "uint256",
              "name": "raceDistance",
              "type": "uint256"
            },
            {
              "internalType": "bool",
              "name": "isFinished",
              "type": "bool"
            }
          ],
          "internalType": "struct PetRace.Game",
          "name": "",
          "type": "tuple"
        }
      ],
      "stateMutability": "view",
      "type": "function"
    },
    {
      "inputs": [
        {
          "internalType": "address",
          "name": "_owner",
          "type": "address"
        }
      ],
      "name": "getMyPets",
      "outputs": [
        {
          "components": [
            {
              "internalType": "uint256",
              "name": "id",
              "type": "uint256"
            },
            {
              "internalType": "string",
              "name": "name",
              "type": "string"
            },
            {
              "internalType": "uint256",
              "name": "speed",
              "type": "uint256"
            },
            {
              "internalType": "uint256",
              "name": "stamina",
              "type": "uint256"
            },
            {
              "internalType": "uint256",
              "name": "strength",
              "type": "uint256"
            },
            {
              "internalType": "uint256",
              "name": "agility",
              "type": "uint256"
            },
            {
              "internalType": "uint256",
              "name": "intelligence",
              "type": "uint256"
            },
            {
              "internalType": "uint256",
              "name": "luck",
              "type": "uint256"
            },
            {
              "internalType": "uint256",
              "name": "level",
              "type": "uint256"
            },
            {
              "internalType": "uint256",
              "name": "experience",
              "type": "uint256"
            },
            {
              "internalType": "uint256",
              "name": "wins",
              "type": "uint256"
            },
            {
              "internalType": "uint256",
              "name": "losses",
              "type": "uint256"
            },
            {
              "internalType": "uint256",
              "name": "draws",
              "type": "uint256"
            },
            {
              "internalType": "uint256",
              "name": "raceCount",
              "type": "uint256"
            },
            {
              "internalType": "uint256",
              "name": "basePrice",
              "type": "uint256"
            },
            {
              "internalType": "address",
              "name": "owner",
              "type": "address"
            }
          ],
          "internalType": "struct PetRace.Pet[]",
          "name": "",
          "type": "tuple[]"
        }
      ],
      "stateMutability": "view",
      "type": "function"
    },
    {
      "inputs": [],
      "name": "getUnfinishedGames",
      "outputs": [
        {
          "components": [
            {
              "internalType": "uint256",
              "name": "id",
              "type": "uint256"
            },
            {
              "internalType": "uint256[]",
              "name": "pets",
              "type": "uint256[]"
            },
            {
              "internalType": "uint256[]",
              "name": "winners",
              "type": "uint256[]"
            },
            {
              "internalType": "uint256",
              "name": "winningPrize",
              "type": "uint256"
            },
            {
              "internalType": "uint256",
              "name": "entryFee",
              "type": "uint256"
            },
            {
              "internalType": "uint256",
              "name": "startTime",
              "type": "uint256"
            },
            {
              "internalType": "uint256",
              "name": "endTime",
              "type": "uint256"
            },
            {
              "internalType": "uint256",
              "name": "raceDistance",
              "type": "uint256"
            },
            {
              "internalType": "bool",
              "name": "isFinished",
              "type": "bool"
            }
          ],
          "internalType": "struct PetRace.Game[]",
          "name": "",
          "type": "tuple[]"
        }
      ],
      "stateMutability": "view",
      "type": "function"
    },
    {
      "inputs": [
        {
          "internalType": "uint256",
          "name": "_gameId",
          "type": "uint256"
        },
        {
          "internalType": "uint256",
          "name": "_petId",
          "type": "uint256"
        }
      ],
      "name": "joinGame",
      "outputs": [],
      "stateMutability": "payable",
      "type": "function"
    },
    {
      "inputs": [],
      "name": "owner",
      "outputs": [
        {
          "internalType": "address",
          "name": "",
          "type": "address"
        }
      ],
      "stateMutability": "view",
      "type": "function"
    },
    {
      "inputs": [],
      "name": "pendingOwner",
      "outputs": [
        {
          "internalType": "address",
          "name": "",
          "type": "address"
        }
      ],
      "stateMutability": "view",
      "type": "function"
    },
    {
      "inputs": [],
      "name": "petAttributesFees",
      "outputs": [
        {
          "internalType": "uint256",
          "name": "speed",
          "type": "uint256"
        },
        {
          "internalType": "uint256",
          "name": "stamina",
          "type": "uint256"
        },
        {
          "internalType": "uint256",
          "name": "strength",
          "type": "uint256"
        },
        {
          "internalType": "uint256",
          "name": "agility",
          "type": "uint256"
        },
        {
          "internalType": "uint256",
          "name": "intelligence",
          "type": "uint256"
        },
        {
          "internalType": "uint256",
          "name": "luck",
          "type": "uint256"
        }
      ],
      "stateMutability": "view",
      "type": "function"
    },
    {
      "inputs": [],
      "name": "petMaxAttributes",
      "outputs": [
        {
          "internalType": "uint256",
          "name": "speed",
          "type": "uint256"
        },
        {
          "internalType": "uint256",
          "name": "stamina",
          "type": "uint256"
        },
        {
          "internalType": "uint256",
          "name": "strength",
          "type": "uint256"
        },
        {
          "internalType": "uint256",
          "name": "agility",
          "type": "uint256"
        },
        {
          "internalType": "uint256",
          "name": "intelligence",
          "type": "uint256"
        },
        {
          "internalType": "uint256",
          "name": "luck",
          "type": "uint256"
        }
      ],
      "stateMutability": "view",
      "type": "function"
    },
    {
      "inputs": [
        {
          "internalType": "uint256",
          "name": "",
          "type": "uint256"
        }
      ],
      "name": "pets",
      "outputs": [
        {
          "internalType": "uint256",
          "name": "id",
          "type": "uint256"
        },
        {
          "internalType": "string",
          "name": "name",
          "type": "string"
        },
        {
          "internalType": "uint256",
          "name": "speed",
          "type": "uint256"
        },
        {
          "internalType": "uint256",
          "name": "stamina",
          "type": "uint256"
        },
        {
          "internalType": "uint256",
          "name": "strength",
          "type": "uint256"
        },
        {
          "internalType": "uint256",
          "name": "agility",
          "type": "uint256"
        },
        {
          "internalType": "uint256",
          "name": "intelligence",
          "type": "uint256"
        },
        {
          "internalType": "uint256",
          "name": "luck",
          "type": "uint256"
        },
        {
          "internalType": "uint256",
          "name": "level",
          "type": "uint256"
        },
        {
          "internalType": "uint256",
          "name": "experience",
          "type": "uint256"
        },
        {
          "internalType": "uint256",
          "name": "wins",
          "type": "uint256"
        },
        {
          "internalType": "uint256",
          "name": "losses",
          "type": "uint256"
        },
        {
          "internalType": "uint256",
          "name": "draws",
          "type": "uint256"
        },
        {
          "internalType": "uint256",
          "name": "raceCount",
          "type": "uint256"
        },
        {
          "internalType": "uint256",
          "name": "basePrice",
          "type": "uint256"
        },
        {
          "internalType": "address",
          "name": "owner",
          "type": "address"
        }
      ],
      "stateMutability": "view",
      "type": "function"
    },
    {
      "inputs": [],
      "name": "platformFee",
      "outputs": [
        {
          "internalType": "uint256",
          "name": "",
          "type": "uint256"
        }
      ],
      "stateMutability": "view",
      "type": "function"
    },
    {
      "inputs": [],
      "name": "platformFeeAddress",
      "outputs": [
        {
          "internalType": "address",
          "name": "",
          "type": "address"
        }
      ],
      "stateMutability": "view",
      "type": "function"
    },
    {
      "inputs": [],
      "name": "renounceOwnership",
      "outputs": [],
      "stateMutability": "nonpayable",
      "type": "function"
    },
    {
      "inputs": [
        {
          "internalType": "address",
          "name": "_blastAddress",
          "type": "address"
        }
      ],
      "name": "setBlastAddress",
      "outputs": [],
      "stateMutability": "nonpayable",
      "type": "function"
    },
    {
      "inputs": [
        {
          "internalType": "uint256",
          "name": "_speed",
          "type": "uint256"
        },
        {
          "internalType": "uint256",
          "name": "_stamina",
          "type": "uint256"
        },
        {
          "internalType": "uint256",
          "name": "_strength",
          "type": "uint256"
        },
        {
          "internalType": "uint256",
          "name": "_agility",
          "type": "uint256"
        },
        {
          "internalType": "uint256",
          "name": "_intelligence",
          "type": "uint256"
        },
        {
          "internalType": "uint256",
          "name": "_luck",
          "type": "uint256"
        }
      ],
      "name": "setPetAttributesFees",
      "outputs": [],
      "stateMutability": "nonpayable",
      "type": "function"
    },
    {
      "inputs": [
        {
          "internalType": "uint256",
          "name": "_speed",
          "type": "uint256"
        },
        {
          "internalType": "uint256",
          "name": "_stamina",
          "type": "uint256"
        },
        {
          "internalType": "uint256",
          "name": "_strength",
          "type": "uint256"
        },
        {
          "internalType": "uint256",
          "name": "_agility",
          "type": "uint256"
        },
        {
          "internalType": "uint256",
          "name": "_intelligence",
          "type": "uint256"
        },
        {
          "internalType": "uint256",
          "name": "_luck",
          "type": "uint256"
        }
      ],
      "name": "setPetMaxAttributes",
      "outputs": [],
      "stateMutability": "nonpayable",
      "type": "function"
    },
    {
      "inputs": [
        {
          "internalType": "uint256",
          "name": "_platformFee",
          "type": "uint256"
        }
      ],
      "name": "setPlatformFee",
      "outputs": [],
      "stateMutability": "nonpayable",
      "type": "function"
    },
    {
      "inputs": [
        {
          "internalType": "address",
          "name": "_platformFeeAddress",
          "type": "address"
        }
      ],
      "name": "setPlatformFeeAddress",
      "outputs": [],
      "stateMutability": "nonpayable",
      "type": "function"
    },
    {
      "inputs": [
        {
          "internalType": "address",
          "name": "newOwner",
          "type": "address"
        }
      ],
      "name": "transferOwnership",
      "outputs": [],
      "stateMutability": "nonpayable",
      "type": "function"
    },
    {
      "inputs": [
        {
          "internalType": "uint256",
          "name": "_petId",
          "type": "uint256"
        },
        {
          "internalType": "uint256",
          "name": "_agility",
          "type": "uint256"
        }
      ],
      "name": "upgradePetAgility",
      "outputs": [],
      "stateMutability": "payable",
      "type": "function"
    },
    {
      "inputs": [
        {
          "internalType": "uint256",
          "name": "_petId",
          "type": "uint256"
        },
        {
          "internalType": "uint256",
          "name": "_intelligence",
          "type": "uint256"
        }
      ],
      "name": "upgradePetIntelligence",
      "outputs": [],
      "stateMutability": "payable",
      "type": "function"
    },
    {
      "inputs": [
        {
          "internalType": "uint256",
          "name": "_petId",
          "type": "uint256"
        },
        {
          "internalType": "uint256",
          "name": "_luck",
          "type": "uint256"
        }
      ],
      "name": "upgradePetLuck",
      "outputs": [],
      "stateMutability": "payable",
      "type": "function"
    },
    {
      "inputs": [
        {
          "internalType": "uint256",
          "name": "_petId",
          "type": "uint256"
        },
        {
          "internalType": "uint256",
          "name": "_speed",
          "type": "uint256"
        }
      ],
      "name": "upgradePetSpees",
      "outputs": [],
      "stateMutability": "payable",
      "type": "function"
    },
    {
      "inputs": [
        {
          "internalType": "uint256",
          "name": "_petId",
          "type": "uint256"
        },
        {
          "internalType": "uint256",
          "name": "_stamina",
          "type": "uint256"
        }
      ],
      "name": "upgradePetStamina",
      "outputs": [],
      "stateMutability": "payable",
      "type": "function"
    },
    {
      "inputs": [
        {
          "internalType": "uint256",
          "name": "_petId",
          "type": "uint256"
        },
        {
          "internalType": "uint256",
          "name": "_strength",
          "type": "uint256"
        }
      ],
      "name": "upgradePetStrength",
      "outputs": [],
      "stateMutability": "payable",
      "type": "function"
    }
  ],
  "bytecode": "0x6080346200023657601f6200271c38819003918201601f191683019260009290916001600160401b03851183861017620002225781602092849260409788528339810103126200020257516001600160a01b03919082811690819003620002025760a0600180821b031991826001541660015583549033848316178555865191863391167f8be0079c531659141344cd1fd0a4f28419497f9722a3daafe3b4186f6b6457e08780a3600160025567016345785d8a000060045573430000000000000000000000000000000000000293848160055416176005556003541617600355620000eb816200023b565b66038d7ea4c6800091818380935282602082015282888201528260608201528260808201520152806008558060095580600a5580600b5580600c55600d5560a0845162000138816200023b565b60649181838093528260208201528288820152826060820152826080820152015280600e5580600f55806010558060115580601255601355803b1562000202578180916004865180948193634e606c4760e01b83525af18015620002185762000206575b509060055416803b156200020257818091600485518094819363784c3b3d60e11b83525af18015620001f857620001dd575b825161249a9081620002828239f35b620001e982916200026d565b620001f55780620001ce565b80fd5b83513d84823e3d90fd5b5080fd5b62000211906200026d565b386200019c565b84513d84823e3d90fd5b634e487b7160e01b84526041600452602484fd5b600080fd5b60c081019081106001600160401b038211176200025757604052565b634e487b7160e01b600052604160045260246000fd5b6001600160401b038111620002575760405256fe60a080604052600436101561001357600080fd5b60003560e01c90816302056ecb14611d1a57508063041e40ae14611cde578063089d5c1714611cbb578063117a5b9014611c42578063123e499914611bfc57806312e8e2c314611bdb5780631f5974c014611b6357806326232a2e14611b4557806338ec8b42146119fb5780634ecf77d314611983578063688049fb14611936578063715018a6146118d157806379ba50971461180e57806382366f2f1461177d57806383c57f521461175a5780638550ef51146116ea5780638da5cb5b146116c15780639171b4071461164e5780639375da5a14611608578063993517421461135f578063a03d32f614611188578063a2f77bcc14611136578063a49062d41461111a578063adaf73c4146110a6578063b60b9fcb14610e8a578063ba87743614610e6d578063bdaae1e714610c41578063c37f5e2914610c05578063c9a7ae2114610be2578063cae45fd414610b91578063cfb869bf14610a6d578063d1ab1ca214610753578063d3816bac146103c3578063e2da919014610350578063e30c397814610327578063e9aac2e61461028a578063ed14834f14610261578063f2fde38b146101f35763f86325ed146101cc57600080fd5b346101ee5760003660031901126101ee576020604051662386f26fc100008152f35b600080fd5b346101ee5760203660031901126101ee576004356001600160a01b03818116918290036101ee576102226120ee565b816001600160601b0360a01b6001541617600155600054167f38d16b8cac22d99fc7c124b9cd0de2d3fa1faef420bfe791d8c362d765e22700600080a3005b346101ee5760003660031901126101ee576003546040516001600160a01b039091168152602090f35b61029336611dab565b906102b56102a082611f78565b50600f01546001600160a01b03163314612243565b6102bd61219e565b600e5482116102f2576102e86002916102e36102db856008546121f2565b341015612146565b611f78565b5001556001600255005b60405162461bcd60e51b815260206004820152600d60248201526c125b9d985b1a59081cdc195959609a1b6044820152606490fd5b346101ee5760003660031901126101ee576001546040516001600160a01b039091168152602090f35b61035936611dab565b906103666102a082611f78565b61036e61219e565b600f54821161038c576102e86003916102e36102db856009546121f2565b60405162461bcd60e51b815260206004820152600f60248201526e496e76616c6964207374616d696e6160881b6044820152606490fd5b60203660031901126101ee5760043567ffffffffffffffff81116101ee57366023820112156101ee5780600401356103fa816120d2565b916104086040519384611f3e565b81835236602483830101116101ee5781600092602460209301838601378301015261043161219e565b610444662386f26fc10000341015612146565b600654906040519161045583611f05565b808352816020840152600160408401526001606084015260016080840152600160a0840152600160c0840152600160e08401526001610100840152600061012084015260006101408401526000610160840152600061018084015260006101a0840152662386f26fc100006101c0840152336101e0840152600160401b81101561072757600181016006556104e981611f78565b93909361073d5780518455602081015180519067ffffffffffffffff8211610727576105186001870154611fb2565b601f81116106e7575b50602090601f83116001146106535791807f2a45148c1009f81a214b3c6a700dd8f4f66176976deb337908e0f1ca3ec300339792600f94600092610648575b50508160011b916000199060031b1c19161760018201555b60408301516002820155606083015160038201556080830151600482015560a0830151600582015560c0830151600682015560e0830151600782015561010083015160088201556101208301516009820155610140830151600a820155610160830151600b820155610180830151600c8201556101a0830151600d8201556101c0830151600e82015501906101e060018060a01b03910151166001600160601b0360a01b82541617905561063e6040519283928352604060208401526040830190612092565b0390a16001600255005b015190508880610560565b906001870160005260206000209160005b601f19851681106106cf5750927f2a45148c1009f81a214b3c6a700dd8f4f66176976deb337908e0f1ca3ec300339792600192600f9583601f198116106106b6575b505050811b016001820155610578565b015160001960f88460031b161c191690558880806106a6565b91926020600181928685015181550194019201610664565b61071790600188016000526020600020601f850160051c8101916020861061071d575b601f0160051c0190612187565b86610521565b909150819061070a565b634e487b7160e01b600052604160045260246000fd5b634e487b7160e01b600052600060045260246000fd5b346101ee576020806003193601126101ee576001600160a01b0390600435828116908190036101ee57600680549061078a82611f60565b926107986040519485611f3e565b828452601f196107a784611f60565b018560005b8281106109e15750505060009160005b8481106108d05787878760405191808301818452825180915260408401918060408360051b8701019401926000965b8388106107f85786860387f35b90919293948380600192603f198a820301865288519081518152610829838301516102008086850152830190612092565b9160408101516040830152606080820151908301526080808201519083015260a0808201519083015260c0808201519083015260e081015160e0830152610100808201519083015261012080820151908301526101408082015190830152610160808201519083015261018080820151908301526101a080820151908301526101c08082015190830152866101e080920151169101529701930197019690939291936107eb565b6108d981611f78565b508389600f8093015416146108f8575b506108f3906123c1565b6107bc565b81946109da918a61090b6108f395611f78565b50916040519261091a84611f05565b8054845261092a60018201611fec565b8d850152600281015460408501526003810154606085015260048101546080850152600581015460a08501528781015460c0850152600781015460e085015260088101546101008501526009810154610120850152600a810154610140850152600b810154610160850152600c810154610180850152600d8101546101a0850152600e8101546101c08501520154166101e08201526109c9828a6123d0565b526109d481896123d0565b506123c1565b93906108e9565b6040516109ed81611f05565b6000815260006060808584015281604084015282015260006080820152600060a0820152600060c0820152600060e08201526000610100820152600061012082015260006101408201526000610160820152600061018082015260006101a082015260006101c082015260006101e08201528282890101520186906107ac565b346101ee5760203660031901126101ee576004356006548110156101ee57610a9490611f78565b508054610aa360018301611fec565b9160028101549260038201546004830154600584015460068501546007860154600887015490600988015492600a89015494600b8a015496600c8b015498600d8c01549a600e8d01549c600160a01b6001900390600f0154169d6040518060805252610200806080516020015260805101610b1d91612092565b9d60805160400152608051606001526080516080015260805160a0015260805160c0015260805160e00152608051610100015260805161012001526080516101400152608051610160015260805161018001526080516101a001526080516101c001526080516101e0015260805180910390f35b346101ee5760003660031901126101ee57600854600954600a54600b54600c54600d54604080519687526020870195909552938501929092526060840152608083015260a082015260c090f35b0390f35b346101ee5760003660031901126101ee5760206040516702c68af0bb1400008152f35b346101ee57610c1336611d34565b94610c229491949392936120ee565b610c2d604051611ecc565b600855600955600a55600b55600c55600d55005b346101ee5760803660031901126101ee57610c5a6120ee565b600754604051610c6981611f22565b60008152604051610c7981611f22565b6000815260405191610c8a83611ee8565b8383526020830152604082015260006060820152604435608082015260043560a082015260243560c082015260643560e08201526000610100820152600160401b8210156107275760018201600755610ce282611d5a565b61073d5781518155602082015180519067ffffffffffffffff821161072757600160401b821161072757602060018401918254848455808510610e50575b500190600052602060002060005b838110610e3c5750505050604082015180519067ffffffffffffffff821161072757600160401b821161072757602060028401918254848455808510610e1f575b500190600052602060002060005b838110610e0b577fbd3f84a55fdc44f970adc6ccbaa93e78d7da5f3fc37c4b7da578d47c9ad2e46a6060888861010060088a8584015160038201556080840151600482015560a0840151600582015560c0840151600682015560e0840151600782015501910151151560ff8019835416911617905560405190815260043560208201526024356040820152a1005b600190602084519401938184015501610d7d565b610e36908460005285846000209182019101612187565b87610d6f565b600190602084519401938184015501610d2e565b610e67908460005285846000209182019101612187565b87610d20565b346101ee5760003660031901126101ee5760206040516127108152f35b610e9336611dab565b610e9b61219e565b610ea86007548310612205565b60065481101561107057610ebe6102a082611f78565b600a6001610ecb84611d5a565b5001541161103c57610eec6004610ee184611d5a565b500154341015612146565b60ff6008610ef984611d5a565b50015416611004576005610f0c83611d5a565b50015461012b198101908111610fee57421015610f9a576001610f2e83611d5a565b500191825491600160401b83101561072757610f73837f71a6cc8f49f9fa4f3902bdf04d1858a719bd3f1eb6ae19c348692e0bb3e971c395600160409601815561229b565b81549060031b9083821b91600019901b191617905582519182526020820152a16001600255005b60405162461bcd60e51b815260206004820152602660248201527f596f752063616e2774206a6f696e207468652067616d652c206974277320746f6044820152656f206c61746560d01b6064820152608490fd5b634e487b7160e01b600052601160045260246000fd5b60405162461bcd60e51b815260206004820152601060248201526f11d85b59481a5cc8199a5b9a5cda195960821b6044820152606490fd5b60405162461bcd60e51b815260206004820152600c60248201526b11d85b59481a5cc8199d5b1b60a21b6044820152606490fd5b60405162461bcd60e51b815260206004820152600e60248201526d125b9d985b1a59081c195d081a5960921b6044820152606490fd5b6110af36611dab565b906110bc6102a082611f78565b6110c461219e565b60105482116110e2576102e86004916102e36102db85600a546121f2565b60405162461bcd60e51b815260206004820152601060248201526f092dcecc2d8d2c840e6e8e4cadccee8d60831b6044820152606490fd5b346101ee5760003660031901126101ee57602060405160648152f35b346101ee5760203660031901126101ee57610bde61117461116e60043561115b6122b3565b506111696007548210612205565b611d5a565b50612349565b604051918291602083526020830190611df5565b346101ee5760403660031901126101ee5760043567ffffffffffffffff602480358281116101ee57366023820112156101ee5780600401356111c981611f60565b926111d76040519485611f3e565b81845260209283850182819460051b830101913683116101ee5783869101915b83831061134f575050505061120a6120ee565b6112176007548710612205565b60ff600861122488611d5a565b5001541661130c57600261123787611d5a565b500193519485116112f857600160401b85116112f8575082548484558085106112db575b5091600052806000209060005b8481106112c95785600861127b82611d5a565b5001805460ff1916600117905560036112c46112be6112b5600461129e86611d5a565b50015460016112ac87611d5a565b500154906121f2565b6004549061228e565b92611d5a565b500155005b83518382015592810192600101611268565b6112f2908460005285846000209182019101612187565b8561125b565b634e487b7160e01b60009081526041600452fd5b8260186064926040519262461bcd60e51b845260048401528201527f47616d6520697320616c72656164792066696e697368656400000000000000006044820152fd5b82358152918101918691016111f7565b346101ee576020806003193601126101ee5760089060043561137f6120ee565b61138c6007548210612205565b61139581611d5a565b5060ff60019485920154161515036115cc576113e36113c560046113b884611d5a565b500154856112ac85611d5a565b670de0b6b3a76400009182916113dd600454826121f2565b9061228e565b04906113ee83611d5a565b5060038091015490600080808060018060a01b0397888654165af1611411612434565b501561157b576000875b61142157005b61142a86611d5a565b506002809101548210156115795761144d82826114468a611d5a565b500161229b565b905490841b1c908660009184156000146114fd575050506706f05b59d3b20000808502908582041485151715610fee57600080809389600f6114928b85970493611f78565b500154165af16114a0612434565b50156114b857906114b188926123c1565b909161141b565b60405162461bcd60e51b815260048101889052601c60248201527f4661696c656420746f207472616e7366657220746865207072697a65000000006044820152606490fd5b848c0361153557505050670429d069189e0000808502908582041485151715610fee57600080809389600f6114928b85970493611f78565b849391929314611552575b600080938193600f6114928495611f78565b9150506702c68af0bb140000808502908582041485151715610fee57859004908690611540565b005b60405162461bcd60e51b815260048101879052602360248201527f4661696c656420746f207472616e736665722074686520706c6174666f726d2060448201526266656560e81b6064820152608490fd5b60405162461bcd60e51b815260048101839052601460248201527311d85b59481a5cc81b9bdd08199a5b9a5cda195960621b6044820152606490fd5b346101ee5760203660031901126101ee576004356001600160a01b038116908190036101ee576116366120ee565b6001600160601b0360a01b6003541617600355600080f35b61165736611dab565b906116646102a082611f78565b61166c61219e565b601154821161168a576102e86005916102e36102db85600b546121f2565b60405162461bcd60e51b815260206004820152600f60248201526e496e76616c6964206167696c69747960881b6044820152606490fd5b346101ee5760003660031901126101ee576000546040516001600160a01b039091168152602090f35b6116f336611dab565b906117006102a082611f78565b61170861219e565b6013548211611726576102e86007916102e36102db85600d546121f2565b60405162461bcd60e51b815260206004820152600c60248201526b496e76616c6964206c75636b60a01b6044820152606490fd5b346101ee5760003660031901126101ee5760206040516706f05b59d3b200008152f35b346101ee5760003660031901126101ee5760075461179a816123e4565b906000805b8281106117b45760405180610bde8682611e6a565b600160ff60086117c384611d5a565b500154161515146117dd575b6117d8906123c1565b61179f565b906118066117d8916117f161116e85611d5a565b6117fb82886123d0565b526109d481876123d0565b9190506117cf565b346101ee5760003660031901126101ee576001546001600160a01b03338183160361187a576001600160601b0360a01b8092166001556000549133908316176000553391167f8be0079c531659141344cd1fd0a4f28419497f9722a3daafe3b4186f6b6457e0600080a3005b60405162461bcd60e51b815260206004820152602960248201527f4f776e61626c6532537465703a2063616c6c6572206973206e6f7420746865206044820152683732bb9037bbb732b960b91b6064820152608490fd5b346101ee5760003660031901126101ee576118ea6120ee565b600180546001600160a01b0319908116909155600080549182168155906001600160a01b03167f8be0079c531659141344cd1fd0a4f28419497f9722a3daafe3b4186f6b6457e08280a3005b346101ee5760003660031901126101ee57600e54600f54601054601154601254601354604080519687526020870195909552938501929092526060840152608083015260a082015260c090f35b346101ee5760003660031901126101ee576007546119a0816123e4565b906000805b8281106119ba5760405180610bde8682611e6a565b60ff60086119c783611d5a565b50015416156119df575b6119da906123c1565b6119a5565b906119f36119da916117f161116e85611d5a565b9190506119d1565b346101ee5760003660031901126101ee576003546001600160a01b039081163303611af15760055460405163430021db60e11b81523060048201523360248201526020929183908290604490829060009087165af1908115611abc578391611ac8575b5050600554604051634aa7d2f760e11b815230600482015233602482015291839183916044918391600091165af18015611abc57611a9857005b813d8311611ab5575b611aab8183611f3e565b810103126101ee57005b503d611aa1565b6040513d6000823e3d90fd5b813d8311611aea575b611adb8183611f3e565b810103126101ee578183611a5e565b503d611ad1565b60405162461bcd60e51b815260206004820152602660248201527f43616c6c6572206973206e6f742074686520706c6174666f726d20666565206160448201526564647265737360d01b6064820152608490fd5b346101ee5760003660031901126101ee576020600454604051908152f35b611b6c36611dab565b90611b796102a082611f78565b611b8161219e565b6012548211611b9f576102e86006916102e36102db85600c546121f2565b60405162461bcd60e51b8152602060048201526014602482015273496e76616c696420696e74656c6c6967656e636560601b6044820152606490fd5b346101ee5760203660031901126101ee57611bf46120ee565b600480359055005b346101ee5760203660031901126101ee576004356001600160a01b038116908190036101ee57611c2a6120ee565b6001600160601b0360a01b6005541617600555600080f35b346101ee5760203660031901126101ee576004356007548110156101ee57611c6b60e091611d5a565b508054906003810154906004810154600582015460068301549160ff600860078601549501541694604051968752602087015260408601526060850152608084015260a0830152151560c0820152f35b346101ee5760003660031901126101ee576020604051670429d069189e00008152f35b346101ee57611cec36611d34565b94611cfb9491949392936120ee565b611d06604051611ecc565b600e55600f55601055601155601255601355005b346101ee5760003660031901126101ee5780600a60209252f35b60c09060031901126101ee57600435906024359060443590606435906084359060a43590565b600754811015611d95576009906007600052027fa66cc928b5edb82af9bd49922954155ab7b0942694bea4ce44661d9a8736c6880190600090565b634e487b7160e01b600052603260045260246000fd5b60409060031901126101ee576004359060243590565b90815180825260208080930193019160005b828110611de1575050505090565b835185529381019392810192600101611dd3565b9081518152611e28611e166020840151610120806020860152840190611dc1565b60408401518382036040850152611dc1565b91606081015160608301526080810151608083015260a081015160a083015260c081015160c083015260e081015160e083015261010080910151151591015290565b602080820190808352835180925260408301928160408460051b8301019501936000915b848310611e9e5750505050505090565b9091929394958480611ebc600193603f198682030187528a51611df5565b9801930193019194939290611e8e565b60c0810190811067ffffffffffffffff82111761072757604052565b610120810190811067ffffffffffffffff82111761072757604052565b610200810190811067ffffffffffffffff82111761072757604052565b6020810190811067ffffffffffffffff82111761072757604052565b90601f8019910116810190811067ffffffffffffffff82111761072757604052565b67ffffffffffffffff81116107275760051b60200190565b600654811015611d9557600660005260041b7ff652222313e28459528d920b65115c16c04f3efc82aaedc97be59f3f377c0d3f0190600090565b90600182811c92168015611fe2575b6020831014611fcc57565b634e487b7160e01b600052602260045260246000fd5b91607f1691611fc1565b906040519182600082549261200084611fb2565b90818452600194858116908160001461206f575060011461202c575b505061202a92500383611f3e565b565b9093915060005260209081600020936000915b81831061205757505061202a9350820101388061201c565b8554888401850152948501948794509183019161203f565b91505061202a94506020925060ff191682840152151560051b820101388061201c565b919082519283825260005b8481106120be575050826000602080949584010152601f8019910116010190565b60208183018101518483018201520161209d565b67ffffffffffffffff811161072757601f01601f191660200190565b6000546001600160a01b0316330361210257565b606460405162461bcd60e51b815260206004820152602060248201527f4f776e61626c653a2063616c6c6572206973206e6f7420746865206f776e65726044820152fd5b1561214d57565b60405162461bcd60e51b8152602060048201526012602482015271496e73756666696369656e742066756e647360701b6044820152606490fd5b818110612192575050565b60008155600101612187565b60028054146121ad5760028055565b60405162461bcd60e51b815260206004820152601f60248201527f5265656e7472616e637947756172643a207265656e7472616e742063616c6c006044820152606490fd5b81810292918115918404141715610fee57565b1561220c57565b60405162461bcd60e51b815260206004820152600f60248201526e125b9d985b1a590819d85b59481a59608a1b6044820152606490fd5b1561224a57565b606460405162461bcd60e51b815260206004820152602060248201527f596f7520617265206e6f7420746865206f776e6572206f6620746865207065746044820152fd5b91908203918211610fee57565b8054821015611d955760005260206000200190600090565b604051906122c082611ee8565b8161010060009182815260606020820152606060408201528260608201528260808201528260a08201528260c08201528260e08201520152565b9060405191828154918282526020928383019160005283600020936000905b82821061232f5750505061202a92500383611f3e565b855484526001958601958895509381019390910190612319565b9060405161235681611ee8565b61010060ff600883958054855261236f600182016122fa565b6020860152612380600282016122fa565b60408601526003810154606086015260048101546080860152600581015460a0860152600681015460c0860152600781015460e08601520154161515910152565b6000198114610fee5760010190565b8051821015611d955760209160051b010190565b906123ee82611f60565b6123fb6040519182611f3e565b828152809261240c601f1991611f60565b019060005b82811061241d57505050565b6020906124286122b3565b82828501015201612411565b3d1561245f573d90612445826120d2565b916124536040519384611f3e565b82523d6000602084013e565b60609056fea26469706673582212203fa604b0fd659e0e0ebc557237bc5b5902c57602ca86a5ab2a9e4f1298c1672a64736f6c63430008130033",
  "linkReferences": {},
  "deployedLinkReferences": {}
}