{
  "_format": "hh-sol-artifact-1",
  "contractName": "PetRace",
  "sourceName": "contracts/PetRace.sol",
  "abi": [
    {
      "inputs": [
        {
          "internalType": "address",
          "name": "_platformFeeAddress",
          "type": "address"
        }
      ],
      "stateMutability": "nonpayable",
      "type": "constructor"
    },
    {
      "anonymous": false,
      "inputs": [
        {
          "indexed": false,
          "internalType": "uint256",
          "name": "id",
          "type": "uint256"
        },
        {
          "indexed": false,
          "internalType": "uint256",
          "name": "startTime",
          "type": "uint256"
        },
        {
          "indexed": false,
          "internalType": "uint256",
          "name": "endTime",
          "type": "uint256"
        }
      ],
      "name": "GameCreated",
      "type": "event"
    },
    {
      "anonymous": false,
      "inputs": [
        {
          "indexed": false,
          "internalType": "uint256",
          "name": "gameId",
          "type": "uint256"
        },
        {
          "indexed": false,
          "internalType": "uint256",
          "name": "petId",
          "type": "uint256"
        }
      ],
      "name": "JoinGame",
      "type": "event"
    },
    {
      "anonymous": false,
      "inputs": [
        {
          "indexed": true,
          "internalType": "address",
          "name": "previousOwner",
          "type": "address"
        },
        {
          "indexed": true,
          "internalType": "address",
          "name": "newOwner",
          "type": "address"
        }
      ],
      "name": "OwnershipTransferStarted",
      "type": "event"
    },
    {
      "anonymous": false,
      "inputs": [
        {
          "indexed": true,
          "internalType": "address",
          "name": "previousOwner",
          "type": "address"
        },
        {
          "indexed": true,
          "internalType": "address",
          "name": "newOwner",
          "type": "address"
        }
      ],
      "name": "OwnershipTransferred",
      "type": "event"
    },
    {
      "anonymous": false,
      "inputs": [
        {
          "indexed": false,
          "internalType": "uint256",
          "name": "id",
          "type": "uint256"
        },
        {
          "indexed": false,
          "internalType": "string",
          "name": "name",
          "type": "string"
        }
      ],
      "name": "PetCreated",
      "type": "event"
    },
    {
      "inputs": [],
      "name": "BASE_PRICE",
      "outputs": [
        {
          "internalType": "uint256",
          "name": "",
          "type": "uint256"
        }
      ],
      "stateMutability": "view",
      "type": "function"
    },
    {
      "inputs": [],
      "name": "FIRST_WINNER_PRIZE",
      "outputs": [
        {
          "internalType": "uint256",
          "name": "",
          "type": "uint256"
        }
      ],
      "stateMutability": "view",
      "type": "function"
    },
    {
      "inputs": [],
      "name": "MAX_LEVEL",
      "outputs": [
        {
          "internalType": "uint256",
          "name": "",
          "type": "uint256"
        }
      ],
      "stateMutability": "view",
      "type": "function"
    },
    {
      "inputs": [],
      "name": "MAX_PETS",
      "outputs": [
        {
          "internalType": "uint256",
          "name": "",
          "type": "uint256"
        }
      ],
      "stateMutability": "view",
      "type": "function"
    },
    {
      "inputs": [],
      "name": "MAX_PETS_PER_GAME",
      "outputs": [
        {
          "internalType": "uint256",
          "name": "",
          "type": "uint256"
        }
      ],
      "stateMutability": "view",
      "type": "function"
    },
    {
      "inputs": [],
      "name": "SECOND_WINNER_PRIZE",
      "outputs": [
        {
          "internalType": "uint256",
          "name": "",
          "type": "uint256"
        }
      ],
      "stateMutability": "view",
      "type": "function"
    },
    {
      "inputs": [],
      "name": "THIRD_WINNER_PRIZE",
      "outputs": [
        {
          "internalType": "uint256",
          "name": "",
          "type": "uint256"
        }
      ],
      "stateMutability": "view",
      "type": "function"
    },
    {
      "inputs": [],
      "name": "acceptOwnership",
      "outputs": [],
      "stateMutability": "nonpayable",
      "type": "function"
    },
    {
      "inputs": [
        {
          "internalType": "uint256",
          "name": "_startTime",
          "type": "uint256"
        },
        {
          "internalType": "uint256",
          "name": "_endTime",
          "type": "uint256"
        },
        {
          "internalType": "uint256",
          "name": "_entryFee",
          "type": "uint256"
        },
        {
          "internalType": "uint256",
          "name": "_raceDistance",
          "type": "uint256"
        }
      ],
      "name": "createGame",
      "outputs": [],
      "stateMutability": "nonpayable",
      "type": "function"
    },
    {
      "inputs": [
        {
          "internalType": "string",
          "name": "_name",
          "type": "string"
        }
      ],
      "name": "createPet",
      "outputs": [],
      "stateMutability": "payable",
      "type": "function"
    },
    {
      "inputs": [
        {
          "internalType": "uint256",
          "name": "_gameId",
          "type": "uint256"
        }
      ],
      "name": "distributePrize",
      "outputs": [],
      "stateMutability": "nonpayable",
      "type": "function"
    },
    {
      "inputs": [
        {
          "internalType": "uint256",
          "name": "_gameId",
          "type": "uint256"
        },
        {
          "internalType": "uint256[]",
          "name": "_winners",
          "type": "uint256[]"
        }
      ],
      "name": "finishGame",
      "outputs": [],
      "stateMutability": "nonpayable",
      "type": "function"
    },
    {
      "inputs": [
        {
          "internalType": "uint256",
          "name": "",
          "type": "uint256"
        }
      ],
      "name": "games",
      "outputs": [
        {
          "internalType": "uint256",
          "name": "id",
          "type": "uint256"
        },
        {
          "internalType": "uint256",
          "name": "winningPrize",
          "type": "uint256"
        },
        {
          "internalType": "uint256",
          "name": "entryFee",
          "type": "uint256"
        },
        {
          "internalType": "uint256",
          "name": "startTime",
          "type": "uint256"
        },
        {
          "internalType": "uint256",
          "name": "endTime",
          "type": "uint256"
        },
        {
          "internalType": "uint256",
          "name": "raceDistance",
          "type": "uint256"
        },
        {
          "internalType": "bool",
          "name": "isFinished",
          "type": "bool"
        }
      ],
      "stateMutability": "view",
      "type": "function"
    },
    {
      "inputs": [],
      "name": "getFinishedGames",
      "outputs": [
        {
          "components": [
            {
              "internalType": "uint256",
              "name": "id",
              "type": "uint256"
            },
            {
              "internalType": "uint256[]",
              "name": "pets",
              "type": "uint256[]"
            },
            {
              "internalType": "uint256[]",
              "name": "winners",
              "type": "uint256[]"
            },
            {
              "internalType": "uint256",
              "name": "winningPrize",
              "type": "uint256"
            },
            {
              "internalType": "uint256",
              "name": "entryFee",
              "type": "uint256"
            },
            {
              "internalType": "uint256",
              "name": "startTime",
              "type": "uint256"
            },
            {
              "internalType": "uint256",
              "name": "endTime",
              "type": "uint256"
            },
            {
              "internalType": "uint256",
              "name": "raceDistance",
              "type": "uint256"
            },
            {
              "internalType": "bool",
              "name": "isFinished",
              "type": "bool"
            }
          ],
          "internalType": "struct PetRace.Game[]",
          "name": "",
          "type": "tuple[]"
        }
      ],
      "stateMutability": "view",
      "type": "function"
    },
    {
      "inputs": [
        {
          "internalType": "uint256",
          "name": "_gameId",
          "type": "uint256"
        }
      ],
      "name": "getGame",
      "outputs": [
        {
          "components": [
            {
              "internalType": "uint256",
              "name": "id",
              "type": "uint256"
            },
            {
              "internalType": "uint256[]",
              "name": "pets",
              "type": "uint256[]"
            },
            {
              "internalType": "uint256[]",
              "name": "winners",
              "type": "uint256[]"
            },
            {
              "internalType": "uint256",
              "name": "winningPrize",
              "type": "uint256"
            },
            {
              "internalType": "uint256",
              "name": "entryFee",
              "type": "uint256"
            },
            {
              "internalType": "uint256",
              "name": "startTime",
              "type": "uint256"
            },
            {
              "internalType": "uint256",
              "name": "endTime",
              "type": "uint256"
            },
            {
              "internalType": "uint256",
              "name": "raceDistance",
              "type": "uint256"
            },
            {
              "internalType": "bool",
              "name": "isFinished",
              "type": "bool"
            }
          ],
          "internalType": "struct PetRace.Game",
          "name": "",
          "type": "tuple"
        }
      ],
      "stateMutability": "view",
      "type": "function"
    },
    {
      "inputs": [
        {
          "internalType": "address",
          "name": "_owner",
          "type": "address"
        }
      ],
      "name": "getMyPets",
      "outputs": [
        {
          "components": [
            {
              "internalType": "uint256",
              "name": "id",
              "type": "uint256"
            },
            {
              "internalType": "string",
              "name": "name",
              "type": "string"
            },
            {
              "internalType": "uint256",
              "name": "speed",
              "type": "uint256"
            },
            {
              "internalType": "uint256",
              "name": "stamina",
              "type": "uint256"
            },
            {
              "internalType": "uint256",
              "name": "strength",
              "type": "uint256"
            },
            {
              "internalType": "uint256",
              "name": "agility",
              "type": "uint256"
            },
            {
              "internalType": "uint256",
              "name": "intelligence",
              "type": "uint256"
            },
            {
              "internalType": "uint256",
              "name": "luck",
              "type": "uint256"
            },
            {
              "internalType": "uint256",
              "name": "level",
              "type": "uint256"
            },
            {
              "internalType": "uint256",
              "name": "experience",
              "type": "uint256"
            },
            {
              "internalType": "uint256",
              "name": "wins",
              "type": "uint256"
            },
            {
              "internalType": "uint256",
              "name": "losses",
              "type": "uint256"
            },
            {
              "internalType": "uint256",
              "name": "draws",
              "type": "uint256"
            },
            {
              "internalType": "uint256",
              "name": "raceCount",
              "type": "uint256"
            },
            {
              "internalType": "uint256",
              "name": "basePrice",
              "type": "uint256"
            },
            {
              "internalType": "address",
              "name": "owner",
              "type": "address"
            }
          ],
          "internalType": "struct PetRace.Pet[]",
          "name": "",
          "type": "tuple[]"
        }
      ],
      "stateMutability": "view",
      "type": "function"
    },
    {
      "inputs": [],
      "name": "getUnfinishedGames",
      "outputs": [
        {
          "components": [
            {
              "internalType": "uint256",
              "name": "id",
              "type": "uint256"
            },
            {
              "internalType": "uint256[]",
              "name": "pets",
              "type": "uint256[]"
            },
            {
              "internalType": "uint256[]",
              "name": "winners",
              "type": "uint256[]"
            },
            {
              "internalType": "uint256",
              "name": "winningPrize",
              "type": "uint256"
            },
            {
              "internalType": "uint256",
              "name": "entryFee",
              "type": "uint256"
            },
            {
              "internalType": "uint256",
              "name": "startTime",
              "type": "uint256"
            },
            {
              "internalType": "uint256",
              "name": "endTime",
              "type": "uint256"
            },
            {
              "internalType": "uint256",
              "name": "raceDistance",
              "type": "uint256"
            },
            {
              "internalType": "bool",
              "name": "isFinished",
              "type": "bool"
            }
          ],
          "internalType": "struct PetRace.Game[]",
          "name": "",
          "type": "tuple[]"
        }
      ],
      "stateMutability": "view",
      "type": "function"
    },
    {
      "inputs": [
        {
          "internalType": "uint256",
          "name": "_gameId",
          "type": "uint256"
        },
        {
          "internalType": "uint256",
          "name": "_petId",
          "type": "uint256"
        }
      ],
      "name": "joinGame",
      "outputs": [],
      "stateMutability": "payable",
      "type": "function"
    },
    {
      "inputs": [],
      "name": "owner",
      "outputs": [
        {
          "internalType": "address",
          "name": "",
          "type": "address"
        }
      ],
      "stateMutability": "view",
      "type": "function"
    },
    {
      "inputs": [],
      "name": "pendingOwner",
      "outputs": [
        {
          "internalType": "address",
          "name": "",
          "type": "address"
        }
      ],
      "stateMutability": "view",
      "type": "function"
    },
    {
      "inputs": [],
      "name": "petAttributesFees",
      "outputs": [
        {
          "internalType": "uint256",
          "name": "speed",
          "type": "uint256"
        },
        {
          "internalType": "uint256",
          "name": "stamina",
          "type": "uint256"
        },
        {
          "internalType": "uint256",
          "name": "strength",
          "type": "uint256"
        },
        {
          "internalType": "uint256",
          "name": "agility",
          "type": "uint256"
        },
        {
          "internalType": "uint256",
          "name": "intelligence",
          "type": "uint256"
        },
        {
          "internalType": "uint256",
          "name": "luck",
          "type": "uint256"
        }
      ],
      "stateMutability": "view",
      "type": "function"
    },
    {
      "inputs": [],
      "name": "petMaxAttributes",
      "outputs": [
        {
          "internalType": "uint256",
          "name": "speed",
          "type": "uint256"
        },
        {
          "internalType": "uint256",
          "name": "stamina",
          "type": "uint256"
        },
        {
          "internalType": "uint256",
          "name": "strength",
          "type": "uint256"
        },
        {
          "internalType": "uint256",
          "name": "agility",
          "type": "uint256"
        },
        {
          "internalType": "uint256",
          "name": "intelligence",
          "type": "uint256"
        },
        {
          "internalType": "uint256",
          "name": "luck",
          "type": "uint256"
        }
      ],
      "stateMutability": "view",
      "type": "function"
    },
    {
      "inputs": [
        {
          "internalType": "uint256",
          "name": "",
          "type": "uint256"
        }
      ],
      "name": "pets",
      "outputs": [
        {
          "internalType": "uint256",
          "name": "id",
          "type": "uint256"
        },
        {
          "internalType": "string",
          "name": "name",
          "type": "string"
        },
        {
          "internalType": "uint256",
          "name": "speed",
          "type": "uint256"
        },
        {
          "internalType": "uint256",
          "name": "stamina",
          "type": "uint256"
        },
        {
          "internalType": "uint256",
          "name": "strength",
          "type": "uint256"
        },
        {
          "internalType": "uint256",
          "name": "agility",
          "type": "uint256"
        },
        {
          "internalType": "uint256",
          "name": "intelligence",
          "type": "uint256"
        },
        {
          "internalType": "uint256",
          "name": "luck",
          "type": "uint256"
        },
        {
          "internalType": "uint256",
          "name": "level",
          "type": "uint256"
        },
        {
          "internalType": "uint256",
          "name": "experience",
          "type": "uint256"
        },
        {
          "internalType": "uint256",
          "name": "wins",
          "type": "uint256"
        },
        {
          "internalType": "uint256",
          "name": "losses",
          "type": "uint256"
        },
        {
          "internalType": "uint256",
          "name": "draws",
          "type": "uint256"
        },
        {
          "internalType": "uint256",
          "name": "raceCount",
          "type": "uint256"
        },
        {
          "internalType": "uint256",
          "name": "basePrice",
          "type": "uint256"
        },
        {
          "internalType": "address",
          "name": "owner",
          "type": "address"
        }
      ],
      "stateMutability": "view",
      "type": "function"
    },
    {
      "inputs": [],
      "name": "platformFee",
      "outputs": [
        {
          "internalType": "uint256",
          "name": "",
          "type": "uint256"
        }
      ],
      "stateMutability": "view",
      "type": "function"
    },
    {
      "inputs": [],
      "name": "platformFeeAddress",
      "outputs": [
        {
          "internalType": "address",
          "name": "",
          "type": "address"
        }
      ],
      "stateMutability": "view",
      "type": "function"
    },
    {
      "inputs": [],
      "name": "renounceOwnership",
      "outputs": [],
      "stateMutability": "nonpayable",
      "type": "function"
    },
    {
      "inputs": [
        {
          "internalType": "address",
          "name": "_blastAddress",
          "type": "address"
        }
      ],
      "name": "setBlastAddress",
      "outputs": [],
      "stateMutability": "nonpayable",
      "type": "function"
    },
    {
      "inputs": [
        {
          "internalType": "uint256",
          "name": "_speed",
          "type": "uint256"
        },
        {
          "internalType": "uint256",
          "name": "_stamina",
          "type": "uint256"
        },
        {
          "internalType": "uint256",
          "name": "_strength",
          "type": "uint256"
        },
        {
          "internalType": "uint256",
          "name": "_agility",
          "type": "uint256"
        },
        {
          "internalType": "uint256",
          "name": "_intelligence",
          "type": "uint256"
        },
        {
          "internalType": "uint256",
          "name": "_luck",
          "type": "uint256"
        }
      ],
      "name": "setPetAttributesFees",
      "outputs": [],
      "stateMutability": "nonpayable",
      "type": "function"
    },
    {
      "inputs": [
        {
          "internalType": "uint256",
          "name": "_speed",
          "type": "uint256"
        },
        {
          "internalType": "uint256",
          "name": "_stamina",
          "type": "uint256"
        },
        {
          "internalType": "uint256",
          "name": "_strength",
          "type": "uint256"
        },
        {
          "internalType": "uint256",
          "name": "_agility",
          "type": "uint256"
        },
        {
          "internalType": "uint256",
          "name": "_intelligence",
          "type": "uint256"
        },
        {
          "internalType": "uint256",
          "name": "_luck",
          "type": "uint256"
        }
      ],
      "name": "setPetMaxAttributes",
      "outputs": [],
      "stateMutability": "nonpayable",
      "type": "function"
    },
    {
      "inputs": [
        {
          "internalType": "uint256",
          "name": "_platformFee",
          "type": "uint256"
        }
      ],
      "name": "setPlatformFee",
      "outputs": [],
      "stateMutability": "nonpayable",
      "type": "function"
    },
    {
      "inputs": [
        {
          "internalType": "address",
          "name": "_platformFeeAddress",
          "type": "address"
        }
      ],
      "name": "setPlatformFeeAddress",
      "outputs": [],
      "stateMutability": "nonpayable",
      "type": "function"
    },
    {
      "inputs": [
        {
          "internalType": "address",
          "name": "newOwner",
          "type": "address"
        }
      ],
      "name": "transferOwnership",
      "outputs": [],
      "stateMutability": "nonpayable",
      "type": "function"
    },
    {
      "inputs": [
        {
          "internalType": "uint256",
          "name": "_petId",
          "type": "uint256"
        },
        {
          "internalType": "uint256",
          "name": "_agility",
          "type": "uint256"
        }
      ],
      "name": "upgradePetAgility",
      "outputs": [],
      "stateMutability": "payable",
      "type": "function"
    },
    {
      "inputs": [
        {
          "internalType": "uint256",
          "name": "_petId",
          "type": "uint256"
        },
        {
          "internalType": "uint256",
          "name": "_intelligence",
          "type": "uint256"
        }
      ],
      "name": "upgradePetIntelligence",
      "outputs": [],
      "stateMutability": "payable",
      "type": "function"
    },
    {
      "inputs": [
        {
          "internalType": "uint256",
          "name": "_petId",
          "type": "uint256"
        },
        {
          "internalType": "uint256",
          "name": "_luck",
          "type": "uint256"
        }
      ],
      "name": "upgradePetLuck",
      "outputs": [],
      "stateMutability": "payable",
      "type": "function"
    },
    {
      "inputs": [
        {
          "internalType": "uint256",
          "name": "_petId",
          "type": "uint256"
        },
        {
          "internalType": "uint256",
          "name": "_speed",
          "type": "uint256"
        }
      ],
      "name": "upgradePetSpees",
      "outputs": [],
      "stateMutability": "payable",
      "type": "function"
    },
    {
      "inputs": [
        {
          "internalType": "uint256",
          "name": "_petId",
          "type": "uint256"
        },
        {
          "internalType": "uint256",
          "name": "_stamina",
          "type": "uint256"
        }
      ],
      "name": "upgradePetStamina",
      "outputs": [],
      "stateMutability": "payable",
      "type": "function"
    },
    {
      "inputs": [
        {
          "internalType": "uint256",
          "name": "_petId",
          "type": "uint256"
        },
        {
          "internalType": "uint256",
          "name": "_strength",
          "type": "uint256"
        }
      ],
      "name": "upgradePetStrength",
      "outputs": [],
      "stateMutability": "payable",
      "type": "function"
    }
  ],
  "bytecode": "0x6080346200017357601f620024e138819003918201601f19168301916001600160401b0383118484101762000178578084926020946040528339810103126200017357516001600160a01b0380821691829003620001735760018060a01b03199081600154166001556000549033838316176000553391167f8be0079c531659141344cd1fd0a4f28419497f9722a3daafe3b4186f6b6457e0600080a3600160025567016345785d8a0000600455734300000000000000000000000000000000000002816005541617600555600354161760035560a0620000df6200018e565b66038d7ea4c680009181838093528260208201528260408201528260608201528260808201520152806008558060095580600a5580600b5580600c55600d5560a06200012a6200018e565b6064918183809352826020820152826040820152826060820152826080820152015280600e5580600f558060105580601155806012556013556040516123329081620001af8239f35b600080fd5b634e487b7160e01b600052604160045260246000fd5b6040519060c082016001600160401b03811183821017620001785760405256fe60a080604052600436101561001357600080fd5b60003560e01c90816302056ecb14611bb257508063041e40ae14611b76578063089d5c1714611b53578063117a5b9014611ada578063123e499914611a9457806312e8e2c314611a735780631f5974c0146119fb57806326232a2e146119dd5780634ecf77d314611965578063688049fb14611918578063715018a6146118b357806379ba5097146117f057806382366f2f1461175f57806383c57f521461173c5780638550ef51146116cc5780638da5cb5b146116a35780639171b407146116305780639375da5a146115ea5780639935174214611341578063a03d32f61461116a578063a2f77bcc14611118578063a49062d4146110fc578063adaf73c414611088578063b60b9fcb14610e6c578063ba87743614610e4f578063bdaae1e714610c23578063c37f5e2914610be7578063c9a7ae2114610bc4578063cae45fd414610b73578063cfb869bf14610a4f578063d1ab1ca214610735578063d3816bac146103b8578063e2da919014610345578063e30c39781461031c578063e9aac2e61461027f578063ed14834f14610256578063f2fde38b146101e85763f86325ed146101c157600080fd5b346101e35760003660031901126101e357602060405166038d7ea4c680008152f35b600080fd5b346101e35760203660031901126101e3576004356001600160a01b03818116918290036101e357610217611f86565b816001600160601b0360a01b6001541617600155600054167f38d16b8cac22d99fc7c124b9cd0de2d3fa1faef420bfe791d8c362d765e22700600080a3005b346101e35760003660031901126101e3576003546040516001600160a01b039091168152602090f35b61028836611c43565b906102aa61029582611e10565b50600f01546001600160a01b0316331461209a565b6102b2611ff5565b600e5482116102e7576102dd6002916102d86102d085600854612049565b3410156120e5565b611e10565b5001556001600255005b60405162461bcd60e51b815260206004820152600d60248201526c125b9d985b1a59081cdc195959609a1b6044820152606490fd5b346101e35760003660031901126101e3576001546040516001600160a01b039091168152602090f35b61034e36611c43565b9061035b61029582611e10565b610363611ff5565b600f548211610381576102dd6003916102d86102d085600954612049565b60405162461bcd60e51b815260206004820152600f60248201526e496e76616c6964207374616d696e6160881b6044820152606490fd5b60203660031901126101e35760043567ffffffffffffffff81116101e357366023820112156101e35780600401356103ef81611f6a565b916103fd6040519384611dd6565b81835236602483830101116101e357816000926024602093018386013783010152610426611ff5565b600654906040519161043783611d9d565b808352816020840152600160408401526001606084015260016080840152600160a0840152600160c0840152600160e08401526001610100840152600061012084015260006101408401526000610160840152600061018084015260006101a084015266038d7ea4c680006101c0840152336101e0840152600160401b81101561070957600181016006556104cb81611e10565b93909361071f5780518455602081015180519067ffffffffffffffff8211610709576104fa6001870154611e4a565b601f81116106c9575b50602090601f83116001146106355791807f2a45148c1009f81a214b3c6a700dd8f4f66176976deb337908e0f1ca3ec300339792600f9460009261062a575b50508160011b916000199060031b1c19161760018201555b60408301516002820155606083015160038201556080830151600482015560a0830151600582015560c0830151600682015560e0830151600782015561010083015160088201556101208301516009820155610140830151600a820155610160830151600b820155610180830151600c8201556101a0830151600d8201556101c0830151600e82015501906101e060018060a01b03910151166001600160601b0360a01b8254161790556106206040519283928352604060208401526040830190611f2a565b0390a16001600255005b015190508880610542565b906001870160005260206000209160005b601f19851681106106b15750927f2a45148c1009f81a214b3c6a700dd8f4f66176976deb337908e0f1ca3ec300339792600192600f9583601f19811610610698575b505050811b01600182015561055a565b015160001960f88460031b161c19169055888080610688565b91926020600181928685015181550194019201610646565b6106f990600188016000526020600020601f850160051c810191602086106106ff575b601f0160051c0190611fde565b86610503565b90915081906106ec565b634e487b7160e01b600052604160045260246000fd5b634e487b7160e01b600052600060045260246000fd5b346101e3576020806003193601126101e3576001600160a01b0390600435828116908190036101e357600680549061076c82611df8565b9261077a6040519485611dd6565b828452601f1961078984611df8565b018560005b8281106109c35750505060009160005b8481106108b25787878760405191808301818452825180915260408401918060408360051b8701019401926000965b8388106107da5786860387f35b90919293948380600192603f198a82030186528851908151815261080b838301516102008086850152830190611f2a565b9160408101516040830152606080820151908301526080808201519083015260a0808201519083015260c0808201519083015260e081015160e0830152610100808201519083015261012080820151908301526101408082015190830152610160808201519083015261018080820151908301526101a080820151908301526101c08082015190830152866101e080920151169101529701930197019690939291936107cd565b6108bb81611e10565b508389600f8093015416146108da575b506108d590612259565b61079e565b81946109bc918a6108ed6108d595611e10565b5091604051926108fc84611d9d565b8054845261090c60018201611e84565b8d850152600281015460408501526003810154606085015260048101546080850152600581015460a08501528781015460c0850152600781015460e085015260088101546101008501526009810154610120850152600a810154610140850152600b810154610160850152600c810154610180850152600d8101546101a0850152600e8101546101c08501520154166101e08201526109ab828a612268565b526109b68189612268565b50612259565b93906108cb565b6040516109cf81611d9d565b6000815260006060808584015281604084015282015260006080820152600060a0820152600060c0820152600060e08201526000610100820152600061012082015260006101408201526000610160820152600061018082015260006101a082015260006101c082015260006101e082015282828901015201869061078e565b346101e35760203660031901126101e3576004356006548110156101e357610a7690611e10565b508054610a8560018301611e84565b9160028101549260038201546004830154600584015460068501546007860154600887015490600988015492600a89015494600b8a015496600c8b015498600d8c01549a600e8d01549c600160a01b6001900390600f0154169d6040518060805252610200806080516020015260805101610aff91611f2a565b9d60805160400152608051606001526080516080015260805160a0015260805160c0015260805160e00152608051610100015260805161012001526080516101400152608051610160015260805161018001526080516101a001526080516101c001526080516101e0015260805180910390f35b346101e35760003660031901126101e357600854600954600a54600b54600c54600d54604080519687526020870195909552938501929092526060840152608083015260a082015260c090f35b0390f35b346101e35760003660031901126101e35760206040516702c68af0bb1400008152f35b346101e357610bf536611bcc565b94610c04949194939293611f86565b610c0f604051611d64565b600855600955600a55600b55600c55600d55005b346101e35760803660031901126101e357610c3c611f86565b600754604051610c4b81611dba565b60008152604051610c5b81611dba565b6000815260405191610c6c83611d80565b8383526020830152604082015260006060820152604435608082015260043560a082015260243560c082015260643560e08201526000610100820152600160401b8210156107095760018201600755610cc482611bf2565b61071f5781518155602082015180519067ffffffffffffffff821161070957600160401b821161070957602060018401918254848455808510610e32575b500190600052602060002060005b838110610e1e5750505050604082015180519067ffffffffffffffff821161070957600160401b821161070957602060028401918254848455808510610e01575b500190600052602060002060005b838110610ded577fbd3f84a55fdc44f970adc6ccbaa93e78d7da5f3fc37c4b7da578d47c9ad2e46a6060888861010060088a8584015160038201556080840151600482015560a0840151600582015560c0840151600682015560e0840151600782015501910151151560ff8019835416911617905560405190815260043560208201526024356040820152a1005b600190602084519401938184015501610d5f565b610e18908460005285846000209182019101611fde565b87610d51565b600190602084519401938184015501610d10565b610e49908460005285846000209182019101611fde565b87610d02565b346101e35760003660031901126101e35760206040516127108152f35b610e7536611c43565b610e7d611ff5565b610e8a600754831061205c565b60065481101561105257610ea061029582611e10565b600a6001610ead84611bf2565b5001541161101e57610ece6004610ec384611bf2565b5001543410156120e5565b60ff6008610edb84611bf2565b50015416610fe6576005610eee83611bf2565b50015461012b198101908111610fd057421015610f7c576001610f1083611bf2565b500191825491600160401b83101561070957610f55837f71a6cc8f49f9fa4f3902bdf04d1858a719bd3f1eb6ae19c348692e0bb3e971c3956001604096018155612133565b81549060031b9083821b91600019901b191617905582519182526020820152a16001600255005b60405162461bcd60e51b815260206004820152602660248201527f596f752063616e2774206a6f696e207468652067616d652c206974277320746f6044820152656f206c61746560d01b6064820152608490fd5b634e487b7160e01b600052601160045260246000fd5b60405162461bcd60e51b815260206004820152601060248201526f11d85b59481a5cc8199a5b9a5cda195960821b6044820152606490fd5b60405162461bcd60e51b815260206004820152600c60248201526b11d85b59481a5cc8199d5b1b60a21b6044820152606490fd5b60405162461bcd60e51b815260206004820152600e60248201526d125b9d985b1a59081c195d081a5960921b6044820152606490fd5b61109136611c43565b9061109e61029582611e10565b6110a6611ff5565b60105482116110c4576102dd6004916102d86102d085600a54612049565b60405162461bcd60e51b815260206004820152601060248201526f092dcecc2d8d2c840e6e8e4cadccee8d60831b6044820152606490fd5b346101e35760003660031901126101e357602060405160648152f35b346101e35760203660031901126101e357610bc061115661115060043561113d61214b565b5061114b600754821061205c565b611bf2565b506121e1565b604051918291602083526020830190611c8d565b346101e35760403660031901126101e35760043567ffffffffffffffff602480358281116101e357366023820112156101e35780600401356111ab81611df8565b926111b96040519485611dd6565b81845260209283850182819460051b830101913683116101e35783869101915b83831061133157505050506111ec611f86565b6111f9600754871061205c565b60ff600861120688611bf2565b500154166112ee57600261121987611bf2565b500193519485116112da57600160401b85116112da575082548484558085106112bd575b5091600052806000209060005b8481106112ab5785600861125d82611bf2565b5001805460ff1916600117905560036112a66112a0611297600461128086611bf2565b500154600161128e87611bf2565b50015490612049565b60045490612126565b92611bf2565b500155005b8351838201559281019260010161124a565b6112d4908460005285846000209182019101611fde565b8561123d565b634e487b7160e01b60009081526041600452fd5b8260186064926040519262461bcd60e51b845260048401528201527f47616d6520697320616c72656164792066696e697368656400000000000000006044820152fd5b82358152918101918691016111d9565b346101e3576020806003193601126101e357600890600435611361611f86565b61136e600754821061205c565b61137781611bf2565b5060ff60019485920154161515036115ae576113c56113a7600461139a84611bf2565b5001548561128e85611bf2565b670de0b6b3a76400009182916113bf60045482612049565b90612126565b04906113d083611bf2565b5060038091015490600080808060018060a01b0397888654165af16113f36122cc565b501561155d576000875b61140357005b61140c86611bf2565b5060028091015482101561155b5761142f82826114288a611bf2565b5001612133565b905490841b1c908660009184156000146114df575050506706f05b59d3b20000808502908582041485151715610fd057600080809389600f6114748b85970493611e10565b500154165af16114826122cc565b501561149a57906114938892612259565b90916113fd565b60405162461bcd60e51b815260048101889052601c60248201527f4661696c656420746f207472616e7366657220746865207072697a65000000006044820152606490fd5b848c0361151757505050670429d069189e0000808502908582041485151715610fd057600080809389600f6114748b85970493611e10565b849391929314611534575b600080938193600f6114748495611e10565b9150506702c68af0bb140000808502908582041485151715610fd057859004908690611522565b005b60405162461bcd60e51b815260048101879052602360248201527f4661696c656420746f207472616e736665722074686520706c6174666f726d2060448201526266656560e81b6064820152608490fd5b60405162461bcd60e51b815260048101839052601460248201527311d85b59481a5cc81b9bdd08199a5b9a5cda195960621b6044820152606490fd5b346101e35760203660031901126101e3576004356001600160a01b038116908190036101e357611618611f86565b6001600160601b0360a01b6003541617600355600080f35b61163936611c43565b9061164661029582611e10565b61164e611ff5565b601154821161166c576102dd6005916102d86102d085600b54612049565b60405162461bcd60e51b815260206004820152600f60248201526e496e76616c6964206167696c69747960881b6044820152606490fd5b346101e35760003660031901126101e3576000546040516001600160a01b039091168152602090f35b6116d536611c43565b906116e261029582611e10565b6116ea611ff5565b6013548211611708576102dd6007916102d86102d085600d54612049565b60405162461bcd60e51b815260206004820152600c60248201526b496e76616c6964206c75636b60a01b6044820152606490fd5b346101e35760003660031901126101e35760206040516706f05b59d3b200008152f35b346101e35760003660031901126101e35760075461177c8161227c565b906000805b8281106117965760405180610bc08682611d02565b600160ff60086117a584611bf2565b500154161515146117bf575b6117ba90612259565b611781565b906117e86117ba916117d361115085611bf2565b6117dd8288612268565b526109b68187612268565b9190506117b1565b346101e35760003660031901126101e3576001546001600160a01b03338183160361185c576001600160601b0360a01b8092166001556000549133908316176000553391167f8be0079c531659141344cd1fd0a4f28419497f9722a3daafe3b4186f6b6457e0600080a3005b60405162461bcd60e51b815260206004820152602960248201527f4f776e61626c6532537465703a2063616c6c6572206973206e6f7420746865206044820152683732bb9037bbb732b960b91b6064820152608490fd5b346101e35760003660031901126101e3576118cc611f86565b600180546001600160a01b0319908116909155600080549182168155906001600160a01b03167f8be0079c531659141344cd1fd0a4f28419497f9722a3daafe3b4186f6b6457e08280a3005b346101e35760003660031901126101e357600e54600f54601054601154601254601354604080519687526020870195909552938501929092526060840152608083015260a082015260c090f35b346101e35760003660031901126101e3576007546119828161227c565b906000805b82811061199c5760405180610bc08682611d02565b60ff60086119a983611bf2565b50015416156119c1575b6119bc90612259565b611987565b906119d56119bc916117d361115085611bf2565b9190506119b3565b346101e35760003660031901126101e3576020600454604051908152f35b611a0436611c43565b90611a1161029582611e10565b611a19611ff5565b6012548211611a37576102dd6006916102d86102d085600c54612049565b60405162461bcd60e51b8152602060048201526014602482015273496e76616c696420696e74656c6c6967656e636560601b6044820152606490fd5b346101e35760203660031901126101e357611a8c611f86565b600480359055005b346101e35760203660031901126101e3576004356001600160a01b038116908190036101e357611ac2611f86565b6001600160601b0360a01b6005541617600555600080f35b346101e35760203660031901126101e3576004356007548110156101e357611b0360e091611bf2565b508054906003810154906004810154600582015460068301549160ff600860078601549501541694604051968752602087015260408601526060850152608084015260a0830152151560c0820152f35b346101e35760003660031901126101e3576020604051670429d069189e00008152f35b346101e357611b8436611bcc565b94611b93949194939293611f86565b611b9e604051611d64565b600e55600f55601055601155601255601355005b346101e35760003660031901126101e35780600a60209252f35b60c09060031901126101e357600435906024359060443590606435906084359060a43590565b600754811015611c2d576009906007600052027fa66cc928b5edb82af9bd49922954155ab7b0942694bea4ce44661d9a8736c6880190600090565b634e487b7160e01b600052603260045260246000fd5b60409060031901126101e3576004359060243590565b90815180825260208080930193019160005b828110611c79575050505090565b835185529381019392810192600101611c6b565b9081518152611cc0611cae6020840151610120806020860152840190611c59565b60408401518382036040850152611c59565b91606081015160608301526080810151608083015260a081015160a083015260c081015160c083015260e081015160e083015261010080910151151591015290565b602080820190808352835180925260408301928160408460051b8301019501936000915b848310611d365750505050505090565b9091929394958480611d54600193603f198682030187528a51611c8d565b9801930193019194939290611d26565b60c0810190811067ffffffffffffffff82111761070957604052565b610120810190811067ffffffffffffffff82111761070957604052565b610200810190811067ffffffffffffffff82111761070957604052565b6020810190811067ffffffffffffffff82111761070957604052565b90601f8019910116810190811067ffffffffffffffff82111761070957604052565b67ffffffffffffffff81116107095760051b60200190565b600654811015611c2d57600660005260041b7ff652222313e28459528d920b65115c16c04f3efc82aaedc97be59f3f377c0d3f0190600090565b90600182811c92168015611e7a575b6020831014611e6457565b634e487b7160e01b600052602260045260246000fd5b91607f1691611e59565b9060405191826000825492611e9884611e4a565b908184526001948581169081600014611f075750600114611ec4575b5050611ec292500383611dd6565b565b9093915060005260209081600020936000915b818310611eef575050611ec293508201013880611eb4565b85548884018501529485019487945091830191611ed7565b915050611ec294506020925060ff191682840152151560051b8201013880611eb4565b919082519283825260005b848110611f56575050826000602080949584010152601f8019910116010190565b602081830181015184830182015201611f35565b67ffffffffffffffff811161070957601f01601f191660200190565b6000546001600160a01b03163303611f9a57565b606460405162461bcd60e51b815260206004820152602060248201527f4f776e61626c653a2063616c6c6572206973206e6f7420746865206f776e65726044820152fd5b818110611fe9575050565b60008155600101611fde565b60028054146120045760028055565b60405162461bcd60e51b815260206004820152601f60248201527f5265656e7472616e637947756172643a207265656e7472616e742063616c6c006044820152606490fd5b81810292918115918404141715610fd057565b1561206357565b60405162461bcd60e51b815260206004820152600f60248201526e125b9d985b1a590819d85b59481a59608a1b6044820152606490fd5b156120a157565b606460405162461bcd60e51b815260206004820152602060248201527f596f7520617265206e6f7420746865206f776e6572206f6620746865207065746044820152fd5b156120ec57565b60405162461bcd60e51b8152602060048201526012602482015271496e73756666696369656e742066756e647360701b6044820152606490fd5b91908203918211610fd057565b8054821015611c2d5760005260206000200190600090565b6040519061215882611d80565b8161010060009182815260606020820152606060408201528260608201528260808201528260a08201528260c08201528260e08201520152565b9060405191828154918282526020928383019160005283600020936000905b8282106121c757505050611ec292500383611dd6565b8554845260019586019588955093810193909101906121b1565b906040516121ee81611d80565b61010060ff600883958054855261220760018201612192565b602086015261221860028201612192565b60408601526003810154606086015260048101546080860152600581015460a0860152600681015460c0860152600781015460e08601520154161515910152565b6000198114610fd05760010190565b8051821015611c2d5760209160051b010190565b9061228682611df8565b6122936040519182611dd6565b82815280926122a4601f1991611df8565b019060005b8281106122b557505050565b6020906122c061214b565b828285010152016122a9565b3d156122f7573d906122dd82611f6a565b916122eb6040519384611dd6565b82523d6000602084013e565b60609056fea2646970667358221220a6a260ac20a67a60ebc885d62700c255ff72181ff1c3128103d01277d56bac8f64736f6c63430008130033",
  "linkReferences": {},
  "deployedLinkReferences": {}
}